:020000040800F2
:100000007021002029020008B71B0008BD16000857
:10001000B51B00081504000841200008000000007E
:100020000000000000000000000000005D1D00084E
:10003000C904000800000000B91B00085F1D00088B
:10004000430200084302000843020008430200087C
:10005000430200084302000843020008430200086C
:10006000430200084302000843020008430200085C
:10007000430200084302000843020008430200084C
:10008000430200084302000843020008430200083C
:10009000430200084302000843020008430200082C
:1000A000430200084302000843020008430200081C
:1000B000430200084302000843020008430200080C
:1000C00043020008430200084302000843020008FC
:1000D00043020008352000084302000843020008DC
:1000E00043020008430200084302000843020008DC
:1000F00043020008430200084302000843020008CC
:1001000043020008430200084302000843020008BB
:1001100043020008430200084302000843020008AB
:1001200043020008430200084302000819040008C3
:10013000430200084302000843020008430200088B
:10014000430200084302000843020008430200087B
:10015000430200084302000843020008430200086B
:10016000430200084302000843020008430200085B
:100170004302000843020008430200080000000098
:10018000430200084302000800F002F800F03CF8C7
:100190000AA090E8000C82448344AAF10107DA45E2
:1001A00001D100F031F8AFF2090EBAE80F0013F0F8
:1001B000010F18BFFB1A43F0010318473015020066
:1001C00050150200103A24BF78C878C1FAD85207F7
:1001D00024BF30C830C144BF04680C6070470000C1
:1001E0000023002400250026103A28BF78C1FBD840
:1001F000520728BF30C148BF0B6070471FB501F0E0
:1002000065FF1FBD10B510BD00F0D1F81146FFF716
:10021000F5FF01F027FF00F0EFF803B4FFF7F2FF5E
:1002200003BC01F01EFF0000094880470948004751
:10023000FEE7FEE7FEE7FEE7FEE7FEE7FEE7FEE796
:10024000FEE7FEE704480549054A064B70470000F3
:10025000F91D0008890100087001002070210020AC
:100260007011002070110020704753EA020C00F05A
:1002700069802DE9F04B4FF00006002B1FBFB3FA49
:1002800083F503FA05F424FA05F65E4012BF16431F
:10029000B2FA82F502FA05F4C5F120051EBF22FA72
:1002A00005FC44EA0C04203556EA044C4FEA144499
:1002B00018BF641C4FF000084FF00009904271EB2A
:1002C000030C39D3002919BFB1FA81F701FA07F6F7
:1002D000B0FA80F700FA07F6C7F120071EBF20FA30
:1002E00007FC46EA0C062037B6FBF4FCA7EB050733
:1002F000103F07F01F0BCBF120060CFA0BFB2CFA7A
:1003000006F644BFB3460026202FA4BF5E464FF03A
:10031000000B5BEA060C08BF4FF0010B19EB0B0951
:10032000ABFB027C48EB0608C01B06FB02CC0BFBB8
:1003300003CC71EB0C01C1E70B460246414648462F
:10034000BDE8F08B13B54FF000004FF00001AFF3A4
:100350000080BDE81C4070474FF0000200B5134616
:1003600094469646203922BFA0E80C50A0E80C50D5
:10037000B1F12001BFF4F7AF090728BFA0E80C5086
:1003800048BF0CC05DF804EB890028BF40F8042B7F
:1003900008BF704748BF20F8022B11F0804F18BFEC
:1003A00000F8012B704770477047704770477546DB
:1003B00000F02CF8AE4605006946534620F00700D1
:1003C000854618B020B5FFF73DFFBDE820404FF04F
:1003D00000064FF000074FF000084FF0000B21F02F
:1003E0000701AC46ACE8C009ACE8C009ACE8C009FC
:1003F000ACE8C0098D46704710B50446AFF30080E5
:100400002046BDE81040FFF708BF000000487047D5
:100410000C010020FEE70000014800F0B3B8000026
:100420006800002001681823CAB2103AB2FBF3F248
:10043000054B6FF30901032A9B5CC36500D9091DB5
:100440008165084670470000D6E2010810B50146F4
:1004500000208B698A6A4FF0C07453B1B3F5005F16
:1004600015D072B1012A0CD0022A0AD0032A09D170
:1004700004E01AB1012A06D0022A03D1C96AC901CF
:1004800000D5012010BDC96AA142FAD010BD002AD2
:10049000F7D0012AF2D0022AF3D0032AF3D010BDFC
:1004A00030B50468256825F48025256004686360FC
:1004B0008368402B036803D099600068C26030BD38
:1004C0009A600068C16030BD704772B6FEE72DE9E2
:1004D000F0410446876D00F0D7FA064694F83500DF
:1004E0000025022806D08020606584F83450012061
:1004F000BDE8F0812068016821F0160101602068E4
:10050000416921F080014161206C08B9A06C20B1E3
:100510002068016821F0080101602068016821F06D
:10052000010101600CE000F0AFFA801B052807D93B
:1005300020206065032084F8350084F83450D7E724
:1005400020680068C007EED194F85C103F20884016
:10055000B860012084F8350084F834500020C7E7E3
:1005600090F83510022903D08021416501207047A1
:10057000052180F835100068016821F00101016053
:10058000002070472DE9F84304464FF00009CDF8EC
:10059000009063484FF41651A56D0068B0FBF1F769
:1005A0002E6894F85C10082000FA01F131420FD057
:1005B00021680A6852070BD50A6822F004020A6013
:1005C00094F85C108840A860606D40F001006065A0
:1005D00094F85C104FF0010808FA01F0304208D09E
:1005E00021684969090604D5A860606D40F00200E1
:1005F000606594F85C1004208840304208D021687F
:100600000968890704D5A860606D40F00400606542
:1006100094F85C1010208840304218D02168096896
:10062000090714D5A86020680168490304D500684B
:10063000000308D5A16C07E00168C90503D401686F
:1006400021F008010160216C09B12046884794F827
:100650005C1020208840304231D021680968C906EA
:100660002DD5A86094F8350005282068016806D0CB
:10067000490347D5006800031DD4616C1CE021F0DC
:10068000160101602068416921F080014161206C00
:1006900008B9A06C20B12068016821F00801016050
:1006A00094F85C103F208840A86084F8358084F876
:1006B0003490216D1FE0E16B09B120468847606DE1
:1006C00000282BD0606DC00714D0052084F83500B9
:1006D0002068016821F0010101600098401C009031
:1006E000B84203D820680068C007F6D184F8358086
:1006F00084F83490E16C002910D001B02046BDE8A8
:10070000F04308470168C905D5D4016821F01001FC
:10071000016084F8358084F83490CCE7BDE8F88334
:100720000C0000202DE9F041044600F0ADF906462A
:100730005CB1022084F83500002584F8345020682C
:10074000016821F0010101600DE00120BDE8F081A8
:1007500000F09AF9801B052805D920206065032048
:1007600084F83500F2E720680068C007F0D12268FD
:10077000116820480140D4E901031843D4E9033645
:100780003343184363691843A3691843E369184363
:10079000236A18430843616A042903D1D4E90B137F
:1007A00019430843106020684069666A20F0070119
:1007B00030460E43012704280CD1A06A0643E06AA4
:1007C00040B12046FFF742FE20B14020606584F82A
:1007D0003570BAE7206846612046FFF723FE94F89B
:1007E0005C203F2191408160656584F83570002070
:1007F000ACE700003F8010F02DE9F0410446866D23
:1008000090F83400002501280DD0012084F8340030
:1008100094F835700020012F07D084F834000225A9
:100820002846BDE8F0810220FBE7022784F83570F6
:1008300060652046FFF734FE94F85C103F20884046
:10084000B0602068016841F016010160206C20B1A1
:100850002068016841F0080101602068016841F0EA
:1008600001010160DCE7000070B5044600F00CF9FE
:100870000546601C02D004480078044400F004F9E6
:10088000401BA042FAD370BD000000202DE9F84FB4
:10089000DFF8BCA1002201250AF1040B03264FF06A
:1008A0000F090BF1040E00BF0B6805FA02F4234098
:1008B000A34270D10F7907F00307012F01D0022F57
:1008C00016D187684FEA420806FA08FC27EA0C07A7
:1008D000D1F80CC00CFA08FC4CEA070CC0F808C0B0
:1008E0004768A7430C79C4F3001494403C43446028
:1008F0000C79E443A4070AD0C4684FEA420C06FA14
:100900000CF7BC438F6807FA0CF72743C7600C79D4
:1009100004F00304022C12D1D40800EB840CDCF8A0
:1009200020405707FF0E09FA07F824EA0804D1F817
:10093000108008FA07F848EA0408CCF82080046818
:100940004FEA420C06FA0CF7BC430F7907F0030795
:1009500007FA0CF7274307604C6814F4403F70D047
:100960003C4C276847F480472760246822F003073F
:1009700004F480440094384C07EB040CDCF808487D
:1009800097074FEA177809FA08F7BC43334FB84284
:1009900002D1002724E054E0314FB84201D10127B1
:1009A0001EE0304FB84201D1022719E02E4FB84265
:1009B00001D1032714E02D4FB84201D104270FE0E5
:1009C0002B4FB84201D105270AE02A4FB84201D186
:1009D000062705E0284FB84201D1072700E0082785
:1009E00007FA08F72743CCF80878DAF800405746AA
:1009F000D1F804C09C435FEACC3C00D51C433C606A
:100A0000DBF800405F46D1F804C09C435FEA8C3CB1
:100A100000D51C433C60DEF800407746D1F804C0A6
:100A20009C435FEACC2C00D51C433C60084F0C373C
:100A30003C68D1F804C09C435FEA8C2C00D51C4371
:100A40003C60521C102AFFF42FAFBDE8F88F000065
:100A5000003C0140443802400030014000000240A8
:100A60000004024000080240000C02400010024056
:100A70000014024000180240001C02400AB18161CB
:100A800070470904FBE700000148806870470000D8
:100A9000000000200248816802781144816070479C
:100AA000000000200B4810B5016841F4007101609E
:100AB000016841F480610160016841F48071016066
:100AC000032000F06FF80F2000F006F800F024F883
:100AD000002010BD003C024070B50D4D04464FF49F
:100AE0007A712878B1FBF0F00A490968B1FBF0F09F
:100AF00000F028FC48B9102C07D200222146501ED5
:100B000000F030F800206C6070BD012070BD000066
:100B1000000000200C0000200A4808B5016841F4DC
:100B200080410160006800F4804000900548001F8B
:100B3000016841F080510160006800F08050009031
:100B400008BD000044380240002809DB00F01F0205
:100B5000012191404009800000F1E020C0F800111F
:100B600070470000F0B40E4B1B680C46C3F3022321
:100B7000C3F10705042D00D90425191D072901D249
:100B8000002300E0DB1E012606FA05F1491E214084
:100B900099409E40761E16403143F0BC01F051BA98
:100BA0000CED00E0064900F0070208684FF6FF036D
:100BB000184040EA0220034A1043086070470000D2
:100BC0000CED00E00000FA052DE9F0470E460500A7
:100BD00065D0DFF81481D8F80000F7B200F0070004
:100BE000B04207D288F80070D8F8000000F0070083
:100BF000B04254D128683D4C810712D5400703D537
:100C0000206840F4E05020602878000703D5206871
:100C100040F4604020602068A96820F0F00008439C
:100C200020602878C0072DD030496868083901282D
:100C300012D0022813D0032811D00968890700298F
:100C40002DDA216821F0030101432160FFF71CFF29
:100C5000814641F2883A0EE009688903EFE70968A6
:100C60008901ECE7FFF710FFA0EB0901514502D91C
:100C70000320BDE8F0872068696800F00C00B0EB45
:100C8000810FEFD1D8F80010404601F00701B142C2
:100C900007D90770006800F00700B04201D00120BA
:100CA000E7E72878400705D52068E96820F4E05098
:100CB000084320602878000706D52068296920F4B9
:100CC000604040EAC100206000F038F82168084A1E
:100CD000C1F30311515CC84006490860064800682A
:100CE000FFF7FAFE0020C4E7003C0240083802404B
:100CF000DEE201080C000020040000200448054941
:100D000000680968044AC1F38221515CC8407047F9
:100D10000C00002008380240EEE2010804480549B2
:100D200000680968044AC1F34231515CC840704709
:100D30000C00002008380240EEE20108154810B50A
:100D4000006810F00C02144813D04110042A0FD090
:100D5000082A0ED10F4C241F2268236802F03F029C
:100D60005B0207D52068C0F38810A0FB010106E0F4
:100D7000084610BD2168C1F38811A1FB00010023C2
:100D8000FFF773FA2168C1F30141491C4900B0FB28
:100D9000F1F010BD083802400024F4002DE9F84FAE
:100DA00004006ED02078DFF84C93C007A9F1040549
:100DB0004AD009F104000168C1F38101012908D07A
:100DC0000068C0F3810002280AD1D9F8000040026F
:100DD00006D52868800337D560680028E1D033E065
:100DE0006068B0F5803F10D0B0F5A02F286810D013
:100DF00020F480302860286820F480202860606813
:100E0000A8B1FFF741FE06460DE0286840F48030A7
:100E1000F4E740F480202860F7E700BFFFF734FED6
:100E2000801B642873D828688003F7D50CE0FFF78F
:100E30002BFE064605E000BFFFF726FE801B642858
:100E4000F0D828688003F7D42078DFF8AC828007D8
:100E50004FF0000A3ED5A748001D016811F00C0FA5
:100E600008D00068C0F3810002280BD1D9F8000037
:100E7000400207D42868800716D5E068012800D111
:100E800012E033E1E068B8B10120C8F80000FFF7D4
:100E9000FBFD064605E000BFFFF7F6FD801B0228BC
:100EA000C0D828688007F7D52868216920F0F800A5
:100EB00040EAC10028600DE0C8F800A0FFF7E4FD9B
:100EC000064604E0FFF7E0FD801B02281FD82868D3
:100ED0008007F7D42078000722D5864F87486169BC
:100EE000703771B101210160FFF7CEFD064604E0C5
:100EF000FFF7CAFD801B022809D838688007F7D59C
:100F00000EE0C0F800A0FFF7BFFD064605E082E056
:100F1000FFF7BAFD801B02287DD838688007F7D418
:100F20002078400768D5DFF8CCB100270BF13C0BE7
:100F3000DBF80000C0000BD4DBF8001041F080515A
:100F4000CBF80010DBF80000012700F08050009083
:100F50006B4E3068C00510D4306840F4807030604B
:100F6000FFF792FD009005E0FFF78EFD0099401A13
:100F7000022850D83068C005F6D55E4EA0686C36A1
:100F800001280FD00528306810D020F00100306013
:100F9000306820F004003060A068B8B1FFF774FD3D
:100FA00000900FE0306840F00100F4E740F00400EA
:100FB0003060F7E7FFF768FD0099411A41F2883089
:100FC000814266D830688007F4D50EE0FFF75CFDFB
:100FD000009007E0FFF758FD0099411A41F2883070
:100FE000814256D830688007F4D42FB1DBF8001066
:100FF00021F08051CBF80010A069C8B33D49091D0C
:101000000968C1F3810102294AD00228504607D05D
:10101000C8F8600000E03CE0FFF736FD04463BE026
:101020004746C8F86000FFF72FFD064605E000BF01
:10103000FFF72AFD801B02282BD828688001F7D4EF
:10104000D4E907010843A16A2E4A490802EB01418D
:10105000626A41EA8211084394F82C1040EA016167
:10106000C9F8001001203866FFF70EFD044606E0BF
:101070003EE000BFFFF708FD001B022809D82868E2
:101080008001F7D534E000BFFFF7FEFC001B02280B
:1010900002D90320BDE8F88F28688001F4D427E046
:1010A0000128F7D0D9F80000E26900F480019142EC
:1010B0001CD1226A00F03F01914217D147F6C0715E
:1010C000626A0140B1EB821F10D1A26A4FF0FF3378
:1010D00000F4403103EB5202B1EB024F06D194F819
:1010E0002C1000F07060B0EB016F01D00120D1E74F
:1010F0000020CFE70438024000004742800E4742FC
:10110000007000400000FFFF704770B5040009D078
:10111000606A002540B125616561A56294F85100BF
:1011200040B10CE0012070BD6068B0F5827FF4D062
:10113000E561F2E784F85050204600F045F80220BF
:1011400084F851002068016821F040010160A08806
:10115000218900F4827001F404410843A18901F45B
:1011600000610843217C01F002010843217D01F068
:1011700001010843218B01F400710843217F01F034
:101180003801084394F8201001F080010843218DB4
:1011900001F40051084321680860A069042101EAB4
:1011A000104094F8241001F01001084321684860B1
:1011B0002068C16921F40061C1616565012084F87E
:1011C0005100002070BD000070B586B006461421A5
:1011D0006846FFF7C1F81F493068884238D11E4879
:1011E0000025016841F480510160006800F48050DE
:1011F000059019481438016841F001010160006848
:10120000694600F001000590A02000900220CDE981
:10121000010503200390052004901048FFF736FBDA
:10122000104C0F4820604FF0C06060604020C4E95F
:1012300002050001C4E90405A561E56125622046B7
:101240006562FFF76FFA08B1FFF73FF9B464A66370
:1012500006B070BD0030014044380240000002403A
:1012600058640240680000202DE9F041044690F8DF
:1012700050000026012809D0012784F8507094F806
:1012800051000025012804D002264EE00220BDE8CE
:10129000F08189B182B1032084F851006565216332
:1012A000A286E286A56365642564A587E587A068B4
:1012B000B0F5004F02D00BE0012636E0206801684F
:1012C00021F0400101602068016841F48041016023
:1012D000A16C18480864A16C1748C863A16C174832
:1012E000C864A06C0565E38E2268216B0C32A06C8B
:1012F000FFF782FA38B1606D40F01000606501269A
:1013000084F8517011E020680168490603D401682F
:1013100041F0400101602068416841F020014160D6
:101320002068416841F00201416084F85050304625
:10133000ADE70000DD1B0008E71B0008BB1B000831
:101340007047704710B5401EB0F1807F01D3012077
:1013500010BD4FF0E02460610F21601700F071FEB6
:101360000020A06107202061002010BD7047704759
:10137000F8B5016804460868CA684B6910F00F0F99
:101380004FF0000559D003F0010602F4907737437F
:1013900065D0C10705D0D10503D5216C41F001010D
:1013A0002164410705D5D90703D0216C41F0020122
:1013B0002164810705D5D90703D0216C41F00401D0
:1013C0002164010707D502F02001314303D0216CCD
:1013D00041F008012164216C00293AD0800604D52F
:1013E000900602D5204600F03EFD20684069216C41
:1013F000C0F38010090700D460B3204600F00CFD54
:1014000020684069400621D52068143050E8001F4C
:1014100021F0400140E80012002AF5D1A06BA8B1EC
:101420006C490165A06BFFF79BF8002811D0A06BF9
:10143000016D01B0BDE8F040084783060FD5930663
:101440000DD52046BDE8F84000F00DBD2046FFF761
:101450008EFFF8BD2046FFF78AFF2564F8BD266B96
:101460002023012E79D1C60677D5D60675D5086812
:10147000486800904869400640D5A16B08684068FC
:101480000004000CEAD0A28D8242E7D9E085C86949
:10149000B0F5807F2DD020680C3050E8001F21F47B
:1014A000807140E80012002AF5D12068143050E81D
:1014B000001F21F0010140E80012002AF5D1206848
:1014C000143050E8001F21F0400140E80012002ACB
:1014D000F5D184F83E30256320680C3050E8001FB9
:1014E00021F0100140E80012002AF5D1A06BFEF7B0
:1014F000EEFFA08DE18D401A81B229E0A08DE18D33
:10150000401A81B2E08D0028A8D00029A6D020681A
:101510000C3050E8002F22F4907240E80026002E94
:10152000F5D12068143050E8002F22F0010240E885
:101530000026002EF5D184F83E30256320680C305B
:1015400050E8002F22F0100240E80023002BF5D1D4
:101550002046FFF70BFFF8BDFFE705062BD5150664
:1015600029D594F83D002128F5D1A068B0F5805F19
:1015700001D12069B0B1206A411C21622168007844
:101580004860E08C401E0004000CE084E3D1206839
:10159000C16821F08001C1602068C16841F040014C
:1015A000C160D8E7206A0088C0F308004860206A5C
:1015B000801C2062E5E74006CDD55006CBD5CA6831
:1015C000204622F04002CA6084F83D3000F075F8F1
:1015D000C1E70000091E000870B5040004D094F8AB
:1015E0003D00002510B106E0012070BD84F83C509C
:1015F000204600F023F8242084F83D002068C168CC
:1016000021F40051C160204600F08EFC2068016981
:1016100021F4904101612068416921F02A01416172
:101620002068C16841F40051C1602564202084F81D
:101630003D0084F83E00002070BD000010B586B06B
:10164000044614216846FEF787FE18492068884240
:1016500029D117480021026842F010020260006898
:1016600000F01000059012481438026842F00102A0
:101670000260006800F0010005904FF4C060009027
:101680000220CDE901010320039007200490694660
:101690000848FFF7FBF8002211462520FFF762FA01
:1016A0002520FFF751FA06B010BD000000100140E0
:1016B000443802400000024070477047FEE72DE9C1
:1016C000F04104461D4616460F462A2000F0C2F996
:1016D000204600F0DDF9304600F0DAF92B2000F06A
:1016E000B9F9384600F0D4F9284600F0D1F9BDE840
:1016F000F0412C2000F0AEB910B514460B4602465E
:10170000FFF7DDFF2046BDE8104000F0C1B9000042
:1017100010B5694C002208212046FFF7AFF964207C
:1017200000F0D2FC012208212046FFF7A7F964202F
:1017300000F0CAFC012204212046FFF79FF9642033
:1017400000F0C2FC112000F085F9782000F0BCFC0C
:10175000362000F07FF9002000F092F93A2000F0E6
:1017600079F9052000F08CF9B22000F073F90C2013
:1017700000F086F90C2000F083F9002000F080F9D9
:10178000332000F07DF9332000F07AF9B72000F023
:1017900061F9352000F074F9BB2000F05BF93720C7
:1017A00000F06EF9C02000F055F92C2000F068F927
:1017B000C22000F04FF9012000F062F9C32000F0D0
:1017C00049F9122000F05CF9C42000F043F9202010
:1017D00000F056F9C62000F03DF90F2000F050F956
:1017E000D02000F037F9A42000F04AF9A12000F041
:1017F00047F9E02000F02EF9D02000F041F9042054
:1018000000F03EF90D2000F03BF9112000F038F90E
:10181000132000F035F92B2000F032F93F2000F0C2
:101820002FF9542000F02CF94C2000F029F9182051
:1018300000F026F90D2000F023F90B2000F020F92C
:101840001F2000F01DF9232000F01AF9E12000F01C
:1018500001F9D02000F014F9042000F011F90C2057
:1018600000F00EF9112000F00BF9132000F008F938
:101870002C2000F005F93F2000F002F9442000F090
:10188000FFF8512000F0FCF82F2000F0F9F81F209D
:1018900000F0F6F81F2000F0F3F8202000F0F0F838
:1018A000232000F0EDF8212000F0D4F8BDE810402E
:1018B000292000F0CFB80000000002402DE9FF4FC2
:1018C00081B00446DDF83C9000904FEA59074FF094
:1018D0000008780700D0012000EBD70000FB09FBCF
:1018E000203AD0B20390029802994844401E83B235
:1018F000E019401E82B22046FFF7E1FE002553E0CA
:10190000B9F10C0F2AD0B9F1100F2ED0B9F1180F80
:101910002ED0B9F1200F49D12749039801EB80104F
:10192000002610F805A0109800284FF0010000FADA
:1019300006F000EA0A0022D020B12046049A02995B
:10194000FFF7DAFE641C0098A4B2201AB84225D131
:101950000298009C401C80B2029023E00398174933
:1019600000EB400001EB8000DAE71549039803E043
:101970000398144900EB400001EB0010D0E708B1D8
:10198000049800E00E9800F083F808F10100C0B25E
:10199000B0FBF7F1804607FB118050B1761CF6B220
:1019A000082EC0D36D1CADB25D45A9D305B0BDE80E
:1019B000F08F4FF00008F5E72AFF0108F6E2010872
:1019C0006AE701085AED01082DE9F0471F469046E5
:1019D000CA19521E93B200EB0802521E002592B2A1
:1019E000DDF82090FFF76BFE002611E000240BE0ED
:1019F00019F8150000F044F809EB4500407800F0B4
:101A00003FF8641CA4B26D1CBC42F1D3761CB6B284
:101A10004645EBD3BDE8F0872DE9FE4F9946DDE959
:101A20000D6714468A460546DDF830800CE0CDF897
:101A300000804B4651462846CDE90167FFF73EFF3F
:101A400005EB560085B2641C2278002AEFD1BDE870
:101A5000FE8F000031B5084C002202212046FFF71E
:101A60000DF8012269460548FFF7FEFB012202211D
:101A70002046FFF703F838BD0000024010000020A8
:101A80000249C86088688007FCD570470030014073
:101A9000020AC1B20448C26082689207FCD5C160E4
:101AA00081688907FCD5704700300140094808B5B6
:101AB000016841F4800101600068002200F48000A8
:101AC000009011463B20FFF74DF8BDE808403B2051
:101AD000FFF73AB83038024010B586B01421684696
:101AE000FEF73AFC1148016841F08001016001688D
:101AF00001F080010591016841F001010160006879
:101B00000B4C00F00100059001220E212046FEF74B
:101B1000B5FF0E200121CDE900010320CDE902101F
:101B200069462046FEF7B2FE06B010BD30380240CE
:101B300000000240104810B50E4901604FF4827158
:101B40004160002102228160C0E90312012242614A
:101B50005202C0E906210162416281620A21C1622A
:101B6000FFF7D3FA002803D0BDE81040FEF7ADBC64
:101B700010BD000000300140100000200C4810B5DE
:101B80000A4901604FF4E1314160002181600C227B
:101B9000C160C0E904128161C161FFF71DFD002829
:101BA00003D0BDE81040FEF790BC10BD001001400E
:101BB000C8000020FEE7FEE7704710B5806B0168A3
:101BC0004A6822F003024A60416D41F0100141650C
:101BD000012180F85110FFF797FA10BD10B5806B06
:101BE000FFF7AFFB10BD38B50546846BFEF74CFF21
:101BF000024628680068C00523D42068416821F0A7
:101C0000200141602068416821F0020141606421A7
:101C1000204600F01BF818B1606D40F020006065B0
:101C2000A068002118B92068C26880680090E18629
:101C3000012084F85100606D18B12046FFF764FA66
:101C400038BD2046FFF77CFB38BD000038B50446A0
:101C50001248134B0068B0FBF3F04FF47A7358430B
:101C600000906068B0F5827F0DD10B460092002293
:101C70008021204600F016F870B1606D40F0200021
:101C80006065032038BD009830B1401E0090206888
:101C90008068C0430006F6D5002038BD0C00002047
:101CA00000366E012DE9F8431E46914688460446EB
:101CB000089DFEF7E9FE401B351AFEF7E5FE0746D4
:101CC00025480068C0F3CB30684338E0701C37D03B
:101CD000FEF7DAFEC01BA84203D215B1009860B32C
:101CE0002CE02068416821F0E00141606068B0F5B7
:101CF000827F0BD1A068B0F5004F02D0B0F5806FA5
:101D000004D12068016821F040010160A06AB0F5AB
:101D1000005F09D12068016821F40051016020684A
:101D2000016841F400510160012084F85100002055
:101D300084F850000320BDE8F8830025401E009081
:101D40002068816838EA010004D000214945BDD1EE
:101D50000020F0E70121F9E70C0000207047FEF7B2
:101D600099BE000030B593B030216846FEF7F4FA12
:101D700014210CA8FEF7F0FA1D480025016841F077
:101D800080510160006800F080501190194801688E
:101D900041F4804101600068022400F48040119009
:101DA00001200090000401908001CDE9064008AABE
:101DB0000420A82182E813000B906846FEF7EEFF8E
:101DC00008B172B6FEE70CA90F2081E831004FF48C
:101DD000A0500F904FF48050109005210CA8FEF7F2
:101DE000F3FE002801D072B6FEE713B030BD00004C
:101DF00040380240007000400248016841F4700120
:101E00000160704788ED00E010B5806B0021C1854E
:101E1000C184FFF7ACFA10BD01680C3151E8002F06
:101E200022F4907241E80023002BF5D101681431AF
:101E300051E8002F22F0010241E80023002BF5D1E8
:101E4000016B012909D101680C3151E8002F22F002
:101E5000100241E80023002BF5D1202180F83E102C
:101E600000210163704708B590F83E10222901D087
:101E7000022008BD82684FF480539A4201D1016963
:101E800021B1816A9A421BD04AB10AE00268816A94
:101E90005268C2F308020A80816A891C08E002695C
:101EA00072B10268526802F07F020A70816A491CAE
:101EB0008162C18D491E0904090CC18503D019E056
:101EC00002685268F1E70168CA6822F02002CA601D
:101ED0000168CA6822F48072CA6001684A6922F007
:101EE00001024A61202180F83E10016B012903D0D4
:101EF000FFF7E2FB002008BD0021016301680C31FF
:101F000051E8002F22F0100241E80023002BF5D108
:101F100001680A68D20602D50A6849680091818D75
:101F2000FFF724FAE6E7000070B50446006801698F
:101F3000E26821F44051114301612169A068E2691E
:101F400008436169114308432168CA6849F20C6378
:101F50009A430243CA6020684169A26921F4407132
:101F60001143416131492068884202D0304988429A
:101F700002D1FEF7D3FE01E0FEF7C0FEE2690023C6
:101F8000192164253226B2F5004F626828D0A0FBE3
:101F90000101930F9200FEF768F90146B0FBF5F0DE
:101FA0006FF01802504301EB800006EB0010B0FB0D
:101FB000F5F000F0F002B1FBF5F002EB0012B1FB1E
:101FC000F5F06FF01803584301EB800006EB0010AA
:101FD000B0FBF5F000F00F0021681044886070BD80
:101FE000A0FB010192185B41FEF73FF90146B0FBEF
:101FF000F5F00201B1FBF5F06FF01803584301EB67
:10200000800006EBC000B0FBF5F000F0F80002EB3A
:102010004002B1FBF5F0584301EB800006EBC00035
:10202000B0FBF5F000F00700D6E70000001001401B
:10203000001401400148FFF79BB90000C8000020D0
:10204000FEE70907090E002804DB00F1E02080F814
:102050000014704700F00F0000F1E02080F8141D1C
:10206000704770470EB5FEF71DFDFFF77BFEFFF7CB
:1020700033FDFFF783FDFFF719FDFFF75BFDFFF76A
:1020800047FB0C48F023002100901A460846FFF752
:102090009BFC0122202100208DE807004FF6FF73F2
:1020A00005A232211920FFF7B7FC642000F00CF8DC
:1020B000FBE70000D620000868656C6C6F20776F26
:1020C000726C642100000000FEF7CEBB4FF0407040
:1020D000E1EE100A704728852885288528852885FF
:1020E000288530653065308630863086308630868B
:1020F0003086308630863886388638863886388608
:102100003886388638863086308630863086308607
:10211000308630863086308730873087306730674A
:102120003066306630662866286628662866286627
:10213000286628662066206618661867186618677D
:10214000186718671867186718871068106810688C
:1021500010681068106810681068106810681068BF
:1021600010681068106810681068106810681068AF
:10217000106810681068106810681068106810689F
:1021800010681068106918891889188918891889C1
:10219000188918891889188918891889188920892F
:1021A00020892089208920892089208920892089E7
:1021B00020892089208920892089208920892889CF
:1021C00028892889288928892889288928AA288A65
:1021D000288A28AA28AA30AA30AA30AA30AA30AA67
:1021E00030AA30AA30AA30AA30AA30CA30CA30CABF
:1021F00038CB38CB38CA30CA38EA38EA38EA38EA55
:1022000038EA38EA38EA38EA38EB38EB38EB40EBB2
:1022100040EB40EB40EB40EB40EB40EB410B410B24
:10222000410B490B490B490B490C490B492B492BD5
:10223000492B492B492B492C492C492C492C492CF9
:10224000492C492C492C492C492C492C492C492CE6
:10225000492C492C492C512C512C512C512C512CAE
:10226000512C512C512C514C514C514C514C514CE6
:10227000514C514D514D494C494C494C494C514D93
:10228000514D514D514D516D516D514D516D516DDE
:10229000516D516D516D516D516D516D516D516D4E
:1022A000516D516D516D514D516D516D516D516D5E
:1022B000516D516D516D288528852885288530857B
:1022C0003085308530853086308630863086308661
:1022D000308630863086308630863086308630864E
:1022E000308630863086308630863086308630863E
:1022F0003086308630863887308730873087308721
:102300003087308730873087308730873087308715
:10231000286728672887206720872067206720672D
:102320001867186718671887188718881888188812
:1023300018881888188818881888188818681868DD
:1023400010681068106810881069106910691069A9
:10235000106910681068108910681068106810689B
:1023600010691069188918891889186918891889D5
:10237000188918891889208920892089208920892D
:102380002089208920892089208920892089208905
:10239000208928892089208920892089288928A9BD
:1023A00028A928A928A928AA28AA28AA28AA28AAA0
:1023B00028AA28AA30AA30AA30AA30AA30AA30CA3D
:1023C00030CA30CA30CA30CA30CA30CA30CA30CA3D
:1023D00038CB38CB38CB38EA38EA38EA38EA38EA4A
:1023E00038EA38EB38EB38EB38EB38EB38EB40EBCE
:1023F00040EB410B410B40EB40EB40EB410B410B01
:10240000410B410B410B490B490B490C490B492C22
:10241000492B492B492B492C492C492C492C492C17
:10242000492C492C492C492C492C492C492C494CE4
:10243000494C494C494C492C492C512C492C512C84
:10244000514C512C514C514C494C514C494C514CD4
:10245000514C514D516D514D514D514D514D514D6D
:10246000516D516D516D516D516D516D516D516D7C
:10247000516D598D598D598D598D598D598D598D54
:10248000518D518D518D516D518D598E598E518E69
:10249000518E518E518D2885288528852885308537
:1024A0003085308630863086308638863886388665
:1024B0003886388638863085308530853085308658
:1024C000308630863086308630863086308630865C
:1024D000308630863086388730873087308730873F
:1024E0003087308730873087308730873087308734
:1024F000308730873087288728872887208720677C
:1025000020672067206720672067206818681868A0
:10251000186818681868188818881888188818881B
:10252000188818881888188818681868186818880B
:1025300018881868186818891889188818881888D9
:102540001889188918891889188918891889188983
:10255000188920892089208920892089208920893B
:10256000208920892089208920892889288928890B
:1025700028A9288928A9288928A928A928AA28AA11
:1025800028AA28AA28AA28AA28AA28AA28AA30AAB3
:1025900030AA30AA30CA30CA30AA30AA38CA38CADB
:1025A00038CB38CB38CB38CB38CB38CB38CB38CB13
:1025B00038CB38CB38CB38EA38EA38EB38EB38EB65
:1025C00038EB38EB38EB38EB38EB38EB390B410BA9
:1025D000410B410B410B410B410B410B410B410B9B
:1025E000410C410C410C410B410C410C410C492C5C
:1025F000492C492C492C492C492C492C492C492C33
:10260000492C492C492C494C494C494C494C494C82
:10261000494D494D514D514D514D514D514D514DDA
:10262000514D514D514D514D494D514D494D514DCA
:10263000516D514D516D516D516D516D516D516DCA
:10264000516D516D516D516D516D516D516D516D9A
:10265000598D598D598D598D598D598D598D598D4A
:10266000598D598D518D598D598D598E59AE59AEFF
:1026700059AE598E598E288528852885288530851C
:102680003085308630863086308638863886388683
:102690003886388638863085308530853085308676
:1026A000308630863086308630863066308630869A
:1026B0003086308630863087308730873087308765
:1026C000308730873087308730873087308738874A
:1026D0003887388730A730A830A830A830A830888D
:1026E0002887288828882888286820682068206803
:1026F0002068206820682068206820681888208862
:1027000020882089208918881888188818681869EE
:1027100018881869188918891889188918891889D2
:102720001889188918892089208920892089208979
:10273000208920A920892089208920892889288921
:102740002889288928892889288928892889288901
:10275000288A288A28AA28AA28AA28AA28AA28AA29
:1027600028AA28AA28AA28AA28AA30AA30AA30AAC1
:1027700030CA30CA30CA30AA30AA30AA38CA38CAD9
:1027800038CB38CB38CB38CB38CB38CB38CB38CB31
:1027900038CB38CB38CB38EB38EB38EB38EB38EB81
:1027A00038EB38EB38EB38EB38EB390B410B410B9E
:1027B000410B410B410B410C410C410C410B410CB5
:1027C000410B410C412C410C410C410C412C412C42
:1027D000412C412C412C492C492C492C492C492C69
:1027E000494C492C494C494D494C494D494C494D5E
:1027F000494D494D494D516D516D516D516D516D61
:10280000516D516D516D496D496D496D496D496D00
:10281000516D516D516D516D516D516D516D516DC8
:10282000516D518D518D518D518D516D598D598DE8
:10283000598D598D598D598D598D598D598D598D68
:10284000598D598E598D59AE59AE59AE59AE59AEB2
:1028500059AE59AE59AE28852885308530853085EA
:102860003085308530853886388638863886388693
:102870003886388638863886388638863886388668
:102880003886388638863066306630663066306620
:102890003066306630663067306730673087308743
:1028A0003087308730873087308738873887388758
:1028B00038873887388738A838A838A838A838889B
:1028C00038A83088308830A830A830A830883088C0
:1028D0002888288828882068206820682068206840
:1028E0002068206820682089208920892089208903
:1028F0002089208920892089208920892089208990
:10290000208920892089208920892089208920A95F
:1029100020A920A920A928892889288928892889E7
:1029200028A928A928A928892889288930A930A96F
:1029300030A930AA30AA30A928A928A928AA30AAE3
:1029400030AA30AA30AA30AA30AA30AA30AA30AAB7
:1029500030CA30CA38CA30CA30CA30CA38CA38CA8F
:1029600038CA38CA38EB38CA38CA38CA38EB38EBF4
:1029700038EB38EB38EB38EB38EB38EB38EB38EB3F
:1029800038EB38EB38EB38EB390B390B390B410BA3
:10299000410B410B410B410C410C410C410C410CD2
:1029A000410C410C412C410C412C412C412C412C1F
:1029B000412C412C412C412C412C492D494C492D75
:1029C000494D494D494D492D494C494D494D494D78
:1029D000494D494D494D494D494D494D494D494D47
:1029E000494D496D496D496D496D496D496D496D57
:1029F000496D496D518D516D516D516D516D516DD7
:102A0000518D518D518D518D518D598D598E598DBD
:102A100059AD59AD59AD59AE59AE59AE59AE59AE81
:102A200059AE59AE59AE59AE59AE59AE59AE59AE6E
:102A300059AE59AE59CE30853085308530853085D8
:102A400030853085308538863886388638863886B1
:102A50003886388638863886388638863886388686
:102A600038863886388630663066306638863886EE
:102A70003886386638663067306730873087308709
:102A8000308730873887388738873887388738875E
:102A90003887388738874088408838883888388829
:102AA000388838883888388838A83889388938A9E3
:102AB00038A930A930A93089288928892888288907
:102AC00028882868286828892889288928892889C1
:102AD000288928892889288928892889288928896E
:102AE000208920892089208920892089208920899E
:102AF000288928892889288930893089308930892E
:102B000030893089308930AA30AA30AA30AA30AA58
:102B100030AA30AA30AA30AA30AA30AA30AA30AAE5
:102B200030AA30AA30AA30AA30AA30CA30CA30CA75
:102B300038CA38CA38CA38CA38CA38CA38CA38EB64
:102B400038EB38EB38EB38CA38CA38EB38EB38EBAF
:102B500038EB38EB38EB38EB38EB38EB38EB390B3C
:102B6000390B390B390B390B390B390B390B410B3D
:102B7000410B410B390B410C410C390C390C390C10
:102B8000410C410C410C410C412C412C412C412D5C
:102B9000412C412D412C412C412C412D414D494D81
:102BA000414D494D414D412D414D412D414D494DE5
:102BB000494D494D494D494D494D494D494D494D65
:102BC000494D494D496D496D496D496D496D496D95
:102BD000498D498E498D518D518D518D518D518D1C
:102BE000518D518D518D518D518D518D518D518DF5
:102BF000518D518D518D518E59AE59AE59AE59AE40
:102C000059AE59AE51AE51AE51AE51AE51AE51AEBC
:102C100059AE59AE51AE30A630A6308630A63086B9
:102C200030863886388638863886388638863886BC
:102C300038863886388638863886388638863886A4
:102C40003886388638863886388638863887388792
:102C5000388738873887388738873887388738877C
:102C6000388738873887388738873887388738876C
:102C7000388738873887408740874087408738883B
:102C80003888388838883888388838883888388844
:102C9000388938A938A938A938A930A930A930A964
:102CA00030A930A930893089308928892888288935
:102CB00028882889288928A928A930A930A92889FD
:102CC00028A928892889288928892889288928895C
:102CD00028A928A930A930893089308930893089DC
:102CE00030893089308930AA30AA30AA38AA38AA67
:102CF00038AA38AA38AA38AA30AA30CA30CA38CA7C
:102D000038CA38CA38CA38CA38CA38CA38CA38CAB3
:102D100038CA38CA38CA38CB38EB38EB38EB38EB1E
:102D200038EB38EB38EB38EB38EB38EB38EB38EB8B
:102D300038EB40EB38EB38EB38EB38EB38EB38EB73
:102D4000390C390C390C390C390C390C390C390C5B
:102D5000390C390C390C410C390C390C390C390C43
:102D6000390C390C392C410C392C412C412C412D7A
:102D7000412C412D412C412C412D412D412D412DE6
:102D8000412D412D414D412D412D412D414D412D93
:102D9000414D414D414D414D414D414D414D414DC3
:102DA000414D414D414D496D416D496D416D496DFB
:102DB000496D496D496D496D496D498D498D498D03
:102DC000498D518D518D496D498D496D518D518D73
:102DD000518D518D518D518D518D518E518E518E00
:102DE00051AE518E518D518E518E518E518E518ECC
:102DF000518E518E51AE308630A630A630A638A600
:102E000038A638A638A63886388638863886388672
:102E1000388638A638A63886388638863886388682
:102E200038863886388638A738A738A738A738A70D
:102E300038A738A738A7388738A738A738A73887DA
:102E40003887388738873887388738873887408782
:102E50004087408840884087408740874087408837
:102E6000408840884088408840883888388838883A
:102E70003888388838893889388938A938A938A9EC
:102E800038A938A938A938893889308930893089F2
:102E900030893089308930A930A930A930A930A9CA
:102EA000308930893089308930A930A930A930A9DA
:102EB00030A930A930A93089388938893889388AC9
:102EC000388A388A388A38AA38AA38AA38AA38AA52
:102ED00038AA38AA38AA38AA38CA38CA38CA38CA62
:102EE00038CA38CA38CA38CB38CB38CB38CA38CACF
:102EF00038CA38CA38CA38EB38EB38EB38EB38EB1D
:102F000038EB38EB38EB38EB38EB38EB38EB38EBA9
:102F100038EB38EB38EB38EB38EB38EB38EB390C77
:102F2000390C390C390C38EB390C390C390C390C9B
:102F3000390C390C390C390C390C390C38EC38ECAB
:102F4000390C390C390C390C390C390C390C392C39
:102F5000392C392C392C412C412C412C412C412C21
:102F6000412C412D412D412D412D414D414D414D92
:102F7000414D414D414D414D414D414D414D414DE1
:102F8000414D414D414D414D414D414D414D414DD1
:102F9000416D416D416D496D496E496E496E498E75
:102FA000498D496D496D498E498E498E498E498EAC
:102FB000498E498E498E51AE51AE51AE51AE51AE91
:102FC00051AE51AE51AE518E498E498E498E498EC9
:102FD000518E518E49AE30A630A630A6388638863E
:102FE00038863886388638863886388638863886F1
:102FF00038A638A638A638A638A638A638A638A6E1
:1030000038A638863886388738873887388738A78B
:1030100038A738A738A738A738A738A838A840A8AD
:1030200040A840A840A84088408840884088408800
:103030004088408840884088408840884088408850
:10304000408840A840A83888388840883888388820
:1030500040A840A838A9388938A938A938A938A97A
:1030600038A938A938A938A938A938A938A938A958
:10307000388938893089388938A938A938A938A9D0
:1030800038A930A9308930A930A930A930A930A990
:1030900030A938A938A938A9388938AA38AA38AA4D
:1030A00038AA38AA38AA38AA38AA38AA38AA38AA10
:1030B00038AA38AA38AA38AA38CA38CA38CB40CB76
:1030C00038CB38CB40EB40EB40EB40EB40EB40EBF8
:1030D00040EB40EB40EB38CB38EB38EB38EB40EBD8
:1030E00040EB410B410B410B410B410B40EB40EBE3
:1030F00040EB40EB40EB38EC38EC410C410C410C20
:10310000410C410C410C410C410C412C412C412CF7
:10311000412C412C412C410C390C390C390C390C07
:10312000390C390C390C392C392C392D392D392DD4
:10313000392D392D392D412D412D412D412D412D37
:10314000412D412D412D414D414D414D414D414D6F
:10315000414D414D414D394D414D414D416D416DC7
:10316000416D416D414D416D416D416D416D416D0F
:10317000416D416D416D498E498E496E498E498E32
:10318000498E498E498E498E498E498E49AE49AE47
:1031900049AE49AE49AE51AE51AE51AE51AE51AE4F
:1031A00051AE51AF51AF49AE49AE49AE51AF51AF3B
:1031B00051AF51AF49AF38A638A638A638A63886E1
:1031C000388638863886388638863886388638860F
:1031D00038863886388638863886388638863886FF
:1031E00038863886388638873887388738873887EA
:1031F00038873887388738873887388738873888D6
:103200003888408840884088408840884088408886
:10321000408840884088408840884088408840886E
:10322000408840884088388840884088408838886E
:1032300038883888388840A938A9408938A940A9F1
:1032400040A940A940A940A938A940A938A938A94E
:1032500038A93889388938A938A938A938A938A9A6
:1032600038A93889388938893889388938A938A9F6
:1032700038A938A938A938AA38AA40AA40AA40AA29
:1032800040AA40AA40AA38AA38AA38AA38AA38AA16
:1032900040AA40AA40AA40CB40CB40CB40CB40CB39
:1032A00040CB40EB40EB40EB40EB40EB40EB40EBE6
:1032B00040EB40EB40EB38EB38EB40EB40EB40EBC6
:1032C000410B410B410B410B410B410B410B410B9E
:1032D000410B410B410B410C410C410C410C410C89
:1032E000410C410C412C412C412C412C412C412CB6
:1032F000412C412C412C412C412C412C412C412C66
:10330000392C392C412D412D412D412D412D412D5F
:10331000412D412D414D412D412D414D414D414DBD
:10332000414D414D414D414D414D414D414D414D2D
:10333000414D414D416D416D416D416D416D416D5D
:10334000416D416D416D416D416D416D416D496E04
:10335000496E496E496E416E416E416E416E418EBD
:10336000498E498E49AE498E498E498E498E49AE65
:1033700049AE49AE49AE51AF51AE51AF51AF51AF69
:1033800051AF51AF51AF51CF51CF51CF51CF51CF9D
:1033900051CF51CF51CF38A638A638A638A638A677
:1033A00038A638863886388638863886388638860D
:1033B000388638863886388638863886388638861D
:1033C0003886388638863886388738873887388709
:1033D00038873887388738873888408840884088D9
:1033E0004088408840A8408840884088408840887D
:1033F000408840884088408840884088408840888D
:103400004088408840884088408838883888388894
:1034100038883888388840A940A9408940A940A9FF
:1034200040A940A940A940A940A940A940A940A954
:1034300040A940A940A938A938A938A938A938A96C
:1034400038A938A938A938A938A938A940A940CA43
:1034500040CA40CA40CA40CA40CA40CA40CA40CA1C
:1034600040CA40CA40CA40CA40CA40CA40CA40CA0C
:1034700040CA40CA40CA40CB40EB40EB40EB40EB77
:1034800040EB40EB40EB40EB40EB40EB40EB40EBE4
:1034900040EB40EB40EB40EB40EB40EB410B410B92
:1034A000410B410B410B410C410C410C410C410CB7
:1034B000410C410C410C410C410C410C410C412C84
:1034C000412C412C412C412C412C412C412C412C94
:1034D000412C412C412C414D414D412C412C412D41
:1034E000412D412D412D412D412D414D414D414D0C
:1034F000414D414D414D414D414D414D414D414D5C
:10350000414D414D414D416D416D416D416D416DAB
:10351000416D416D416D416D418E418E418E418EB7
:10352000418E418E416D498E498E498E498E498E1C
:10353000498E498E498E498E498E498E498E498ED3
:10354000498E49AE49AE49AE49AE49AE49AE49AFE2
:1035500049AF51AF51AF51AF51AF51AF51AF51AF73
:1035600051AF51AF51AF51AF51AF51CF51CF51CFFB
:1035700051CF51CF51CF38A638A638A638A638A695
:1035800038A640A640A640864086388638863886CB
:10359000388638863886388638863886388638863B
:1035A0003886388638863887388738873887388726
:1035B00038873887388740884088408840884088E6
:1035C000408840A840A8408840884088408840887B
:1035D00040884088408840A840A840A840A840A80B
:1035E00040A840A840A840A840A840A840A840A89B
:1035F00040A840A840A8408940894089408940A906
:1036000040A940A940A940A940A940A940A940A972
:1036100040A940A940A940A940A940CA40CA40CAFF
:1036200040CA40CA40CA40CA40CA40CA40CA40CA4A
:1036300040CA40CA40CA48CA48CB48CB48CB48CB0E
:1036400048CB48EB48EB48EB48EB48EB48EB48EB02
:1036500048EB48EB48EB40EB40EB40EB40EB40EBFA
:1036600040EB40EB40EB40EB40EB40EB40EB40EB02
:10367000410B410B410B410B410B410B410C410CE8
:10368000410C410C410C410C410C410C410C492CAA
:10369000492C492C492C492C492C492C492C492C82
:1036A000492C492C492C492C492C492C494D494D30
:1036B000494D494D494C494D494D494D414D414D6B
:1036C000414D414D414D414D414D414D414D414D8A
:1036D000414D414D414D414D414D416D416D416D1A
:1036E000416D416D416D416D416D416D416E416E68
:1036F000416E416E416E416D418D418E418E418ED4
:10370000418E418E418E498E498E498E498E498E19
:10371000498E498E498E49AE49AE49AE49AE49AE51
:1037200049AE49AE49AE51AE51AE51AE51AF51AFB7
:1037300051CF51CF51CF51AF51AF51AF51AF51AF29
:1037400051AF51AF51AF51CF51CF51CF51CF51CFD9
:1037500051CF51CF51CF38A638A638A638A640A6AB
:1037600040A640864086388640864086408640A6F1
:1037700040A640A640A640A640A640A640A640A718
:1037800040A740A740A738873887388740874087B9
:1037900040874087408740874087408740884088EF
:1037A00040884088408840884088408840884088D9
:1037B00040884088408840A840A840A840A840A829
:1037C00040A840A840A840A840A840A840A840A9B8
:1037D00040A940A940A940A940A940A940A940A9A1
:1037E00040A940A940A940A940A938A938A938A9A9
:1037F00040A940A940A940A940A940A940C940CA40
:1038000040CA40CA48CA48CA48CA48CA48CA48CA38
:1038100048CA48CA48CA48CA48CA48CA48CA48EBF7
:1038200048EB48EB48EB48EB48EB48EB48EB48EB00
:10383000490B490B490B40EB40EB40EB40EB410B94
:10384000410B410B410B410B410B410B410B410B18
:10385000410B410B412C410B410B410B410C410CE5
:10386000410C410C410C410B410B410C410C492CCA
:10387000492C492C492C492C492C492C492C492CA0
:10388000494C494C494C494D494D496D496D496D2B
:10389000496D496D496D496D494D494D494D494DF8
:1038A000494D494D414D414D414D414D414D414D98
:1038B000414D416D416D416D416D416D416D416DB8
:1038C000416D416D416D416E416E416E416E416E83
:1038D000496E496E496E416D416D418E418E418EFA
:1038E000498E498E498E498E498E498E498E498E20
:1038F000518E518E518E51AE51AE51AE51AE51AE30
:1039000051AE51AE51AE51AE51AE51AE51AE51AEBF
:1039100051AE51AE51AE51AE51AE51AE51AF51AFAD
:1039200051AF51AF51AF59CF59CF59CF59CF59CFCF
:1039300059CF59CF59CF38A638A638A638A640A6B1
:1039400040A640864086388638864086408640A617
:1039500040A640A640A640A640A640A640A640A736
:1039600040A740A740A7408740A740A740A740A73F
:1039700040A740A740A740884088408840884088AA
:1039800040884088408840884088408840884088F7
:103990004088408840884088408840A840A840A887
:1039A00040A840A840A840A940A940A940A940A9D2
:1039B00040A940A940A940A940A940A940A940A9BF
:1039C00040A940A940A940A940A940A940A940A9AF
:1039D00040A940A940A940A940A940A940C940CA5E
:1039E00040CA48CA48EA48EA48EA48EA48CA48CACF
:1039F00048CA48CA48CA48CA48CA48CA48CA48EA17
:103A000048EA48EA48EA48EB48EB48EB48EB48EB21
:103A100048EB48EB48EB40EB40EB40EB40EB410B15
:103A2000410B410B410B410B410B410B410B410B36
:103A3000410B412C412C410B410B410B410C410CE2
:103A4000492C492C492C410C410C492C492C492C1E
:103A5000492C492C492C494C494C494C514D514D0C
:103A6000514D514D494D494D494D494D496D496D56
:103A7000496D496D496D516D496D496D496D496D8E
:103A8000496D496D496D494D496D496D416D416DB6
:103A9000416D416E416E416D416D416E416E416EB1
:103AA000416E416E416E496E496E496E496E496E76
:103AB000498E498E498E418E418E418E498E498E66
:103AC00049AE49AE49AE51CF51CF51CF51CF51CF71
:103AD00051CF51CF51CF51CF51CE59CF59CF59CFCF
:103AE00059CF59CE59CE59CE59CE59CE59CE59CE9D
:103AF00059CE59CE59CE59CE59CE59CF59CF59CF8B
:103B000059CF59CF59CF59CF59CF59CF59CF59CF75
:103B100059CF59CF59CF38A738A740A740A740A7BA
:103B200040A740A740A740864086408640A740A7C0
:103B300040A740A740A740A740A740A740A740A74D
:103B400040A740A740A740A740A740A740A740A73D
:103B500040A740A840A840A840A840A840A840A826
:103B600040A840A840A840A840A840A840A840A815
:103B700040A840A840A840A8408840A840A840A825
:103B800040A840A840A840A940A940A940A940A9F0
:103B900040A940A940A940C940C940C940C940C93D
:103BA00040C940C940C940C940C940C940C940C9CD
:103BB00040C940C940C940A940A940A940A940A95D
:103BC00040C948CA48CA48CA48CA48CA48CA48CA6E
:103BD00048CA48CA48CA48CA48CA48CA48CA48CA55
:103BE00048EA48EA48EA48EA48EA48EA48EA40EB4C
:103BF00040EB40EB40EB40EB40EB40EB40EB40EB6D
:103C000040EB40EB40EB410B410B410B410B410BB7
:103C1000410B410B410B410B410B490B490B490C2B
:103C2000492C492C492C492C492C492C492C492CEC
:103C3000492C494C494C514C514C514C514C514DD3
:103C4000514D516D516D514D494D516D516D516DEC
:103C5000516D516D496D516D516D516D496D496D8C
:103C6000496D496D498D496D496D496E496E496E81
:103C7000496E496E496E496E496E496E498E498E4C
:103C8000498E498E498E498E498E498E498E498E7C
:103C9000498E498E498E498E498E498E498E49AE4C
:103CA00049AE51AE51AF51CF51CF59CF59CF59CF66
:103CB00059CF59CF59CF59CF59CF59EF61EF61EF54
:103CC000620F620F620F61EF61EF61EF61EF620FF0
:103CD000620F620F620F61EF61EF61EF61EF6A0FD8
:103CE00061EF61EF61EF61EF61EF61EF61EF61EF54
:103CF00061EF61EF61EF40A740A740A740A740A751
:103D000040A740A740A740A740A740A740A740A77B
:103D100040A740A740A740A740A740A740A740A76B
:103D200040A740A740A740A740A7408740874087BB
:103D3000408740A840A8408840884088408840A8E4
:103D400040A84088408840A840A840A840A840A873
:103D500040A840A840A840A840A840A840A840A823
:103D600040A840A840A840A840A840A940A940A910
:103D700040A940A940A940A940A940A940C940A9DB
:103D800040A940C940C940CA40CA40CA40CA40CA06
:103D900040EA40CA40CA40A940A940A940A940A958
:103DA00040A940A940A940A940A940AA40AA48AAC0
:103DB00048AA48AA48AA48CA40CA48CB48CA40CBE1
:103DC00040CA40CB40CB40EB40EB40EB40EB40EBFC
:103DD00040EB40EB40EB40EB40EB40EB40EB40EB8B
:103DE00040EB40EB40EB40EB40EB390B410B410B20
:103DF000410B410B410B410B410B410B410B410C62
:103E0000492C492C492C494C494C494C494C494C6A
:103E1000494C494C514C494C514C514C514D514DD0
:103E2000514D516D516D516D518D518D518D518D42
:103E3000518D518D518D518D518D518D518D518D92
:103E4000518D518E518E496D496D496E498E498E05
:103E5000498E498E498E498E498E498E498E498EAA
:103E6000498E498E498E498E498E498E498E498E9A
:103E7000498E498E49AE498E498E498E498E49AE4A
:103E800049AE51AF51AF51AF51AF51AF51AF51AF3B
:103E900051AF51AF51AF51AE59CE59CE59EF61EF3D
:103EA000620F620F620F620F620F620F620F620F8A
:103EB000622F620F620F622F6A0F6A2F6A306A30B8
:103EC0006A306A306A306A306A306A306A306A3022
:103ED0006A306A306A3048A748A748A748874887A9
:103EE00048874887488748A748A748A748A748A7BA
:103EF00048A748A748A748A748A748A748A748A74A
:103F000048A748A748A7408740874087408740A7E1
:103F100040A7408740874087408740884088408846
:103F200040884088408840A840A840A840A840A8B1
:103F300040A840A840A840A940A940A940A940A93C
:103F400040A940C940C940C940C940C940C940C949
:103F500040C940A940A940A940A940AA40A940AAF7
:103F600040AA40AA40AA40CA40CA40CA40CA40CA61
:103F700040CA40CA40CA40CA48CA48CA48CA40CAD9
:103F800040CA40CA40CA40AA40AA40AA40CA40CA41
:103F900040CA40CA40CA40CA40CA40CB40CA40CBCF
:103FA00040CA40EB40EB40EB40EB40EB40EB40EBDA
:103FB00040EB40EB40EB40EB38EB38EB390B38EBA8
:103FC000410B410B410B410C410B410C410B410C8E
:103FD000410B410C410B412C412C412C412C412CDB
:103FE000412C412C412C492C492C492C494C494C01
:103FF000494C494D494C516D516C516C516D516D4D
:10400000516D516D516D516D516D516D516D516DC0
:10401000516D598D598D598D518E518E518E518EB4
:10402000518E518E518E498D498D498E498E498EC2
:10403000498E498E498E498E498E498E498E498EC8
:10404000498E498E498E49AE49AE49AE49AE49AE18
:1040500049AE49AE49AE49AF49AF49AF49AF49AFA3
:1040600049AF51AF51AF51AF51AF51AF51AF51AF58
:1040700051AF51AF51CF51CF51CF51CF51CF51CF80
:1040800051CF51CF51CF59CF59CF59CF59CF59CF08
:1040900059EF59CF59EF59EF59EF59EF59EF59EF00
:1040A00059EF59EF59EF61EF620F61EF620F620F45
:1040B00062106A10621048A748A748A748A748A7F7
:1040C00048A748A748A748A748A748A748A748A778
:1040D00048A748A748A748A748A748A748A748A768
:1040E00048A748A748A748A748A748A748A748A857
:1040F00048A848A848A84088408840884088408808
:1041000040884088408840A840A84088408840882F
:1041100040A840A840A8408840A940A940A940A97B
:1041200040A940A940A948C940C940C940A940A9DF
:1041300040C940A940A940A940A940AA40A940AA15
:1041400040AA40AA40AA40AA40CA40AA40CA40CABF
:1041500040CA40CA40CA40AA40CA40CA40CA48CA27
:1041600048EA48EA48EA48EB40EB40EB40EB40EBDA
:1041700040EB40EB40EB40CB40CB40CB40CB40CB87
:1041800040EB40EB40EB40EB40EB40EB40EB40EBD7
:1041900040EB40EB38EB410B390B390B390B410C41
:1041A000410C410C410C410C412C410C412C412C47
:1041B000412C412C412C412C412C412C412C412C97
:1041C000412C412C412C412C412C412C414C494C3F
:1041D000494C494C494C496D516D516D516D516D72
:1041E000516D518D518D518D518D518D518D598DF7
:1041F000598D598D598D598E598E598E518E518E9A
:10420000518E518E51AE518E518E518E49AE49AE66
:10421000498E498E49AE49AE49AE49AE49AE49AE26
:1042200049AE49AE49AE49AE49AE49AE49AE49AED6
:1042300049AE49AE49AF49AF51AF51AF51AF51AFA0
:1042400051AF51AF51AF51CF51CF51CF51D051D0CC
:1042500051D051D051CF51CF51CF51CF51CF51CF5C
:1042600051EF51EF51EF51EF51EF51EF59EF59EF3E
:1042700059EF59EF59EF59EF51EF5A0F5A0F5A10A2
:104280005A105A105A10620F6210621062106210B7
:1042900062106210621048A748A748A748A748A71D
:1042A00048A748A748A748A748A748A748A748A796
:1042B00048A748A748A748A748A748A748A748A786
:1042C00048A748A748A748A748A748A748A748A875
:1042D00048A848A848A8488848A8488848884888DE
:1042E00048A848A848A848A848A848A848A848A84E
:1042F00048A848A840A848884888488840A940A9B4
:1043000040A940A940A948A948C948C948C940A9E5
:1043100040A940A940A948A948A948A948A948A92D
:1043200040C940C940C940A940A940AA40C940CAA3
:1043300040C940CA40CA40A940A940AA40CA40CA90
:1043400040CA40CA40CA40EB40EB40EB40EB40EB78
:1043500040EB40EB40EB40EB40EB40EB40EB40EB05
:1043600040EB40EB40EB40EB40EB40EB40EB40EBF5
:1043700040EB410C410C410C410C410C410C410CF7
:10438000410C410C410C410C412C410C412C412C65
:10439000412C412C412C412C412C412C412C412CB5
:1043A000414D414D414D412C414C414C414C494DB9
:1043B000494D496D496D496D496D496D496D496D6D
:1043C000498D518D518D518D518D518D518D518E04
:1043D00051AE51AE59AE598E598E598E598E59AE35
:1043E00059AE59AE59AE51AE51AE51AE51AE51AEBD
:1043F00051AE51AE51AE49AE49AE49AE49AE49AEED
:1044000049AE49AE49AF49AF49AF49CF49CF49AFAE
:1044100049AF49CF49AF51CF51CF51CF51CF51CFF4
:1044200051CF51CF51CF51CF51CF51CF51CF51F06B
:1044300051F051F051F051CF51CF51EF51EF51EFB9
:1044400051EF51EF51EF59F059F059F059F059F03F
:104450005A105A105A105A105A105A105A10621004
:1044600062106230621062106210621062106A1094
:104470006A106A306A3050A750A750A750A750A7BB
:1044800050A750A750A750A750A750A750A750A774
:1044900050A750A750A750A750A750A750A750A764
:1044A00050A750A748A7488748A7488748A848A8C2
:1044B00048A848A848A848A848A848A848A848A87C
:1044C00048A848A848A848A848A848A848A848A86C
:1044D00048A848A848A848A948A948A948A948A957
:1044E00048A948A948A948A948C948A948C948A904
:1044F00048A948A948A948A948C948A948C948A9F4
:1045000048C948C948C948CA48CA48CA40CA40CA2E
:1045100040CA40CA40CA40CA40CA40CA40CA40CA4B
:1045200040CA40CA40CA40CA40CA40CA40EA40EBFA
:1045300040EB40EB410B410B490B410B410B410B55
:10454000410B410B410B40EB410B410B410B410C2B
:10455000410C410C410C410C410C410C410C412CD3
:10456000412C412C412C412C412C412C412C412CE3
:10457000412C492C492C492D492D492D494D494D56
:10458000494D494D494D494D414D496D496D496D23
:10459000496D496D496D416D416D496D496D496D7B
:1045A000496D498D498D498D498D518E518E51AE40
:1045B00051AE51AE51AE598E598E598E598E59AE5B
:1045C00059AE59AE59AE59AF59AF59AF51AE51AFBF
:1045D00051AF51AF51AF51CF51CF51CF51CF51CF3B
:1045E00051CF51CF51CF51CF49CF51CF49CF51CFDB
:1045F00049CF51CF51CF51CF51CF51CF51CF51CFC3
:1046000051CF51CF51CF51CF51CF51F051EF51F048
:1046100051EF51F051EF51EF51EF51EF51EF59EF91
:1046200059EF59EF59EF59F059F059F05A105A1003
:104630005A105A105A105A105A10621062106230F2
:104640006230623062306A306A306A306A306A30B2
:104650006A306A306A3050A750A750A750A750A7B9
:1046600050A750A750A750A750A750A750A750A792
:1046700050A750A750A750A750A750A750A750A782
:1046800050A750A750A750A850A850A850A850A86D
:1046900050A850A850A850C950C950C950C950A9D5
:1046A00050C950C950C950C950C950C950C950A962
:1046B00050C950A948A948A948A948A948A948A942
:1046C00048A948A948A948A948C948A948C948C902
:1046D00048C948C948C948C948C948C948C948C952
:1046E00048C948C948C948EA48EA48CA48EA48EABD
:1046F00048EA48EA48EA40EA40EA40EA40EA40EA52
:1047000040EA40EA40EA40CA38EA40EA40EA410B5F
:10471000410B410B410B410B410B410B410B410B39
:10472000410B410B412C410C410C410C412C410CE3
:10473000410C410C412C410C412C412C412C412C71
:10474000412C412C412C492C492C492C492C492CD9
:10475000492C492C492C492D492D492D492D494D8C
:10476000494D494D494D496D496D496D496D496DF9
:10477000498D498D498D498D498D498D498E498E87
:10478000498E498E498E498E498E498E498E518E69
:1047900051AE51AE51AE59AE59AE59AE59AE59AEF9
:1047A00059AE59AE59AE59AE59AE59AE59AE59AFD0
:1047B00051AF59AF51AF51CF51CF51CF51CF51CF51
:1047C00051CF51CF51CF51CF51CF51CF51CF51CFE9
:1047D00051CF51CF51CF51CF51CF51CF51CF51CFD9
:1047E00051CF51CF51CF51EF51EF51EF51EF51EF29
:1047F00051EF51F051EF59EF59EF59F059F059F08D
:1048000059F059F059F059F059F059F059F05A103F
:1048100062106210621062106210621062106230E8
:10482000623062306A306A306A306A306A506A30A8
:104830006A306A306A3050A750A750A750A750A7D7
:1048400050A750A750A748A748A748A748A748A7D8
:1048500048A748A750A750A750A750A750A750A7B0
:1048600050A750A750A750A850A850A850A850A88B
:1048700050A850C850C850C950C950C950C950C993
:1048800050C950C950C950C950C950C950C950C960
:1048900050C950C950C950C950C950C950C950C950
:1048A00050C950C950C950CA50CA50CA50CA50CA3B
:1048B00050CA50CA50EA50C950C950C950C948E9F5
:1048C00048E948EA48EA48EA48EA48EA48EA48EA59
:1048D00048EA48EA48EA40EA40EA40EA40EA40EA70
:1048E000410A490B410B410B410B410B410B410B61
:1048F000410B410B40EA40EB410B410B410B410B9B
:10490000410B410B412C412C412C412C412C412C81
:10491000412C412C412C412C412C412C412C492C27
:10492000492C492C492C494D494D494D494D494D3A
:10493000494D494D494D514D514D514D514D514D9F
:10494000494D516D496D496D496D496D496D498DAF
:10495000498D498D498D498E498E498E498E498DA3
:10496000498D498D498D498E51AE51AE51AE51AEF2
:1049700051AE51AE51AE59AE59AE59AE59AE59AE17
:1049800059CE59CE59CE59CE59CE59CE59CE59CFEE
:1049900059CF59CF59CF59CF59CF59CF59CF59CFD7
:1049A00059CF59CF59CF51CF59CF59CF59CF59CFCF
:1049B00059CF59CF59EF51EF51EF51EF51EF51EF1F
:1049C00051EF51EF51EF59EF59EF59EF59EF59F0BE
:1049D0005A0F5A105A105A105A1059F05A105A10A9
:1049E0005A10621062105A105A106210621062104F
:1049F00062106210621062106230623062306A309F
:104A00006A306A306A306A306A306A506A3072508E
:104A100072507250725050A750A750A750A750A77D
:104A200050A750A750A750A750A750A750A750A7CE
:104A300050A750A750A750A750A750A750A750A8BD
:104A400050A850A850A850A850A850A850A850A8A6
:104A500050A850A850A850C950C950C950C950C9F1
:104A600050C950C950C950C950C950C950C950C97E
:104A700050C950C950C950C950C950C950C950E94E
:104A800050EA50EA50EA50EA50EA50EA50EA50EA56
:104A900050EA50EA50EA50EA50EA50EA50EA50EA46
:104AA00050EA50EA50EA48EA48EA48EA48EA48EA5E
:104AB00048EA48EA48EA48EA490A40EA40EA40EA5D
:104AC000410A490B490B490B490B410B410B410A68
:104AD000410A40EB40EB410B410B490B490B410BA9
:104AE000410C410C410C412C412C412C412C412CBE
:104AF000412C412C412C412C412C414C414C494CE6
:104B0000494C494C494C494D494D494D494D494DF8
:104B1000496D496D516D516D516D516D516D516DB5
:104B2000516D516D516D516D516D516D518D518D55
:104B3000518D518D518D518E51AE518E51AE518E40
:104B4000518E518E518E51AE51AE59AE59AE59AEB5
:104B500059AE59AE59AE59CE59CE59CE59CE59CE7D
:104B600059CE59CE59CE59CE59CE59CE59CF59CF0B
:104B700061EF61EF61EF59CF59CF59CF59CF59CF7D
:104B800059CF59CF59CF61EF61EF61EF61EF61F01C
:104B900061F059F059F059EF5A0F5A105A0F5A1044
:104BA0005A0F5A105A0F5A105A0F5A105A105A10B8
:104BB0005A1062106210621062106210621062304D
:104BC0006230623062306230623062106231623173
:104BD0006231623162316A316A316A316A316A3115
:104BE0006A516A516A506A507250725072507250D3
:104BF00072507250727050A850A850A850A850A877
:104C000050A850A850A850A850A850A850A850A8E4
:104C100050A850A850A850A850C850A850C850A894
:104C200050C850A850C850A850C850A850C850C824
:104C300050C850C850C850C950C950A950C950A9EF
:104C400050C950C950C950C950C950C950C950C99C
:104C500050E950E950E950C950C950C950C950E90C
:104C600050E950EA50EA50EA50EA50EA50EA50EA75
:104C700050EA510A510A510A510A510A510A510A7D
:104C8000510A510A510A510A510A510A510A510B4B
:104C9000510B510B510B510B490B490B490A490A56
:104CA000490A490A490A490B490B490B490B490B67
:104CB000492B492B492B492B492B492B492B492B54
:104CC000492C492C492C492C412C412C412C412C5C
:104CD000414C414C414C414C414C414C494D494D5A
:104CE000494D494D494D494D494D496D496D516DAC
:104CF000496D516D518D516D596D596D596D596D8C
:104D0000596D598D598D516D516D598D598D598DE3
:104D1000598D598D598D59AD59AD59AE59AD59AEC1
:104D200059AE59AE59AE59AE59AE59AE59CE61AE23
:104D300061AE61AE59CE59CE59ED59CE59EE59CE2C
:104D400059CE59CE59CE59EE59EE61EE61EE61EE73
:104D500061EE61EE61EF61EF61EF61EF61EF61EFD5
:104D600061EF61EF61EF61EF61EF61EF61EF6210A1
:104D700062106210621062106210621062106210A3
:104D80006210621062106210621062106230623053
:104D900062306230623062306230623162306A3179
:104DA00062306A316A316A316A316A316A316A3134
:104DB0006A316A316A316A316A316A316A517251D3
:104DC00072517251725172517250725072707A7087
:104DD0007A717A717A7058C858C850C850C850C88B
:104DE00050C850C850C850A850A850A850C850C863
:104DF00050C850C850C850C850C850C850C850C8F3
:104E000050C850C850C850C850C850C850C850C8E2
:104E100050C850C950C950C950C950E950E950E96B
:104E200050E950E950E950C950E950C950E950C91A
:104E300050C950C950C950E950E950E950E950E90A
:104E400050E950EA50EA50E950E950E948E948E9A8
:104E500048E950EA50EA50EA50EA50EA510A50EA6A
:104E6000510B510B510B512B512B512B512B512BC2
:104E7000512B512B512B512B512B512B512B512B52
:104E8000512B512B512B512B512B512B512B512B42
:104E9000512B512B512B492C492C492C494C494C15
:104EA000492C492C492C492C494C494C494C494CDA
:104EB000494C494C494C414C494C494C494C496D31
:104EC000496D496D496D496D496D496D496D496D32
:104ED000498D518D518D59AE59AE61AE61CE61CEC5
:104EE00061AE61AD61AD61AD61AD61AD61AD61AD51
:104EF00061AD61AD61AD69AD61AD61AD61AD61AD3A
:104F000061AD61AD61AD69AD69AD69AD69CD69CEC8
:104F100069CD69CE61CD61ED59ED61ED61EE61EE76
:104F200061EE61EE61EE61EE61EE61EE61EE61EE09
:104F300061EE61EE61EE69EF69EF69EF69EF69EFCC
:104F400069EF6A0F6A0F69EF69EF69EF69EF69EF5F
:104F500069EF69EF6A0F6A306A306A306A106A1066
:104F60006A106A106A106A106A106A306A306A3011
:104F70006A306A306A306A516A516A516A516A51BC
:104F80006A516A516A516A316A516A516A51725161
:104F90006A51725172517251725172517251725101
:104FA00072517251725172517250725072507A70C5
:104FB0007A707A707A7058C850C850C850C850C8B3
:104FC00050C850C850C850A850A850C850C850C861
:104FD00050C850C850C850C850C850C850C850C811
:104FE00050C850C850C850C850C850C850C850C801
:104FF00050C950C950C950C950C950C950C950E9C9
:1050000050E950E950E950E950E950E950E950E9D8
:1050100050E950E950E950E950E950E950E950E9C8
:1050200050E950E950E950E950E950E950E950E9B8
:1050300050E950EA50EA510A510A50EA510A510B1C
:10504000510B510B510B510B510B510B510B510B80
:10505000512B512B592B592B592B592B592B592B40
:10506000592B512B512B592B592B594B594B594BD0
:10507000594B594C594C514C514C514C514C514C31
:10508000514C514C514C514C494C494C494C494C58
:10509000494C494C494C494C496C494C496C496D07
:1050A000496D496D496D498D498D496D498D498DD0
:1050B000518D51AE51AD59AD59AD61CE61CD61CE7D
:1050C00061CE61CD61CD69CE69CE69CE69CE69AE62
:1050D00069CE69AE69AD69AD69CD69CD69CD69CD7E
:1050E00069CD69CD69CD69CD69CD71CD71CD71CDF8
:1050F00071CD71CD69ED69EE69EE69EE69EE69EE2B
:105100006A0E6A0E69EE69EE69EE6A0E720E720F31
:10511000720F720F720F69EF6A0F69EF6A0F6A0FF1
:105120006A0F6A0F6A0F720F720F720F6A0F6A109E
:105130006A106A106A106A106A306A306A306A301F
:105140006A306A306A306A306A306A306A306A308F
:105150006A306A306A306A506A506A516A506A51DD
:105160006A506A516A507251725172517271725121
:105170007271725172717251727172517271727177
:10518000727172717271727172707A707A707A70F3
:105190007A907A907A9158C858A858A858A858A8D0
:1051A00058A858A858A858A858A858A858A858A8FF
:1051B00058C858C850C850C850C850C850C850C81F
:1051C00050C850C850C850C850C850C850C850E9FE
:1051D00050E950E950E950E950E950E950E950E907
:1051E00050E950E950E950E950E950E950E950E9F7
:1051F00050E950E950E950E950E950E950E950E9E7
:1052000050E950E950E9510A510A510A510A510A2C
:10521000510A510A510A510A510A510A510A590BAD
:10522000510B590B592B510B590B590B592B592B0E
:10523000592B592B592B592B592B592B592B592B4E
:10524000612B592B594B594B594B594B594C594C74
:10525000594C614C594C596C596C596C596C596C7E
:10526000596C596C516C516C516C516C516C516C46
:10527000516C516C516C496C496C496D496C496D6C
:10528000496C496D496D518D518D498D518D518DAF
:10529000518D51AD51AD59AD59AD59CD61CD61CEA5
:1052A00061CE61CE69CE69EE71EE71EE71EE71EE96
:1052B00071EE71EE71EE79EE79EE7A0E7A0E7A0E6B
:1052C0007A0E7A0E7A0E7A0E7A0E7A0E7A0E7A0E9E
:1052D0007A0E7A2E7A2E7A2F7A2F7A2F7A2F7A2FA9
:1052E0007A2F7A2F822F820F822F822F822F823065
:1052F00082308230822F7A507A507A507A507A50A7
:105300007A507A507A507A507A507A50725072505D
:10531000725072507250725072507250725072507D
:1053200072507250725072307230725072507251AC
:105330007251725172517251725172517251725155
:1053400072717251725172517251725172717271E5
:105350007271727172517271727172717271727155
:105360007A717A717A717A717A707A917A907A9088
:105370007A917A9182B158C858A858A858A858A8C4
:1053800058A858C858C858C858C858C858C858C83D
:1053900058C858C850C850C850C850C850C850C83D
:1053A00050C850C850E850C850C850C850E850E9DC
:1053B00050E950E950E950E950E950E950E950E925
:1053C00050E950E950E950E950E950E9510950EAF3
:1053D00050E950E950E9510A510A51095109510A5D
:1053E000510A510A510A510A510A510A510A510AE5
:1053F000590A590A590A590A590A590A590A590A95
:10540000590B592B592B612B612B612B612B592B7C
:10541000592B592B612B612B614B612B614B614BDC
:10542000614B614B614B614B614B614B616C616CDA
:10543000616C616C616C616C616C618D618D618DA1
:10544000598D598D598D598D598D598D598D598D2C
:10545000598D598D598D516D518D516D518D518D84
:10546000518D518D518D518D518D518D518D518D4C
:10547000518D51AD51AD51AD59AD59AD59CD61CDF4
:1054800061CD61CD69CD69CE69EE71EE71EE720EBE
:105490007A0F7A0F7A2F7A2F7A2F7A2F822F822FF4
:1054A000822F822F824F822F824F824F824F824FD4
:1054B000824F824F824F825082508A508250825057
:1054C000825082508250822F8230823082308230ED
:1054D0008230823082307A507A707A707A707A7044
:1054E0007A707A707A707A507A507A507A507A500C
:1054F00072507A507251725172517251725172518E
:105500007251725172517251725172517251725183
:1055100072517251725172717271727172717271D3
:105520007271727172717250727172717271727184
:105530007271727172717A717A717A717A717A712B
:105540007A917A717A917A917A917A907A907A9125
:105550007A9182B182B158C858C858C858C858C83A
:1055600058C858C858C858C858C858C858C858C83B
:1055700058C858C858C850C850C850C850E850C833
:1055800050E850E850E850C850E850E850E850E97A
:1055900050E958E958E958E958E95909590958E9C9
:1055A00058E958E95909590A590A590A590A590A28
:1055B000590A590A590A590A590A590A590A590AD3
:1055C000590A590A590A590A590A590A590A590AC3
:1055D000590A590A590A590A590A590A612A612A63
:1055E000612B612B612B614B614B614B614B614BBB
:1055F000614B614B614B694B614B694B614B696B13
:10560000696B696C696C696C696C696C696C698CD3
:10561000698C698C618C618C618D618D618D618D0E
:10562000618D618D618D618D618D618D618D618D0A
:10563000618D59AD59AD598D59AD61AD59AD59AD6A
:1056400059AD59AD59AD598D598D51AD51AD51AD82
:1056500051AD51AD59AD59AD59AD59AD59AD61CD02
:1056600061AD61CD61AD61AD61CD69CE69CE71EEE7
:1056700071EE720F720F720E720E720E720E720E49
:10568000720E720E720E720E720E722E722F722FB8
:10569000722F7A2F7A2F7A2F7A2F7A2F7A2F7A2FCA
:1056A0007A2F7A2F7A2F7A0F7A0F7A0F7A0F7A0F52
:1056B0007A0F7A0F720F722F722F722F722F722F32
:1056C000722F722F722F72307230723072307230CD
:1056D000723072307230723072507250725072503A
:1056E00072507250725072517251725172517251A5
:1056F00072517271727172707270727172717A71AC
:105700007A717A917A917A717A717A717A917A91C1
:105710007A917A917A917A717A717A717A717A71D1
:105720007A917A917A917A917A917A917A917A9022
:105730007A9182B182B158C858C858C858C858C858
:1057400058C858C858C858C858C858C858C858C859
:1057500058C858C858C858E858E858E858E858E8A9
:1057600058E858E858E858E958E958E958E958E934
:1057700058E958E959095909590959095909590A5A
:10578000590A590A590A590A590A590A590A590A01
:10579000590A590A590A590A590A590A590A590AF1
:1057A000590A590A590A590A590A590A590A590AE1
:1057B000610A610A610A612B612A614A614A614A90
:1057C000694B694B694B694B694B694B696B716CF0
:1057D000716C716C718C718C698C698C698C698C41
:1057E000698C698C698C698C698C698C698C69ACF1
:1057F00069AC69AC69AC69AD69AD69AD69AD69ADFC
:1058000069AD61AD61AD618D61AD61AD61AD61AD40
:1058100061AD61AD61AD61AE61AE61AE69CE61CECB
:1058200061CE61CE61CE61CE61CE61CE59CE59CE10
:1058300059CE59CE59CE59CE59CD59CE59CD61AD4B
:1058400061CE61CE61CD61AD61AD61AE61CD61CE44
:1058500069CE69EE69EE69EE69EE69EE69EE69EEB0
:1058600069EE69EE69EE69EE69EE69EE6A0E6A0E3E
:105870006A0E6A0E6A0E6A0E6A0E6A0E6A0E6A0E68
:105880006A0E6A0F6A0F6A0F6A0F6A0F6A0F6A0F51
:105890006A0F6A0F6A0F722F6A2F6A2F6A2F6A2F98
:1058A0006A2F6A2F6A2F6A306A306A306A306A302B
:1058B0006A306A306A306A306A306A306A506A30F8
:1058C0006A5072506A5072517251725172517251D3
:1058D0007271727172717270727072707A707A70A5
:1058E0007A917A917A917A917A917A917A917A9160
:1058F0007A917A917A917A917A917A917A917A9150
:105900007A917A917A917AB17AB17AB17AB17AB19F
:1059100082B182B182B160E958E858C858C858C805
:1059200058C858C858C858C858C858C858C858C877
:1059300058C858E858E858E858E858E858E858E986
:1059400058E958E958E958E958E958E958E958E94F
:1059500058E958E9590958E9590958E959095909BB
:105960005909590A590A58E958E9590A590A590A64
:10597000590A590A590A590A590A590A590A592AEF
:10598000612A612A612A612A612A612B612B612BBC
:10599000612B612B692B694B694B694B694B694BD7
:1059A000716B716B716B716B716B716C716C716C14
:1059B000716C798C718C718C718C698C698C698C2F
:1059C000698C698C698C698C698C698C698C698C2F
:1059D000698C698C698C698D69AD69AD69AD69AD9A
:1059E00069AD69AD61AD618D618D618D61AD61AD97
:1059F00061AD61AD61AD69AE69AE69AE69AE69CEEA
:105A000069CE69CE69CE69CE69CE61EE61EE61EE96
:105A100061EE61EE61EE61CE61CE61CE61CE61CEAE
:105A200061CE61CE61CE61CE61CE61CE61CE61CEFE
:105A300061CE61CE61CE61CE61CE61CE61EE61EEAE
:105A400061EE61EE61EF61EF61EF620F620F6A0F6D
:105A50006A0F6A0F6A0F6A2F6A2F6A0F6A2F6A2FFE
:105A60006A2F6A2F6A2F6A2F6A2F6A2F6A306A306C
:105A70006A306A306A30725072507250725072508E
:105A80007250727072707271727172717271725141
:105A900072717251727172516A5172517271727176
:105AA00072717271727172717271727172717271DE
:105AB0007271729172917A707A707A907A907A910A
:105AC0007A917A917A917A917A91829182B182B126
:105AD00082B182B182B182B182B182B182B182B12E
