:020000040800F2
:10000000209601202902000855270008AD1B000892
:100010005127000879050008052C000800000000A1
:100020000000000000000000000000004929000856
:100030008905000800000000592700084D29000824
:10004000430200084302000843020008430200087C
:10005000430200084302000843020008430200086C
:10006000430200084302000843020008430200085C
:10007000430200084302000843020008430200084C
:10008000430200084302000843020008430200083C
:10009000430200084302000843020008430200082C
:1000A000430200084302000843020008430200081C
:1000B000430200084302000843020008430200080C
:1000C00043020008430200084302000843020008FC
:1000D00043020008F92B000843020008430200080D
:1000E00043020008430200084302000843020008DC
:1000F00043020008430200084302000843020008CC
:1001000043020008430200084302000843020008BB
:1001100043020008430200084302000843020008AB
:100120004302000843020008430200087D0500085E
:10013000430200084302000843020008430200088B
:10014000430200084302000843020008430200087B
:10015000430200084302000843020008430200086B
:10016000430200084302000843020008430200085B
:100170004302000843020008430200080000000098
:10018000430200084302000800F002F800F03CF8C7
:100190000AA090E8000C82448344AAF10107DA45E2
:1001A00001D100F031F8AFF2090EBAE80F0013F0F8
:1001B000010F18BFFB1A43F001031847581C030036
:1001C000981C0300103A24BF78C878C1FAD85207A7
:1001D00024BF30C830C144BF04680C6070470000C1
:1001E0000023002400250026103A28BF78C1FBD840
:1001F000520728BF30C148BF0B6070471FB52DF0B4
:1002000026FB1FBD10B510BD00F083F91146FFF7A6
:10021000F5FF27F0E1FD00F0A1F903B4FFF7F2FFCD
:1002200003BC06F09FFD00000948804709480047CD
:10023000FEE7FEE7FEE7FEE7FEE7FEE7FEE7FEE796
:10024000FEE7FEE704480549054A064B70470000F3
:10025000012A0008890100081816001020960120C4
:10026000189600102016012053EA020C00F0698055
:100270002DE9F04B4FF00006002B1FBFB3FA83F5BA
:1002800003FA05F424FA05F65E4012BF1643B2FAEB
:1002900082F502FA05F4C5F120051EBF22FA05FC1D
:1002A00044EA0C04203556EA044C4FEA144418BFC3
:1002B000641C4FF000084FF00009904271EB030CF2
:1002C00039D3002919BFB1FA81F701FA07F6B0FA5C
:1002D00080F700FA07F6C7F120071EBF20FA07FCD7
:1002E00046EA0C062037B6FBF4FCA7EB0507103FE7
:1002F00007F01F0BCBF120062CFA06F60CFA0BFBCD
:1003000044BFB3460026202FA4BF5E464FF0000B2B
:100310005BEA060C08BF4FF0010B19EB0B0948EB29
:100320000608ABFB027C06FB02CC0BFB03CCC01B1C
:1003300071EB0C01C1E70B46024641464846BDE859
:10034000F08B13B5084318BF4FF0FF300146AFF3F1
:100350000080BDE81C40704740EA0103024630B50A
:100360009B0710D14FF0013400E008C208C91D1BE3
:100370009D4315EAC41FF8D013F0FF0102F8011BDA
:100380000DD01B0AF8E711F8013B002B02F8013BE6
:1003900005D011F8013B002B02F8013BF3D130BD31
:1003A00010B5431C02E010F8011B71B18107FAD1AE
:1003B0004FF0013202C88C1A8C4314EAC211F9D0F2
:1003C000C01A0A0603D0C01E10BDC01A10BD0A0410
:1003D00001D0801E10BD0902FCD0401E10BD02F0ED
:1003E000FF0343EA032242EA024200F00AB802F0A5
:1003F000FF0343EA032242EA024200F024B84FF02E
:1004000000020429C0F0128010F0030C00F01B80E1
:10041000CCF1040CBCF1020F18BF00F8012BA8BFEF
:1004200020F8022BA1EB0C0100F00DB85FEAC17CB3
:1004300024BF00F8012B00F8012B48BF00F8012B66
:1004400070474FF0000200B5134694469646203997
:1004500022BFA0E80C50A0E80C50B1F12001BFF47D
:10046000F7AF090728BFA0E80C5048BF0CC05DF8E3
:1004700004EB890028BF40F8042B08BF704748BF31
:1004800020F8022B11F0804F18BF00F8012B7047A5
:1004900030B44FF0013C50F8042B51F8043BCCFA37
:1004A00052F4D51A20D1FCB950F8042B51F8043B72
:1004B000CCFA52F4D51A17D1B4B950F8042B51F82C
:1004C000043BCCFA52F4D51A0ED16CB950F8042B77
:1004D00051F8043BCCFA52F4D51A05D1002CDAD0ED
:1004E00030BC4FF00000704729BAB1FA81F111F029
:1004F0001801D1F120008440F2D1CA40CB4012F063
:10050000FF0213F0FF0330BCD01A704770477047EA
:100510007047754600F02CF8AE4605006946534614
:1005200020F00700854618B020B5FFF78BFEBDE828
:1005300020404FF000064FF000074FF000084FF04A
:10054000000BAC46ACE8C009ACE8C009ACE8C00997
:10055000ACE8C00921F007018D46704710B504468C
:10056000AFF300802046BDE81040FFF756BE000004
:100570000048704760000010FEE7000040F2EC10F9
:10058000C1F2000000F05CB870470000EFF310808B
:1005900072B600BFFEE7000070B5866D044600F03D
:1005A00021FB94F83510022920D105462068216CE2
:1005B000026822F016020260426922F08002426163
:1005C00009B9A16C19B1016821F008010160016845
:1005D00021F00101016000BF0068C0070AD000F0EF
:1005E00001FB401B05280FD82068F5E780206065D7
:1005F00001200EE0E06D3F2101FA00F0B060012023
:1006000084F83500002004E020206065032084F891
:100610003500002184F8341070BD000090F83510CA
:10062000022909D1052180F835100068016821F000
:100630000101016000207047802141650120704761
:10064000F0B581B004460020009040F20000C1F2F5
:1006500000000268D4E9166048F2B5133768082133
:10066000C1F64E3381403942A2FB03250CD02268EB
:1006700013685B0708D5136823F004031360B160A7
:10068000616D41F00101616501218140394208D06D
:1006900022685269120604D5B160616D41F0020111
:1006A000616504218140394208D0226812689207AE
:1006B00004D5B160616D41F0040161651021814094
:1006C000394215D020680268120711D5B16002685E
:1006D0000168520306D4C90506D4016821F0080157
:1006E000016001E0080342D4216C09B1204688472B
:1006F000E16D202000FA01F23A4244D020680368FC
:10070000DB0640D5B26094F835300268052B1ED167
:1007100022F016020260426922F080024261226CDD
:100720000AB9A26C1AB1026822F0080202603F20E6
:100730008840B060012084F83500216D0020002938
:1007400084F8340057D02046884701B0F0BD0168D6
:10075000520310D4C90512D4016821F010010160C0
:10076000012084F83500002084F8340007E0A16CF3
:100770000029BBD1BCE7080301D4616C00E0E16B48
:1007800009B120468847606DA8B3606DC0072ED0C0
:10079000052084F835002068A90A026822F00102C9
:1007A0000260009A01328A4200921AD80268D20787
:1007B00017D0009A01328A42009212D80268D207FA
:1007C0000FD0009A01328A4200920AD80268D207FA
:1007D00007D0009A01328A42009202D80268D207FA
:1007E000DFD1012084F83500002084F83400E16C6A
:1007F00009B12046884701B0F0BD00002DE9F04165
:10080000044600F0EFF9002C4DD00546022084F894
:1008100035000020216884F83400086820F00100C9
:10082000086000BF0868C00706D000F0DBF9401B75
:10083000052865D82168F5E7086848F23F02CFF23D
:100840001002D4E90135024004F10C0E9EE8C151BA
:100850001A432A4310433043384340EA0800626A8F
:1008600040EA0C00042A40EA0E031FD1D4E90A5ED4
:10087000206B4EEA0302104308604869BEF1000F86
:1008800020F0030040EA050040F0040C14D0B8F555
:10089000005F39D0B8F1000F4ED1022D4FD0012D9D
:1008A00044D04DB94BE00120BDE8F0810B604869B0
:1008B00020F0070040EA020C6FF00F004AF6AB226E
:1008C00050FA81F0CAF6AA22A0FB02231A094DF6BB
:1008D0003423C0F602039A5C40F2FF335F284FF0E6
:1008E0003F00C1F814C021EA030100FA02F088BFFA
:1008F0000431C4E91612886000230122002025E09B
:1009000003222023032021E0032DD5D80FF20C0071
:1009100000EB8506012240230120B74600F016B8FF
:1009200000F00DB800F012B800F000B8AEF1C070E1
:10093000B0FA80F0400904E0032D04D3BCD1CEF31B
:1009400000600028B8D0012240230120636584F8AC
:100950003520BDE8F081000070B590F834C0BCF1DE
:10096000010F45D04FF0010C80F834C0D0F858E0AA
:1009700090F835C0BCF1010F37D14FF0020C80F870
:1009800035C04FF0000CC0F854C0D0F800C08468E7
:10099000056CC06DDCF80060402C26F48026CCF895
:1009A0000060CCF804300B4604BF13460A463F21D2
:1009B00001FA00F0CCF80830CCF80C20CEF8080092
:1009C000DCF8000040F01600CCF800002DB1DCF897
:1009D000000040F00800CCF80000DCF8000040F017
:1009E0000100CCF80000002070BD002180F8341018
:1009F000022070BDB0B5044600F0F4F8054640F2A0
:100A00005500C1F200000078611C18BF044400BF0B
:100A100000F0E8F8401BA042FAD3B0BD2DE9F04F3A
:100A200082B000F13E4241F6004502F1FF77C4F288
:100A3000020508224FEAB726A84208BF0722072E60
:100A400038BF4FEAB7224FF0010E002400274FF0C5
:100A50000008009208E000BF023708F10108202FCB
:100A600004F1040400F0B4800E680EFA08F916EAE6
:100A7000090FF1D0D1F804A00AF0030BABF1010685
:100A8000012E19D80322866802FA07FECA6826EAF0
:100A90000E06BA40324382604268CAF3001522EA69
:100AA000090205FA08F54FEA480C6FEA0E064FF006
:100AB000010E2A4342600BE00322BA40D643BBF149
:100AC000030FBC4604D1BC464FF0030B24E000BF2B
:100AD000C2688D68324005FA0CF52A43BBF1020F5B
:100AE000C26019D16FF0030202EA5802024404F016
:100AF0001C030F25D2F820E005FA03FA0D692EEA4F
:100B00000A0E05FA03F343EA0E031362D1F804A0B8
:100B10004FF0010E0AF0030B02680BFA0CF332409F
:100B20001A431AF4403F026096D0002243F6440371
:100B30000192C4F202031A6843F6004C42F4804268
:100B40001A601A68C4F2010C02F480420192019A00
:100B500028F003024FF6084A6244CFF6FF7A52F8B3
:100B60000A3004F00C060F25B540AB43009D05FA92
:100B700006F6334342F80A30DCF800204B6842EABC
:100B80000906DD0358BF22EA0906CCF80060DCF84C
:100B900004209D0342EA090658BF22EA0906CCF860
:100BA0000460DCF80820DD0242EA090643F60C4541
:100BB00058BF22EA0906CCF80860C4F201052A6889
:100BC0009B0242EA090658BF22EA09062E6043E763
:100BD00002B0BDE8F08F0000002A08BF090481615F
:100BE0007047000041F21C60C2F2010000687047CB
:100BF00040F2550041F21C61C1F20000C2F2010155
:100C000000780A68104408607047000080B543F619
:100C10000040C4F20200016841F400710160016803
:100C200041F480610160016841F48071016003203A
:100C300000F088F80F2000F005F800F02BF80020F5
:100C400080BD0000B0B540F25502C1F2000240F292
:100C500000011278C1F200014FF47A730968B3FB06
:100C6000F2F20446B1FBF2F1084600F061FC0F2CF1
:100C70004FF001050CD858B94FF0FF302146002243
:100C8000002500F033F840F23800C2F200000460A2
:100C90002846B0BD82B0002043F640010190C4F266
:100CA00002014A6842F480424A604A6802F4804283
:100CB0000192019A0090086840F08050086008682E
:100CC00000F080500090009802B07047002848BFA4
:100CD000704700F01F01012202FA01F14EF20012EA
:100CE0004009CEF2000242F82010704710B54EF6CF
:100CF0000C5CCEF2000CDCF80030C3F3022E8EF058
:100D00000704042C28BF0424BEF103034FF0FF3E68
:100D10000EFA04F438BF0023A14399400EFA03F3FE
:100D20009A4300F00F03043B1143634409010C3361
:100D300000F16042B0F1FF3FC8BF02F56443197093
:100D400010BD00004EF60C51CEF200010A684FF6BD
:100D5000FF031A4060F30A2242F0806040F0FD7009
:100D6000086070472DE9F041002800F08B8043F6C1
:100D70000808C4F202080446D8F8F8030D4600F04B
:100D80000700884207D288F8F853D8F8F80300F033
:100D90000700A84276D12068810717D5410705D5FD
:100DA000D8F8001041F4E051C8F80010010705D54B
:100DB000D8F8001041F46041C8F80010D8F80010CD
:100DC000A26821F0F0011143C8F80010C0073FD11C
:100DD000D8F8F80300F00700A84207D988F8F853BC
:100DE000D8F8F80300F00700A8424BD1206841076B
:100DF00007D5D8F80010E26821F4E0511143C8F893
:100E00000010000708D5D8F80000216920F46040E0
:100E100040EAC100C8F8000000F07CF8D8F80010E3
:100E20004DF68802C1F30311C0F60202515C40F294
:100E3000000220FA01F140F23800C2F2000000681E
:100E4000C1F200021160FFF7FDFE0020BDE8F08155
:100E50006068811E022907D258F8081C89015CBF0E
:100E60000120BDE8F08110E0012807D158F8081CE6
:100E700089035CBF0120BDE8F08106E058F8081C3A
:100E8000890702D40120BDE8F081D8F8001021F0D4
:100E900003010843C8F80000FFF7A4FE064641F22C
:100EA000883700BFD8F80000616800F00C00B0EB94
:100EB000810F8DD0FFF796FE801BB842F2D9032038
:100EC000BDE8F08140F2000043F60801C1F20000E5
:100ED000C4F20201006809684DF69802C1F382214C
:100EE000C0F60202515CC8407047000040F20000AA
:100EF00043F60801C1F20000C4F20201006809686B
:100F00004DF69802C1F34231C0F60202515CC8406E
:100F10007047000010B543F60404C4F20204606890
:100F200000F00C0142F200400829C0F2F40007D0A2
:100F3000042918BF10BD41F20020C0F27A0010BD94
:100F4000216801F03F02216823684902C3F3881138
:100F500005D4A1FB00010023FFF786F906E041F26A
:100F60000020C0F27A004843B0FBF2F02168022270
:100F7000C1F3014102EB4101B0FBF1F010BD0000F3
:100F80002DE9F04182B0002869D00446007843F68C
:100F90000006C007C4F202060BD0B06800F00C00D7
:100FA000042840F09C803068800302D560680028E7
:100FB00055D0207880071AD5B06810F00C0F09D0F2
:100FC000B06800F00C00082840F0A3807068400270
:100FD00000F19F803068800702D5E06801283ED18B
:100FE0003068216920F0F80040EAC10030602078C4
:100FF000000738D4207840074BD4A5695DB3B068AA
:1010000000F00C00082840F0B780012D27D0706850
:10101000E16900F480028A4221D1216A00F03F0296
:101020008A421CD147F6C071626A0140B1EB821F4F
:1010300015D1A26A0023CFF6FF7303EBC23200F48E
:1010400040316FF30F02914209D1E16A00F0706004
:10105000B0EB016F03D1002002B0BDE8F0810120A8
:1010600002B0BDE8F0816069002840F20000C4F2DF
:10107000472071D00121C0F8801EFFF7B3FD05465F
:10108000706F8007B6D4FFF7ADFD401B0228F7D97B
:10109000D7E0306C10F080580AD100200190306CFD
:1010A00040F080503064306C00F080500190019826
:1010B00047F20007C4F200073868C0053ED438681C
:1010C00040F480703860FFF78DFD05463868C00534
:1010D00034D4FFF787FD401B0228F7D9B1E0B06890
:1010E00000F00C00082803D1706840023FF55BAFA8
:1010F0006068B0F5803F07D0B0F5A02F40F08B803E
:10110000306840F480203060306840F480303060D7
:101110008BE0E068002851D00020C4F24720012174
:101120000160FFF75FFD0546306880073FF558AF67
:10113000FFF758FD401B0228F6D982E0A06801287D
:1011400005D005284ED1306F40F004003067306F75
:1011500040F0010030674FE00021C0F8801EFFF72B
:1011600041FD0546706F80077FF544AFFFF73AFDFC
:10117000401B0228F6D964E00027C4F2472700206C
:101180003866FFF72FFD022D05460BD13068800130
:101190005BD5FFF727FD401B02284FF00300F5D970
:1011A0005AE700BF306880017FF555AFFFF71AFDA1
:1011B000401B02284FF00300F4D94DE70020C4F291
:1011C000472000210160FFF70DFD054630688007CC
:1011D0007FF50DAFFFF706FD401B02284FF003001F
:1011E000F4D939E7316F002821F001013167316FFF
:1011F00021F0040131674BD0FFF7F4FC054641F2C2
:10120000883700BF306F800753D4FFF7EBFC401BDB
:10121000B842F7D915E03168002821F480313160F7
:10122000316821F4802131604CD0FFF7DBFC0546AA
:10123000306880033FF5BDAEFFF7D4FC401B642847
:10124000F6D9032002B0BDE8F08104F11C052FCDD2
:1012500008430021CFF6FF7140EA821001EBC33151
:101260006FF30F0140EA05600843706001203866A3
:10127000FFF7B8FC044600BF306880013FF5EBAED5
:10128000FFF7B0FC001B02284FF00300F4D9E3E69F
:10129000FFF7A8FC054641F2883700BF306F800792
:1012A00007D5FFF79FFC401BB8424FF00300F5D96C
:1012B000D2E6B8F1000F7FF4A0AE306C20F0805081
:1012C00030649AE6FFF78EFC054600BF3068800365
:1012D0007FF56FAEFFF786FC401B64284FF00300DC
:1012E000F4D9B9E67047000070B550B1D0F824C009
:1012F0000446BCF1000F06D00021216104F1140165
:1013000007E0012070BD6168B1F5827F03D004F170
:101310001C0100220A600025A56294F851104FF0CC
:10132000000E41B9204684F8505000F03FF8D4E94F
:1013300009C101F4005E022284F85120D4E900239F
:10134000D4E90201166803F4827326F040061660A1
:1013500000F404401844236901F40061084403F0D8
:1013600002016369084403F00101A369E6690844C6
:1013700003F40071084406F03801266A084406F0B8
:101380008001084340EA0E001060042000EA134088
:101390000CF0100108445060D06920F40060D06166
:1013A0000120656584F85100284670BD70B586B08F
:1013B0000446016843F20000C4F20100814201D0FA
:1013C00006B070BD002643F630010196C4F202015A
:1013D0004A6900F5504042F480524A614A6902F479
:1013E00080520192019A01960A6842F001020A6055
:1013F000096801F0010101910199A02101910221E7
:10140000CDE90216032104910521059101A9FFF7F9
:1014100005FB40F2EC1546F25840C1F20005C4F25B
:1014200002004FF0C06140224FF4806385E847001E
:101430002846C5E90436C5E90666C5E90866FFF72A
:10144000DDF9002818BFFFF7A1F8A564AC6306B06A
:1014500070BD000010B5044690F85000012804BF8C
:10146000022010BD012084F8500094F8510001289A
:1014700042D100294FF0010018BF002A3DD00320BF
:101480004FF0000E84F85100C4F854E02163A286A6
:10149000E286C4F838E0C4E910EEA4F83CE0A4F811
:1014A0003EE0A0682268B0F5004F07D1106820F038
:1014B00040001060106840F480401060A06C42F260
:1014C0007D7C42F28573C0F6000CC0F60003C0E9D3
:1014D0000F3C42F25D73C0F60003C0E9133EE38E99
:1014E0000C32FFF739FA60B1606D40F010006065B2
:1014F000012084F8510000E00220002184F85010FF
:1015000010BD20680168490603D4016841F040011C
:101510000160416841F020014160416841F00201F1
:1015200041600020E9E700007047000070470000BC
:10153000411E0020B0EB116F1CBF012070474EF21E
:101540001002CEF2000251604EF62351CEF200019D
:10155000F0230B7007219060116070477047000006
:1015600070470000B0B582B0056804462968EA6893
:10157000686901F02F03202B02F0200306D12BB164
:10158000204602B0BDE8B04001F04ABA5FEA017CF3
:101590001EBF00F0010E02F4907010EB0E002ED171
:1015A000236B02EA0100C10617D5012B15D10020DB
:1015B0000190286801906868019001986869400668
:1015C00027D4A08DE18DE28D002A1CBF411A5FEA6D
:1015D000014040F0CC8102B0B0BD010600F1CC80EA
:1015E0004006F8D5E868202120F04000E860204659
:1015F00084F83D1002B0BDE8B04000F0D5BAC8078D
:1016000018BF12F4807040F0CA80480700F1CD8006
:10161000D2E0A06B01684A6893B2002BDBD0A18DA9
:101620008B42D8D2E285C069B0F5807F00F0A080FF
:1016300055E8030F216820F4807041E80302F2B1FD
:10164000206850E8030F216820F4807041E803020D
:10165000AAB1206850E8030F216820F4807041E8A7
:10166000030262B1206850E8030F216820F4807003
:1016700041E803021AB1206850E8030FDAE7206856
:1016800050E8050F216820F0010041E80502BAB3D7
:10169000206850E8050F216820F0010041E80502AC
:1016A00072B3206850E8050F216820F0010041E87E
:1016B00005022AB3206850E8050F216820F00100D8
:1016C00041E80502002ADAD11AE0206850E8050F47
:1016D000216820F0400041E80502DAB1206850E8B6
:1016E000050F216820F0400041E8050292B1206812
:1016F00050E8050F216820F0400041E805024AB19A
:10170000206850E8050F216820F0400041E80502FC
:10171000002ADAD1202084F83E00002020632068CF
:1017200050E8030F216820F0100041E80302DAB10D
:10173000206850E8030F216820F0100041E8030200
:1017400092B1206850E8030F216820F0100041E8B2
:1017500003024AB1206850E8030F216820F010000E
:1017600041E80302002ADAD1A06BFEF715FFA18D34
:10177000E08D081A81B271E194F83D0021287FF4D0
:101780002AAFA068B0F5805F03D12069002800F07F
:101790008381206A411C21620078686083E1206CAB
:1017A00040F001002064480706D5BEF1000F03D0C9
:1017B000206C40F002002064880706D5BEF1000FBF
:1017C00003D0206C40F004002064BCF1000F06D56B
:1017D0005EEA030003D0206C40F008002064206C17
:1017E00000283FF4F8AE02EA0100800603D5204647
:1017F00001F016F925686869216C00F0400001F0DD
:101800000801401800F0AC8055E8030F216820F46F
:10181000907041E80302D2B3206850E8030F2168BA
:1018200020F4907041E803028AB3206850E8030F67
:10183000216820F4907041E8030242B3206850E828
:10184000030F216820F4907041E80302FAB1206888
:1018500050E8030FDAE700BF206850E8050F216861
:1018600020F0010041E80502DAB1206850E8050FD8
:10187000216820F0010041E8050292B1206850E89B
:10188000050F216820F0010041E805024AB12068F7
:1018900050E8050F216820F0010041E80502002A08
:1018A000DAD1206B012824D1206850E8030F216889
:1018B00020F0100041E80302DAB1206850E8030F7D
:1018C000216820F0100041E8030292B1206850E83E
:1018D000030F216820F0100041E803024AB120689C
:1018E00050E8030F216820F0100041E80302002AAD
:1018F000DAD1202084F83E0000202063206841696E
:10190000490640F1C38050E8050F216820F04000EF
:1019100041E80502002A00F0A780206850E8050F82
:10192000216820F0400041E80502002A00F09C8078
:10193000206850E8050F216820F0400041E80502CA
:10194000002A00F09180206850E8050F216820F0FF
:10195000400041E80502002A00F086802068D2E7B6
:101960002046FFF7FDFD0020206402B0B0BD55E821
:10197000030F226820F4907042E80303CBB3206881
:1019800050E8030F226820F4907042E8030383B309
:10199000206850E8030F226820F4907042E80303A7
:1019A0003BB3206850E8030F226820F4907042E8AF
:1019B0000303F3B1206850E8030FDAE7206850E82A
:1019C000050F226820F0010042E80503DBB1206822
:1019D00050E8050F226820F0010042E8050393B1AA
:1019E000206850E8050F226820F0010042E8050356
:1019F0004BB1206850E8050F226820F0010042E852
:101A00000503002BDAD1202084F83E00002020635B
:101A1000206850E8030F226820F0100042E803031A
:101A2000DBB1206850E8030F226820F0100042E884
:101A3000030393B1206850E8030F226820F01000E0
:101A400042E803034BB1206850E8030F226820F0FE
:101A5000100042E80303002BDAD189B2204602B01D
:101A6000BDE8B040FFF77ABDA06B78B142F6152112
:101A7000C0F600010165FEF7D1FD00283FF4ABADD3
:101A8000A06B016D02B0BDE8B0400847204602B02F
:101A9000BDE8B040FFF764BD206A30F8021B6FF369
:101AA0005F2169602062E08C01380104E0847FF4EA
:101AB00092ADE86820F08000E860E86840F04000FF
:101AC000E86002B0B0BD0000002804BF01207047EC
:101AD00010B5044690F83D0028B9002084F83C0079
:101AE000204600F021F8242084F83D002068C168D9
:101AF00021F40051C160204601F010F8206801690E
:101B000021F490410161416921F02A014161C168DC
:101B100041F40051C16000202021206484F83D1070
:101B200084F83E1010BD000080B586B0016841F217
:101B30000000C4F20100814201D006B080BD002146
:101B400043F630020191C4F20202536900F570407D
:101B500043F010035361536903F010030193019B99
:101B60000191136843F001031360126802F001024F
:101B70000192019A4FF4C06201920222CDE9022142
:101B8000032104910721059101A9FEF747FF2520B4
:101B900000210022FFF7AAF82520FFF797F806B0EA
:101BA00080BD00007047000070470000FEE70000A5
:101BB000F0B581B00024C4F2020443F208062046C6
:101BC00008210022C4F201060027FFF705F864206F
:101BD000FEF710FF204608210122FEF7FDFF6420DA
:101BE000FEF708FF204604210122FEF7F5FF6420DE
:101BF000FEF700FF11208DF803002046022100228D
:101C0000FEF7EAFF40F23025C2F200050DF10301B4
:101C100028460122FFF71EFC204602210122FEF782
:101C2000DBFF7820FEF7E6FE36208DF80300204625
:101C300002210022FEF7D0FF0DF103012846012208
:101C4000FFF708FC204602210122FEF7C5FF77605E
:101C5000306880075FBF30685FEA807030685FEA95
:101C6000807002D430688007F2D53A208DF80300E6
:101C7000204602210022FEF7AFFF40F23020C2F2E0
:101C800000000DF103010122FFF7E4FB20460221D1
:101C90000122FEF7A1FF0520706000BF30688007B9
:101CA0005FBF30685FEA807030685FEA807002D49E
:101CB00030688007F2D5B2208DF80300204602215B
:101CC0000022FEF789FF40F23020C2F200000DF141
:101CD00003010122FFF7BEFB204602210122FEF78D
:101CE0007BFF0C20706000BF306880075FBF3068EA
:101CF0005FEA807030685FEA807002D430688007E5
:101D0000F2D50C20706000BF306880075FBF30687C
:101D10005FEA807030685FEA807002D430688007C4
:101D2000F2D50020706000BF306880075FBF306868
:101D30005FEA807030685FEA807002D430688007A4
:101D4000F2D53320706000BF306880075FBF306815
:101D50005FEA807030685FEA807002D43068800784
:101D6000F2D53320706000BF306880075FBF3068F5
:101D70005FEA807030685FEA807002D43068800764
:101D8000F2D5B7208DF80300204602210022FEF78D
:101D900023FF40F23020C2F200000DF103010122C6
:101DA000FFF758FB204602210122FEF715FF3520E0
:101DB000706000BF306880075FBF30685FEA807086
:101DC00030685FEA807002D430688007F2D5BB20AB
:101DD0008DF80300204602210022FEF7FDFE40F2AE
:101DE0003020C2F200000DF103010122FFF732FBA7
:101DF000204602210122FEF7EFFE3720706000BF6F
:101E0000306880075FBF30685FEA807030685FEAE3
:101E1000807002D430688007F2D5C0208DF80300AE
:101E2000204602210022FEF7D7FE40F23020C2F207
:101E300000000DF103010122FFF70CFB20460221F7
:101E40000122FEF7C9FE2C20706000BF30688007B9
:101E50005FBF30685FEA807030685FEA807002D4EC
:101E600030688007F2D5C2208DF803002046022199
:101E70000022FEF7B1FE40F23020C2F200000DF168
:101E8000030101220125FFF7E5FA20460221012284
:101E9000FEF7A2FE756000BF306880075FBF306844
:101EA0005FEA807030685FEA807002D43068800733
:101EB000F2D5C3208DF80300204602210022FEF750
:101EC0008BFE40F23020C2F200000DF1030101222E
:101ED000FFF7C0FA204602210122FEF77DFE122004
:101EE000706000BF306880075FBF30685FEA807055
:101EF00030685FEA807002D430688007F2D5C42071
:101F00008DF80300204602210022FEF765FE40F214
:101F10003020C2F200000DF103010122FFF79AFA0E
:101F2000204602210122FEF757FE2020706000BFEC
:101F3000306880075FBF30685FEA807030685FEAB2
:101F4000807002D430688007F2D5C6208DF8030077
:101F5000204602210022FEF73FFE40F23020C2F26E
:101F600000000DF103010122FFF774FA204602215F
:101F70000122FEF731FE0F20706000BF306880073D
:101F80005FBF30685FEA807030685FEA807002D4BB
:101F900030688007F2D5D0208DF80300204602215A
:101FA0000022FEF719FE40F23020C2F200000DF1CF
:101FB00003010122FFF74EFA204602210122FEF71B
:101FC0000BFEA420706000BF306880075FBF3068E0
:101FD0005FEA807030685FEA807002D43068800702
:101FE000F2D5A120706000BF306880075FBF306805
:101FF0005FEA807030685FEA807002D430688007E2
:10200000F2D5E0208DF80300204602210022FEF7E1
:10201000E3FD40F23020C2F200000DF10301012285
:10202000FFF718FA204602210122FEF7D5FDD02045
:10203000706000BF306880075FBF30685FEA807003
:1020400030685FEA807002D430688007F2D50420DF
:10205000706000BF306880075FBF30685FEA8070E3
:1020600030685FEA807002D430688007F2D50D20B6
:10207000706000BF306880075FBF30685FEA8070C3
:1020800030685FEA807002D430688007F2D5112092
:10209000706000BF306880075FBF30685FEA8070A3
:1020A00030685FEA807002D430688007F2D5132070
:1020B000706000BF306880075FBF30685FEA807083
:1020C00030685FEA807002D430688007F2D52B2038
:1020D000706000BF306880075FBF30685FEA807063
:1020E00030685FEA807002D430688007F2D53F2004
:1020F000706000BF306880075FBF30685FEA807043
:1021000030685FEA807002D430688007F2D55420CE
:10211000706000BF306880075FBF30685FEA807022
:1021200030685FEA807002D430688007F2D54C20B6
:10213000706000BF306880075FBF30685FEA807002
:1021400030685FEA807002D430688007F2D51820CA
:10215000706000BF306880075FBF30685FEA8070E2
:1021600030685FEA807002D430688007F2D50D20B5
:10217000706000BF306880075FBF30685FEA8070C2
:1021800030685FEA807002D430688007F2D50B2097
:10219000706000BF306880075FBF30685FEA8070A2
:1021A00030685FEA807002D430688007F2D51F2063
:1021B000706000BF306880075FBF30685FEA807082
:1021C00030685FEA807002D430688007F2D523203F
:1021D000706000BF306880075FBF30685FEA807062
:1021E00030685FEA807002D430688007F2D5E12061
:1021F0008DF80300204602210022FEF7EDFC40F29C
:102200003020C2F200000DF103010122FFF722F994
:10221000204602210122FEF7DFFCD020706000BFC3
:10222000306880075FBF30685FEA807030685FEABF
:10223000807002D430688007F2D50420706000BF3F
:10224000306880075FBF30685FEA807030685FEA9F
:10225000807002D430688007F2D50C20706000BF17
:10226000306880075FBF30685FEA807030685FEA7F
:10227000807002D430688007F2D51120706000BFF2
:10228000306880075FBF30685FEA807030685FEA5F
:10229000807002D430688007F2D51320706000BFD0
:1022A000306880075FBF30685FEA807030685FEA3F
:1022B000807002D430688007F2D52C20706000BF97
:1022C000306880075FBF30685FEA807030685FEA1F
:1022D000807002D430688007F2D53F20706000BF64
:1022E000306880075FBF30685FEA807030685FEAFF
:1022F000807002D430688007F2D54420706000BF3F
:10230000306880075FBF30685FEA807030685FEADE
:10231000807002D430688007F2D55120706000BF11
:10232000306880075FBF30685FEA807030685FEABE
:10233000807002D430688007F2D52F20706000BF13
:10234000306880075FBF30685FEA807030685FEA9E
:10235000807002D430688007F2D51F20706000BF03
:10236000306880075FBF30685FEA807030685FEA7E
:10237000807002D430688007F2D51F20706000BFE3
:10238000306880075FBF30685FEA807030685FEA5E
:10239000807002D430688007F2D52020706000BFC2
:1023A000306880075FBF30685FEA807030685FEA3E
:1023B000807002D430688007F2D5232070603068C6
:1023C000800709D4306880075CBF30685FEA80709E
:1023D00002D430688007F2D521208DF80300204612
:1023E00002210022FEF7F8FB40F23025C2F2000580
:1023F0000DF1030128460122FFF72CF820460221A7
:102400000122FEF7E9FB29208DF803002046022176
:102410000022FEF7E1FB0DF1030128460122FFF740
:1024200019F8204602210122FEF7D6FB01B0F0BDCB
:1024300043F20801C4F20101020A4A600A689207E5
:102440005FBF0A685FEA82720A685FEA827202D43A
:102450000A689207F2D5C0B2486003E008688007B6
:1024600048BF70470868800706D4086880075CBFCB
:1024700008685FEA8070F1D5704700002DE9F047E9
:1024800082B040F20009054686B2C4F202092A2051
:1024900017468A4643F208048DF805004846022193
:1024A00000229846C4F20104FEF796FB40F2302069
:1024B000C2F200000DF105010122FEF7CBFF4846F4
:1024C00002210122FEF788FB300A60602068800745
:1024D0005FBF20685FEA807020685FEA807002D486
:1024E00020688007F2D5E8B2606000BF20688007EE
:1024F0005FBF20685FEA807020685FEA807002D466
:1025000020688007F2D5B8B2000A606020688007B2
:102510005FBF20685FEA807020685FEA807002D445
:1025200020688007F2D5F8B2606000BF206880079D
:102530005FBF20685FEA807020685FEA807002D425
:1025400020688007F2D52B208DF80600484602212E
:102550000022FEF741FB40F23020C2F200000DF1F4
:1025600006010122FEF776FF484602210122FEF70E
:1025700033FB1FFA8AF0000A606000BF2068800702
:102580005FBF20685FEA807020685FEA807002D4D5
:1025900020688007F2D55FFA8AF0606020688007C3
:1025A0005FBF20685FEA807020685FEA807002D4B5
:1025B00020688007F2D51FFA88F0000A606000BF2B
:1025C000206880075FBF20685FEA807020685FEA4C
:1025D000807002D420688007F2D55FFA88F06060CE
:1025E0002068800709D4206880075CBF20685FEA04
:1025F000807002D420688007F2D52C208DF8070067
:10260000484602210022FEF7E7FA40F23020C2F2EB
:1026100000000DF107010122FEF71CFF48460221D0
:102620000122FEF7D9FA02B0BDE8F08780B582B08A
:102630000020019043F63000C4F20200016800223D
:1026400041F4800101600068002100F480000190E5
:1026500001983B20FEF74AFB3B2002B0BDE88040DA
:10266000FEF734BBF0B587B0002543F63000069581
:102670000195C4F202000168002441F0800101606C
:102680000168C4F2020401F08001019101990195F1
:102690000168012241F00101016000680E2100F093
:1026A00001000190019820460E260127FEF794FABA
:1026B00002A92046CDE90267CDE90475FEF7AEF91F
:1026C00007B0F0BD10B540F2302043F20001C2F275
:1026D0000000C4F201014FF48272002380E80E0072
:1026E00000F10C014FF0020C4FF0010E4FF400749A
:1026F00081E808500A21C0E90643C0E90833C0E96F
:102700000A31FEF7F1FD002808BF10BDBDE81040FA
:10271000FDF73CBF80B540F24C2041F20001C1F210
:102720000000C4F2010100234FF00C0C4FF4E13221
:1027300080E80E00C0E90333C0E905C3C361FFF7B9
:10274000C3F9002808BF80BDBDE88040FDF71EBF6B
:10275000FEE70000FEE7000070470000806B0168A4
:102760004A6822F003024A60416D41F01001416560
:10277000012180F85110FEF7B5BD0000806BFEF717
:10278000D5BE0000B0B582B0846B0546FEF72AFACC
:1027900029680968C90568D40346206849F681722A
:1027A0004168C1F25E6221F020014160416821F080
:1027B0000201416040F20001C1F200010968A1FB81
:1027C0000212510D4FF47A72514301916168B1F5D3
:1027D000827F25D120468021642200F04DF838B157
:1027E000606D40F020006065606D40F02000606525
:1027F000A06838B9002000902068C1680091806806
:10280000009000980020E086012084F85100606D5F
:1028100058B3204602B0BDE8B040FEF763BD00BF2C
:1028200001990029E4D001990139019181680906D3
:10283000DED501990029DBD0019901390191816828
:102840000906D5D501990029D2D001990139019104
:1028500081680906CCD501990029C9D001990139AF
:10286000019181680906DBD4C2E7204602B0BDE8C9
:10287000B040FEF759BE00002DE9F04381B01E467E
:1028800090460D468146FEF7ADF9301A00EB080779
:10289000FEF7A8F940F20001C1F200010968C1F396
:1028A000CB3179430091D9F800108A682A40AA42B6
:1028B0001AD1064608F1010404E000BF88682840E8
:1028C000A84211D1002CF9D0FEF78CF9801BB84238
:1028D0000ED2009800990028A1F101010091D9F8C9
:1028E000001008BF0746E9E7002001B0BDE8F0830B
:1028F000D9E900014268B1F5827F22F0E00242602E
:102900000BD1D9F80810B1F5004F02D0B1F5806FA6
:1029100003D1016821F040010160D9F82810B1F518
:10292000005F07D1016821F400510160016841F4A2
:1029300000510160012089F85100002089F8500001
:10294000032001B0BDE8F08370470000FEF750B9E6
:10295000B0B592B0002443F64000CDE90A44CDE979
:1029600008440594CDE90344CDE901440094C4F240
:1029700002000168022541F080510160006800F00A
:1029800080500090009847F200000094C4F20000CC
:10299000016841F4804101600068A82100F4804092
:1029A00000900098012006904FF4803007904FF47B
:1029B00080000D9004200E90119006A80C95CDE992
:1029C0000F15FEF7DDFA20B1EFF3108072B600BFED
:1029D000FEE70F20CDE901054FF4A05004904FF41D
:1029E0008050059001A805210394FEF7BBF920B1A2
:1029F000EFF3108072B600BFFEE712B0B0BD00006A
:102A00004EF68850CEF20000016841F4700101607A
:102A100070470000806B0021C185C184FEF7A0BD16
:102A200081B090F83E10222920D18368B3F5805FF1
:102A300008D10169002956D000F128010A6803680D
:102A40005B680AE0014651F8282F13B90369002B8F
:102A5000F5D003685B6803F07F0313700A680132E6
:102A60000A60C18D01390A04C18501D001B07047E7
:102A70000168CA6822F02002CA60CA6822F4807223
:102A8000CA604A6922F001024A61202280F83E2091
:102A9000026B012A30D10022026300BF51E8031FFC
:102AA000026821F0100142E8031343B3016851E8C2
:102AB000031F026821F0100142E80313FBB1016813
:102AC00051E8031F026821F0100142E80313B3B17B
:102AD000016851E8031F026821F0100142E8031366
:102AE0006BB10168DAE70168826A49686FF35F21B8
:102AF00022F8021B8262B4E701B0FFF753B8016805
:102B00000A68D20606D5002200920A680092496837
:102B100000910099818D01B0FEF720BD10B50446EB
:102B20000068D4E902C22369016921F440511143CC
:102B30000161626943EA0C01E3691143C268194308
:102B400049F20C639A431143C1604169A26921F4BF
:102B5000407141F20043114340F48062C4F201032A
:102B60009A42416102D1FEF7C1F901E0FEF7AAF9EC
:102B7000E16963681922B1F5004FA0FB02011CD185
:102B80005A00DB0FFDF770FB48F21F51C5F2EB1145
:102B9000A0FB01235A096FF0630302FB03003223F9
:102BA00003EBC000A0FB01014FF4F87000EA111024
:102BB00000EB0210C1F342111AE09A009B0FFDF7DF
:102BC00053FB48F21F51C5F2EB11A0FB01235A0938
:102BD0006FF0630302FB0300322303EB0010A0FB42
:102BE0000101F02000EA511000EB0210C1F3431183
:102BF00022680843906010BD40F24C20C1F20000F2
:102C0000FEF7B0BCFEE7000070B540F2D404C1F29C
:102C100000042046442103F089F947F6E100C0F69C
:102C200000000A21002224F057FA40F2E006C1F227
:102C3000000640F2CB153060C1F20005012028707B
:102C4000204603F043F90146306811B124F066FBD9
:102C500001E024F053FB0020287070BD70B50346DE
:102C6000B1F90000B2F90040B1F902C0B2F9025066
:102C7000B1F904E0B2F90460A042B1F90610B2F96A
:102C80000620C8BF0446AC451C80C8BF6546B64593
:102C90005D80B8BF764691429E80B8BF0A4600204C
:102CA000B4424FF00001D8BF01219542D8BF0120A6
:102CB0000840DA8070BD00002DE9F04381B00C4679
:102CC000B0F90070B1F900108F423DDBB0F902603D
:102CD000B4F902108E4237DBB0F90490B4F9041055
:102CE000894531DCB0F90680B4F9060080452BDC5B
:102CF00015466AB3694620462A46ADF80070ADF81D
:102D0000026000F09BF8F8B1694620462A46ADF80B
:102D10000090ADF8026000F091F8A8B16946204635
:102D20002A46ADF80070ADF8028000F087F858B17F
:102D3000694620462A46ADF80090ADF8028000F0C2
:102D40007DF801B0BDE8F083002001B0BDE8F0835C
:102D5000012001B0BDE8F083B0F90020B1F90430E2
:102D60009A4213DCB0F90420B1F900309A420DDB2D
:102D7000B0F90220B1F906309A4207DCB0F906003A
:102D8000B1F902108842A4BF0120704700207047AB
:102D90002DE9F04381B00C460146B0F90460B4F966
:102DA000000086420BDBB1F90670B4F902008742DD
:102DB00005DBB1F90080B4F90400804503DD012092
:102DC00001B0BDE8F08315464FF0010092B3B1F9B0
:102DD0000290B4F9061089452CDC694620462A4643
:102DE000ADF80080ADF8029000F028F898B9694677
:102DF00020462A46ADF80060ADF8029000F01EF8BB
:102E000048B9694620462A46ADF80080ADF8027000
:102E100000F014F818B1002001B0BDE8F083694655
:102E200020462A46ADF80060ADF8027000F006F8C2
:102E300080F0010001B0BDE8F08300002DE9F04111
:102E4000B1F90030B0F90040A3420DDBB0F904E065
:102E5000734509DCB1F90210B0F902C0614503DB2A
:102E6000B0F90650A94202DD0020BDE8F081012A38
:102E700054DBAEEB0400013086B200EBD63006B274
:102E8000A5EB0C00013087B200EBD73007B24FEA58
:102E900066087810B8EB670FB8BF70109042A8BFF3
:102EA0001046021917B200EB0C02BB4216B2D8BF93
:102EB000B14215DD2A1ABB4212B22ADC914228DB4C
:102EC00007443FB23F1B07EBD77708447E101B1B1C
:102ED000801AA3EB6703A0EB670006FB06F10EE088
:102EE000384400B2001B00EBD07042101B1BA1EB5A
:102EF0000C01A3EB6003A1EB600002FB02F113FBEA
:102F000003F210FB002200208A4298BF0120BDE896
:102F1000F081AEEB000424B2A34202DA0120BDE846
:102F2000F08191421BDAB142F8DC201A02B2AEEB1A
:102F3000020202EBD272181AA0EB6200A1EB0C01A4
:102F40005710A1EB620110FB00F007FB07F211FB29
:102F500001010020914298BF0120BDE8F081271AAD
:102F60003EB2AEEB060606EBD67608447510DB1BC8
:102F7000801AA3EB6603A0EB660005FB05F1BEE734
:102F800070B5B1F90030B2F90040B1F902C0B2F940
:102F90000250B1F904E0B2F90460A342B1F906109D
:102FA000B2F90620B8BF1C46AC450480B8BF6546E0
:102FB000B6454580C8BF764686809142C8BF0A465E
:102FC000C28070BD2DE9F04F91B0DDF868A0BAF174
:102FD000000F00F0708607461B980228C0F06B8631
:102FE00016460D460C9303F037FA81460EF044FE68
:102FF000D9F800108046CA6A80680E900AB1084667
:1030000090470FA839462A46FFF728FE002800F00F
:103010005286B8F81000B8F8121040424A4201B285
:1030200012B20FA80AF09CF90C9B002B65D0D9F8BE
:103030000000008A400760D4BDF84000BDF83C1095
:10304000401A013002B2012A57DB511E02F0030C74
:1030500003294FF0000130D322F00301B646494264
:1030600001336FF0030200BF9F18FE783D79802E78
:103070004FF000067879BC7988BF4FF0FF36FE70BC
:10308000802D4FF0000688BF4FF0FF3680284FF0AC
:1030900000003E7188BF4FF0FF3004327871802C01
:1030A0004FF0000001EB020688BF4FF0FF300436FE
:1030B000B871D9D10C9B111D7646BCF1000F1CD004
:1030C000585C002280284FF0000088BF4FF0FF308E
:1030D000BCF1010F585410D019444878802888BF9B
:1030E0004FF0FF32BCF1020F4A7006D08878002200
:1030F000802888BF4FF0FF328A70D9F80000C0697D
:1031000000284CD0B5B203F0A7F9B8F81410B8F8FD
:1031100010208046881ABAF1010F00F1010954D13C
:10312000BDF93E40BDF94200844200F3C485BDF8BC
:103130004010DDF838A02E464FF6FF7306E000BFC2
:1031400002B2944204F1010480F2B585BDF93C500D
:103150000AB29542F4DCCB46C146B046D9F800002D
:1031600027EA0301D0F81CC001EB080721B21B9E1F
:10317000CDE900170FFA8BF22BB251460296E047C9
:10318000BDF940104FF6FF738D4205F10105E5DBF7
:10319000BDF8420089B24646C846D946D0E71C9AD7
:1031A0001FFA86F9002A57D0B8F81400B8F81010A2
:1031B000BDF93E70012A00F09280022A40F07B8522
:1031C00048F2A54BC0F6000B8DE0BDF93E60BDF99D
:1031D00042108E4200F36F85BDF93C30BDF84000CF
:1031E000AA46C71A01373FB20D970C9F9AB2FC1A34
:1031F00003B217B29F4206DD24E000BF01B28F4246
:1032000007F101071CDAE15D0029F7D01B9AD8F815
:10321000000051434FF6FF72090A2BEA0202C5690A
:1032200002EB0A0B32B202910E9900920FFA89F268
:103230003BB2CDF804B0A847BDF84000DEE700BFC0
:10324000BDF842100AB2964280F235850D9BBDF85A
:103250003C2001361C44CBE703F0FEF8B8F814100C
:10326000B8F810200546881A013001B20891BDF85F
:1032700040105246BDF93CA0BDF93EB0A1EB0A0199
:103280000E9CBDF942E001311BFB00F009B204EBDA
:1032900040000991AEEB0B0100EB4A0001310D90AB
:1032A0001B9809B2012A0A9140F0D280FE28C0F092
:1032B00038832868406B002800F0E5840FA80AF0E6
:1032C00025F8F128C0F0DF842868089A476B0FAB17
:1032D0002146CDF80090B84711B0BDE8F08F48F214
:1032E0001D4BC0F6000B401A0E9A013001B217FBBD
:1032F00000F0BAF1010F02EB400A50D1BDF942C013
:10330000674500F3D8841B984FF61F030430334001
:103310003A4609F4FC67C00843EA074358434FF6AE
:103320001F03C0F2E07303EA5010BDF840E040EA2A
:1033300010404B0000214FF6FF760D930DE0BDF8D5
:1033400042C01FFA83FEDDE90D370FFA8CF2974277
:1033500007F101029A4480F2AE84BDF93C700E92EE
:103360000FFA8EF2974209DD0E9FEEE72AF817005A
:10337000BDF940309F4207F10107E0DA3AF81780C3
:103380004145F3D025EA06006FF30F0400EB090571
:1033900044441B9A28462146D8474146E6E7BDF9F2
:1033A00042C0674500F38784BDF93C20BDF840303A
:1033B0000C9E981A013000B20D90BAF80000490036
:1033C0000E9797B2B61A0C91002186461AB23FB2F8
:1033D000974220DD2DE000BF1B99FC2A02FB01F083
:1033E0000A4698BF020A4FF6FF7028EA00006FF302
:1033F0000F0400EB09081C4440462146D847F15D04
:103400003AF817E02AF81700BDF840301AB2974290
:1034100007F101070BDAF25D002AF7D03AF817300E
:103420008A42D9D11FFA8EF59D42EBD0D4E7BDF880
:1034300042C00E9D0FFA8CF2954280F23C840D9AA8
:10344000013516440C9ABDF83C700E959244BDE7C8
:10345000FE284FEA0940C0F0F4830A99DDF824E021
:103460000129C0F2288449EA09410E914FF61F0153
:10347000314000F0FC6000EB010A0898AEF104084E
:10348000A0EB0E00002208900EE0E3190B9A0A98B8
:10349000013282420D980899DDF824E000EB4100EA
:1034A0000C930D9000F00784BEF1010F4FF0000C5B
:1034B0000B92C0F265810C9B13F0030000F0928028
:1034C00018784946FF2813D00D994FF61F07098831
:1034D000C0F2E07741EA014104303940C008AAEB6C
:1034E0000102504301EB5010384040EA104081B2D5
:1034F0000D98BEF1020F20F8021B03F101014FF0FD
:10350000010C6DDB11F003026AD00A784946FF2AEC
:1035100012D000884FF61F0740EA0040C0F2E07763
:10352000111D3840C908AAEB0002514300EB5110AD
:10353000384040EA104081B20D98BEF1030F41803F
:1035400003F1020100F104004FF0020C48DB11F01E
:10355000030245D00A784946FF2A12D000884FF668
:103560001F0740EA0040C0F2E077111D3840C9084B
:10357000AAEB0002514300EB5110384040EA1040E2
:1035800081B20D98BEF1040F818003F1030100F1B7
:1035900006004FF0030C23DB11F0030220D00A7861
:1035A0004946FF2A12D000884FF61F0740EA004024
:1035B000C0F2E077111D3840C908AAEB0002514360
:1035C00000EB5110384040EA104081B20D980433AE
:1035D000C18008300D904FF0040CC44505DDA2E019
:1035E0000D900B46C44500F39E80002400260AE09F
:1035F000A1F806905B4604360CEB0600404504F14A
:10360000080400F38B8098590028F4D0411C0FD196
:103610000D982044800779D00D9901EB460021F8E0
:1036200016900E99A0F80690C0F80210E3E700BFCC
:10363000C1B2FF2949464A4616D00D994FF61F07D9
:1036400031F81610042241EA0141C0F2E07752FA43
:1036500080F03940C008AAEB0102504301EB501042
:10366000384040EA104081B20D9D981925F8161097
:1036700042789B4605EB4601FF2A4B4615D04B8806
:103680004FF61F0743EA0343C0F2E0770432554682
:103690003B40D208BA46EF1A7A4303EB521202EAD1
:1036A0000A0242EA1242AA4693B24B8082784B4603
:1036B000FF2A12D08B884FF61F0543EA0343C0F25E
:1036C000E07504322B40D208AAEB03077A4303EBE0
:1036D00052122A4042EA124293B28B80C078FF28ED
:1036E0003FF486AFCA884FF61F0542EA0242C0F295
:1036F000E07504302A40C008AAEB0203584302EBED
:103700005010284040EA1040C88073E70D9A0E9987
:1037100002EB460042F8161041606CE70D99334405
:10372000214484460D91F445BFF6B0AEAEEB0C00DB
:1037300010F0030129D01A784846FF2A15D00D98B9
:103740004FF61F060088C0F2E07640EA00400432DF
:103750003040D2081F46AAEB00035A4300EB521038
:10376000304040EA10403B4680B2DDF834E00129A9
:103770002EF8020B03F101040CD10CF101004CE016
:103780000C9BC4457FF731AFCDE7DDF834E01C4634
:10379000604642E022784846FF2A15D0BEF8000075
:1037A0004FF61F0640EA0040C0F2E0760432304097
:1037B000D2081F46AAEB00035A4300EB52103040D8
:1037C00040EA10403B4680B20D9A9C1C022902F14F
:1037D000040E508002D10CF102001EE02178484610
:1037E000FF2913D0BEF800004FF61F0740EA004043
:1037F000C0F2E07704313840C908AAEB0002514317
:1038000000EB5110384040EA104080B20D99DC1CAA
:10381000888001F1060E0CF10300099A6FEA0C0191
:10382000114403292346CDF834E0FFF42FAE099963
:103830000027091ACDF834E009E000BF0D9A0437DB
:10384000D080B94202F108020D923FF41EAEE05D55
:103850004E46FF2813D00D9A4FF61F061288C0F26D
:10386000E07642EA024204303240C008AAEB02038A
:10387000584302EB5010304040EA104086B20D9A97
:10388000E019168042780EEB470CFF2A4B4613D006
:10389000BCF802304FF61F0543EA0343C0F2E0755F
:1038A00004322B40D208AAEB0306724303EB5212F8
:1038B0002A4042EA124293B2ACF8023082784B4678
:1038C000FF2A13D0BCF804304FF61F0543EA034328
:1038D000C0F2E07504322B40D208AAEB0306724313
:1038E00003EB52122A4042EA124293B2ACF804307F
:1038F000C2784846FF2AA1D00D984FF61F06C0880F
:10390000C0F2E07640EA004004323040D208AAEB30
:1039100000035A4300EB5210304040EA104080B29E
:103920008CE70A98DDF824800128C0F2C4811B9836
:1039300033464FF61F0106460430194009F4FC6275
:10394000C00841EA024148434FF61F01C0F2E0714E
:1039500001EA50174FEAD920C3F3451100FB06F5E1
:1039600001FB06F00C90A8F10100049008F00300A0
:10397000069028F003000B90089803F01F020E99A0
:1039800002FB06FC47EA174E86F0FF071BFB00A66A
:1039900044F2800301EB4606C0F2400306F1060A3A
:1039A0004000002148F281044FF0000B059012E026
:1039B0000D9820F819E0924608980D99DDF82480BA
:1039C00001EB40010D910E990A9801318142059851
:1039D000824400F07081B8F1010F0E91ECDB049885
:1039E0004FF000090328CDF81CA080F091800698C4
:1039F000DDF81CA00028DFD00D9830F81960B34521
:103A00001FD0F00A10FB075000FB04304FF60001F6
:103A1000C0F20F0101EA103E0C98C6F3451111FBEC
:103A2000070106F01F0010FB07C000FB043001FB7C
:103A30000431C0F3C450C1F3C551704440EA411E83
:103A4000B346069801280D9820F819E0B4D00D98D7
:103A5000524609F1010A30F81A60B3451FD0F00A46
:103A600010FB075000FB04304FF60001C0F20F01BD
:103A700001EA103E0C98C6F3451111FB070106F050
:103A80001F0010FB07C000FB043001FB0431C0F332
:103A9000C450C1F3C551704440EA411EB346069874
:103AA00002280D9820F81AE03FF485AF0D9809F12F
:103AB000020930F81960B3453FF47AAFF00A10FB01
:103AC000075000FB04304FF60001C0F20F0101EA7D
:103AD000103E0C98C6F3451111FB070106F01F00BC
:103AE00010FB07C000FB043001FB0431C0F3C450DD
:103AF000C1F3C551704440EA411EB34658E700BFC8
:103B00000B9809F1040948452AF808EB3FF46FAF18
:103B10003AF8068CC34520D04FEAD82616FB075644
:103B200006FB04364FF60000C0F20F000C9900EAC5
:103B30001636C8F3451010FB071008F01F0111FBE3
:103B400007C101FB043100FB0430C1F3C451C0F3D1
:103B5000C550314441EA401EC3463AF8046C2AF885
:103B600006ECB3451FD0F00A10FB075000FB0430F1
:103B70004FF60001C0F20F010C9A01EA1030C6F3B3
:103B8000451111FB072106F01F0212FB07C202FBC1
:103B9000043201FB0431C2F3C452C1F3C5511044D5
:103BA00040EA411EB3463AF8026C2AF804ECB345E9
:103BB0001FD0F00A10FB075000FB04304FF6000145
:103BC000C0F20F010C9A01EA1030C6F3451111FB47
:103BD000072106F01F0212FB07C202FB043201FBA1
:103BE0000431C2F3C452C1F3C551104440EA411E2E
:103BF000B346BAF800602AF802ECB3453FF480AF50
:103C0000F00A10FB075000FB04304FF60001C0F231
:103C10000F010C9A01EA1030C6F3451111FB072180
:103C200006F01F0212FB07C202FB043201FB043143
:103C3000C2F3C452C1F3C551104440EA411EB34619
:103C40005EE70999F34536DC0D9A00F0FC601788B1
:103C50004FF61F02324010440B9001F00300089A07
:103C6000069021F003000E9B0A901BFB02A003EBC1
:103C70004000841D50004E1E059000204FF0000CA7
:103C8000B846049636E00A98099F012813DB089885
:103C90004FF6FF78460024EA08000D9D00EB09046A
:103CA000284621463A460CF0AFFF0A9835440138C1
:103CB0000A900D95EFD111B0BDE8F08F4F46A446A4
:103CC0000D9921F81670BDF842E0099ADDF838B078
:103CD000079C2E4608990D9D13440C93059B05EBFC
:103CE00041050FFA8EF18B450BF1010B1C44114677
:103CF0000D95E0DA01290CDB032ECDF838B00794DE
:103D00000AD20C9BDDF86CA035464FF0000E1C4625
:103D1000D5E00C9B0A46DDE7DDF86CA00C9B4FF06C
:103D2000000E23E0C1B2B4F80080FF2949D04FF65D
:103D30001F06042148EA0842C0F2E0760B9F51FAC0
:103D400080F13240C908BF1A794302EB511131406A
:103D500041EA11418FB29C4627800A990C9B0EF1D3
:103D6000040E714504F1080400F0A68013F80E60FB
:103D700086B3FF2E06FB0AF318BF4FEA132A6645E7
:103D800018BF504603D134F8063C98451DD0C3B245
:103D900034F8068CFF2B16D004214FF61F0251FA7F
:103DA00080F348EA0847C0F2E0720B991740DB083D
:103DB000C91B594307EB5111114041EA11418FB220
:103DC00002E04F46C7E74F46B446DDF86CA00C9BB7
:103DD00024F8067C03EB0E0673785BB3FF2B524688
:103DE00003FB0AF118BF0A0A634518BF104603D146
:103DF00034F8041C88451BD0C1B234F8048CFF2968
:103E000014D04FF61F05042148EA0842C0F2E075BD
:103E10000B9F51FA80F12A40C908BF1A794302EB7F
:103E20005111294041EA11418FB200E04F469C46B2
:103E300024F8047CB3785BB3FF2B524603FB0AF1F2
:103E400018BF0A0A634518BF104603D134F8021C94
:103E500088451BD0C1B234F8028CFF2914D04FF62C
:103E60001F05042148EA0842C0F2E0750B9F51FA91
:103E700080F12A40C908BF1A794302EB5111294049
:103E800041EA11418FB200E04F469C4624F8027C83
:103E9000F378002B3FF461AFFF2B524603FB0AF18E
:103EA00018BF0A0A634518BF10467FF43BAF21884C
:103EB00088457FF437AF4FE7049D03EB0E04069966
:103EC00000293FF400AF237873B3FF2B564603FB62
:103ED0000AF118BF0E0A634518BF304604D10D9988
:103EE00031F81E1088451CD00D9AC1B232F81E80E0
:103EF000FF2914D04FF61F02042148EA0847C0F2F8
:103F0000E0720B9E51FA80F11740C908F61B71430D
:103F100007EB5111114041EA11418FB200E04F46C9
:103F20009C460D9921F81E7006990C9B01293FF4BF
:103F3000CAAE66789EB35346FF2E0EF1010A06FB09
:103F400003F118BF0B0A664518BF184604D10D9936
:103F500031F81A1088451CD00D9AC1B232F81A8077
:103F6000FF2914D04FF61F02042148EA0843C0F28B
:103F7000E0720B9F51FA80F11340C908FF1A794390
:103F800003EB5111114041EA11418FB200E04F465D
:103F9000B4460D990C9B21F81A70DDF86CA00699B7
:103FA00002293FF490AEA478002C3FF48CAEFF2C95
:103FB00004FB0AF118BF4FEA112A644518BF5046A6
:103FC0000C9B0EF1020605D10D9931F816108845AB
:103FD0003FF476AE0D9AC1B232F81680FF293FF455
:103FE0006DAE4FF61F02042148EA0843C0F2E072AA
:103FF0000B9F51FA80F11340C908FF1A794303EB74
:10400000511111400C9B41EA11418FB257E600005B
:104010002DE9F04F8FB0DDF86090B9F1000F00F09E
:104020004C810C46014619980228C0F0468115467D
:104030000DA822460A93FEF711FE002800F03D81EC
:10404000079502F009FA07460DF016FE3968D0F818
:104050000880CA6A83460AB108469047BBF8122016
:10406000BDF83630BBF81000BDF83410A3EB020EDB
:10407000BDF83830A1EB000C181ABDF83A30ADF895
:1040800034C09E1A0A9BADF836E0002BADF838001C
:10409000ADF83A60CDF82C806FD03A68128A52079A
:1040A0006BD4A0EB0C02013215B2012D65DB691E49
:1040B00005F0030203294FF0000A40D3CDE908269A
:1040C00025F00302069755425A1C6FF00307CDF8FE
:1040D00030E000BFD319D97893F8049080294FF0CD
:1040E000000193F805E093F8068088BF4FF0FF3198
:1040F000D9700021B9F1800F88BF4FF0FF311971DD
:104100000021BEF1800F88BF4FF0FF310437597195
:10411000B8F1800F4FF0000105EB070688BF4FF0A4
:10412000FF3104369971D5D10DF1280E07F1040A3B
:10413000DDF86090069F9EE80841DDE90826E2B1BF
:1041400013F80A10002580294FF0000188BF4FF0B6
:10415000FF31012A03F80A100FD0534459788029FF
:1041600088BF4FF0FF35022A5D7006D09978002293
:10417000802988BF4FF0FF329A703968C9690029D9
:1041800071D002F069F9BBF81410BBF91050B4F902
:104190000030491B01310991A188BBF912E0B4F943
:1041A0000260BDF936B0C91ABDF834200131ABEB5D
:1041B00006060FFA81F87644079F06FB08F605FA13
:1041C00082F507EB4606EB1ABDF838C0BDF93A1088
:1041D0000FFA82FE06EB4303B9F1010FA3EB4E0584
:1041E00069D18B4569DCDDF82C904FEA48034FF626
:1041F000FF740A930FFA8CF30FFA82F8984528DCC3
:10420000AA46099DCDF830B0834600BF3AF8181091
:1042100026EA0402DBF8000056180C99C76909B2B7
:10422000199CCDE900162AB20FFA88F34946029488
:10423000B847BDF938004FF6FF74804508F1010812
:10424000E4DBBDF83A101FFA80FC5846DDF830B0C8
:1042500055460AB2934530DA0A9BBDF834200BF17B
:10426000010B1D44C6E70FFA8EF3BBF81410BBF91F
:1042700010E01A9FA1EB0E0101310DB2A0EB0C0171
:10428000013132B2002F09B20991069562D0A5889A
:10429000B4F90010B4F902A0BBF91260012F00F0CC
:1042A0009C80079C022F08D148F2A549DDF82C809C
:1042B000C0F6000996E08B4502DD0FB0BDE8F08F37
:1042C000ACEB020301330A9F814618B2CEF1000322
:1042D000099C0C90FE184FEA48000A900FFA8CF3E4
:1042E0000FFA82FA9A4507DD28E000BF0FFA8CF139
:1042F0008A450AF1010A1FDA16F80A100029F5D0DA
:10430000199AD9F80000514335F81A204FF6FF7377
:10431000090A28EA0303C76903EB02080FFA8BF2C4
:1043200002910B99009222B20FFA8AF3CDF8048021
:10433000B847BDF838C0D9E7BDF83A100AB293457E
:10434000BBDA0C98BDF8342006440A980BF1010B37
:104350000544C3E7D01A013000B20890A188B4F92F
:104360000000B4F90270091A01310EB205FB03F125
:1043700008EB41010FFA8CF5BBF9122001EB450A5D
:10438000D91B0B971144079FB34671430EFA8CF665
:1043900007EB4101361AB9F1010F01EB46091C4642
:1043A00040F0BF801998FD2840F29C8308980128AE
:1043B0000998FFF682AF4FEA400806984FEA4B048F
:1043C000470050464946424618F0B6F90898BA44A4
:1043D0000138A1440890F4D16FE748F21D49079CC9
:1043E000C0F600098B46691A01310DB2069959438E
:1043F00008EB4107A3EB0A013144694304EB410494
:1044000018990FFA8CF6012940D193423FF755AF26
:104410000EEB0601A1EB0B0104EB4101A1EB4606FB
:1044200006994FF6FF7B49000B9169000A9100BF86
:1044300001B20FFA8CF888451CDCDDF864A00C93FF
:1044400036F8180025EA0B010D1837F818006FF33D
:104450000F040444284621465246C84727F818004E
:10446000BDF93800804508F10108E9DBBDF83A20C4
:104470000C9B80B211B28B42BFF61FAF0B99BDF8F7
:1044800034C00F440A9901330E44D1E793423FF7F9
:1044900014AF0C930A9B714204EB410A03EB010831
:1044A00006994FF6FF7B49000B9169000A9100BF06
:1044B00001B20FFA8CF68E4205DD22E001B28E4287
:1044C00006F101061BDA18F806100029F6D0199A31
:1044D000FC2901FB02F098BF020A3AF8160025EA0F
:1044E0000B010D1837F816006FF30F04044428462B
:1044F0002146C84727F81600BDF83800DEE7BDF8AA
:104500003A200C9B11B28B420999BFF6D6AE884473
:104510000B9901330F440A99BDF834C00C938A44B7
:10452000C6E71999FD2940F2AB830899099C012936
:10453000FFF6C3AE211F0C91D1180B9A4FF61F083E
:10454000891A01FB0BE1069A2944081A07EB40007F
:10455000C0F2E078520000F1060C4FEA4B00002355
:10456000059204900DE00598069B824404990898F2
:104570000133A644894483428C44CDF828E03FF4BB
:104580009CAE012C4FF000050FDBDDF828E01EF09B
:104590000300CDF81CE000F089809EF8000008B30D
:1045A000FF2807D1B9F800001AE0DDF828E0CDF8BF
:1045B0001CE07BE0B9F80010BAF8002041EA0141A4
:1045C00042EA0242043002EA080201EA0801C00895
:1045D000891A484302EB501000EA080040EA1040F4
:1045E000AAF800000EF10101022C4FF001055CDB7E
:1045F00011F0030059D00878E0B1FF2802D1B9F8D2
:10460000020015E0B9F80210BAF8022041EA0141AF
:1046100042EA0242043002EA080201EA0801C00844
:10462000891A484302EB501000EA080040EA1040A3
:10463000AAF802000EF10201032C4FF0020534DB50
:1046400011F0030031D00878E0B1FF2802D1B9F8A9
:10465000040015E0B9F80410BAF8042041EA014159
:1046600042EA0242043002EA080201EA0801C008F4
:10467000891A484302EB501000EA080040EA104053
:10468000AAF804000EF10301042C4FF003050CDB23
:1046900011F0030009D00878002800F01E82FF28DE
:1046A00040F00382B9F8060015E207910C980693D2
:1046B000854280F2D380079B0AEB4507CDF80CC0FA
:1046C0000CEB45044FF0000C4FF0000E0B9523E06F
:1046D00007EB0C0234F80C10D58841EA014145EA99
:1046E0000545043005EA080501EA0801C008491B30
:1046F000484305EB50100B9D00EA080040EA1040CB
:10470000D08000BF0EF1040E0C9905EB0E0088421C
:104710000CF1080C80F2A78053F80E000028F1D0AD
:10472000411C0FD104EB0C0030F8061C07EB4E06C1
:1047300027F80C1030F8041C718030F8020CB0809F
:1047400086E000BFC1B211B3FF2904D104EB0C0015
:1047500030F8060C19E004EB0C0131F8061C37F8B0
:104760000C60042246EA064641EA014152FA80F012
:1047700006EA080601EA0801C008891B484306EB5F
:10478000501000EA080040EA104027F80C0003EB44
:104790000E00D346CA46C14690F80180B8F1000F1A
:1047A00025D004EB0C01B8F1FF0F04D131F8041C43
:1047B00007EB4E061AE007EB4E0631F8041C728830
:1047C00041EA014142EA024208F1040502EA090213
:1047D00001EA0901ED08891A69434B4602EB5111C0
:1047E0000B9D01EA0901079B41EA11417180817823
:1047F000C846D146DA4621B3FF2907D104EB0C01A4
:1048000031F8021C07EB4E0291801AE004EB0C0217
:1048100007EB4E0532F8022CAE8842EA024246EA25
:104820000646043106EA080602EA0802C908921B95
:10483000514306EB511101EA080141EA1141A980F7
:104840000B9DC07800283FF45DAFFF287FF440AF98
:1048500034F80C0007EB0C01C88053E7079BA54216
:10486000BFF681AE08E07344DDE9094EDDF80CC007
:104870000546A542BFF677AE601BE34610F0030C79
:1048800006D01878F8B1FF2805D139F8150018E0DE
:104890002E461F4643E039F815103AF8152041EA34
:1048A000014142EA0242043002EA080201EA080138
:1048B000C008891A484302EB501000EA080040EA99
:1048C00010402AF815005F1CBCF1010F05F101062C
:1048D00025D03878E0B1FF2802D139F8160015E06C
:1048E00039F816103AF8162041EA014142EA02422C
:1048F000043002EA080201EA0801C008891A4843A4
:1049000002EB501000EA080040EA10402AF81600B6
:104910009F1CBCF1020F05F1020640F0A280099C29
:10492000DC46E84320440328FFF41DAEA21B7300BD
:1049300020E000BF09EB03010AEB0306C988F588F4
:1049400041EA014145EA0545043005EA080501EA66
:104950000801C008491B484305EB501000EA080055
:1049600040EA1040F080043A03F1080307F104071D
:104970003FF4F9AD3878E8B1FF2803D139F80300E6
:1049800016E000BF39F803103AF8036041EA01412C
:1049900046EA0646043006EA080601EA0801C008AD
:1049A000891B484306EB501000EA080040EA10401B
:1049B0002AF80300787810B3FF2807D109EB030029
:1049C00040880AEB0301488019E000BF09EB0301AE
:1049D0000AEB03064988758841EA014145EA054525
:1049E000043005EA080501EA0801C008491B4843EC
:1049F00005EB501000EA080040EA10407080B878DB
:104A000008B3FF2806D109EB030080880AEB0301F5
:104A1000888018E009EB03010AEB03068988B58852
:104A200041EA014145EA0545043005EA080501EA85
:104A30000801C008491B484305EB501000EA080074
:104A400040EA1040B080F87800283FF48CAFFF288F
:104A50007FF470AF09EB0300C0880AEB0301C88044
:104A600081E73878099CDC46E0B1FF2802D139F8AB
:104A7000160015E039F816103AF8162041EA0141FF
:104A800042EA0242043002EA080201EA0801C008D0
:104A9000891A484302EB501000EA080040EA10402F
:104AA0002AF81600DF1CEE1C3BE7B9F80610BAF82E
:104AB000062041EA014142EA0242043002EA0802C9
:104AC00001EA0801C008891A484302EB501000EAC5
:104AD000080040EA1040AAF806000EF10400079012
:104AE0000425E3E50898099A0128FFF6E6AB199931
:104AF0004FF61F0004314FEAD10C511E059102F010
:104B000003010B91594649000A910699C0F2E070E1
:104B100022F0030B49000026079109E007990136AE
:104B20008A440899099A8E420A9989443FF4C5AB90
:104B3000012AF3DB0599002203290C9655D36FF067
:104B4000070300BF09EB03070AEB0304B4F808806E
:104B5000B7F808E048EA08464EEA0E450640054028
:104B6000AD1B05FB0CF506EB5516064046EA16464E
:104B7000268109EB42060AEB42056988768841EAFC
:104B8000014146EA064601400640761A06FB0CF64D
:104B900001EB5611014041EA11416980A189BE89AA
:104BA00041EA014146EA064601400640761A06FB04
:104BB0000CF601EB5611014041EA1141A181E18956
:104BC000FF8941EA014147EA0747014007407F1A50
:104BD00007FB0CF701EB57110140043241EA114188
:104BE000934503F10803E181ACD10B990C9E002998
:104BF00094D03AF8121039F8123041EA014143EAF0
:104C00000343014003405B1A03FB0CF301EB531118
:104C10000B9B014041EA1141012B2AF812103FF48D
:104C20007DAF511C3AF8113039F8117043EA034353
:104C300047EA074703400740FF1A07FB0CF703EB5F
:104C400057130B9F034043EA1343022F2AF81130F6
:104C50003FF464AF911C3AF8112039F8113042EA60
:104C6000024243EA0343024003409B1A03FB0CF356
:104C700002EB5312024042EA12422AF811204DE799
:104C8000089809990128FFF618AB481E059001F015
:104C900003000B904FEA4B00079006984FF61F0C4D
:104CA000C0F2E07C21F003084000002306900DE0F4
:104CB00006980C9B82440999089A079801338E4400
:104CC00093428144CDF828E03FF4F7AADDF828E0CC
:104CD000199801290C93EBDB0599032970D2002761
:104CE0000B990029E4D01EF80710E9B101FB00F28E
:104CF000FC29014698BF110A39F817203AF81740E5
:104D000042EA024244EA0444043104EA0C0402EA9E
:104D10000C02C908121B514304EB511101EA0C01AA
:104D200041EA11412AF817100B990129C0D07A1CC9
:104D30001EF80210E9B101FB00F4FC29014698BFFE
:104D4000210A39F812403AF8125044EA044445EA7C
:104D50000545043105EA0C0504EA0C04C908641B86
:104D6000614305EB511101EA0C0141EA11412AF8B6
:104D700012100B9902299BD0BA1C1EF802100029B0
:104D800096D001FB00F4FC29014698BF210A39F8AE
:104D900012403AF8125044EA044445EA0545043109
:104DA00005EA0C0504EA0C04C908641B614305EB21
:104DB000511101EA0C0141EA11412AF8121077E77A
:104DC0000024002706E000BF0437B84504F10804BA
:104DD0003FF486AF1EF80720EAB102FB00F1FC2A7F
:104DE000024698BF0A0A39F804103AF8045041EA1A
:104DF000014145EA0545043205EA0C0501EA0C01CA
:104E0000D208491B514305EB511101EA0C0141EA5B
:104E100011412AF804100EEB0702517819B301FB77
:104E200000F5FC29014698BF290A09EB47050AEB62
:104E3000470B6D88BBF802E045EA05454EEA0E4691
:104E4000043106EA0C0605EA0C05C908AD1B6943E6
:104E500006EB5111DDF828E001EA0C01199841EA4E
:104E60001141ABF802109178F1B101FB00F6FC2979
:104E7000014698BF310A09EB04060AEB0405B6881F
:104E8000AB8846EA064643EA0343043103EA0C03CF
:104E900006EA0C06C908F61A714303EB511101EA40
:104EA0000C0141EA1141A980D17800298CD001FB85
:104EB00000F2FC29014698BF110A09EB04020AEB33
:104EC0000403D288DE8842EA024246EA06460431FA
:104ED00006EA0C0602EA0C02C908921B514306EBD3
:104EE000511101EA0C0141EA1141D9806CE700003F
:104EF0002DE9F04F91B0054622F08AF804460020D3
:104F00001090E96840F2181A0869C2F2000ACAF85B
:104F100000101DF0C3FDDAF80010486918B11DF04B
:104F2000BDFDDAF80010C8691DF0B8FDDAF8000020
:104F3000006A1DF0B3FDDAF800000169002900F0F5
:104F40008180B0F8546141F2EC5B002EC1F2000B9D
:104F500002947DD000244FF001080DF124090121B5
:104F600004E000BF0134B44231464DD20029F9D0EB
:104F7000011991F834110029F4D1002507E000BF90
:104F8000DAF800000135B0F85461B542EAD2A54222
:104F9000F6D0411991F834110029F1D100F1340112
:104FA00001EBC40001EBC501FDF7D6FE0028E7D0F8
:104FB000DAF80000343000EBC40100EBC5024846CB
:104FC000FDF7DEFF484608F0A1F9DAF800100646C2
:104FD00001EBC400343008F099F9DAF80010074604
:104FE00001EBC500343008F091F938448642C7D24D
:104FF000DAF80000DDE9092300EBC40128444A6324
:105000008B6380F83481BBE70021002ECBF80010C1
:1050100000F07981012E1FDB811991F83321EAB16B
:10502000022E19DB91F83221D2B1032E14DB91F854
:105030003121BAB1042E0FDB91F83011043E002962
:10504000E8D110E00021A0F8541111B0BDE8F08FB4
:105050000020CBF8000056E1002604E0013E02E00B
:10506000023E00E0033E0168C9680A6A22F00102BC
:105070000A620168C9680A6A22F002020A62B0F88C
:105080005411002900F03F8100252DE0DAF80000DE
:1050900000243C820CF0F4FD0138B882DAF80000FC
:1050A0007C820CF041FE0138DAF80010F8820868C2
:1050B000C068016A41F00201016240461DF0E0FD56
:1050C000DAF8000000EBC500343008F01FF9DBF817
:1050D00000100144DAF80000CBF80010B0F85411C9
:1050E00001358D4280F0E880411991F83411002992
:1050F000F4D1B54205D10168C9680A6A42F00102DB
:105100000A62016800EBC509C96809F134080A6A36
:1051100022F002020A6201680F8A0CF0ADFDF90765
:105120000746B3D139F8360F0490484630F802BF2D
:10513000CDF80C90CDE90608DAF80000B8F8008048
:1051400039F9044F0CF0F0FD8442059502DAB9F804
:10515000000004E0DAF800000CF0E6FD01380890E9
:10516000ABEB08000130FA6800B20499B2FBF0F82A
:10517000DAF80000611A0068013109B282698845D5
:105180000DF12409C8BF884672B300210991ADF81A
:105190002810A8F101054946ADF82A509047BDF9FD
:1051A0002A00BDF82610411A013109B2884522DAD9
:1051B00041F2EC5BC1F2000B28B201287ADBDAF88D
:1051C0000000013D006849468269ADF82A509047C9
:1051D000BDF92A00BDF82610411A013109B28845EF
:1051E000EADB00F1010803E041F2EC5BC1F2000BE5
:1051F000079C03990DE00FFA88F1012941F2EC5B5D
:10520000079C059D0399C1F2000BFFF659AF00F111
:105210000108B1F90000089B08EB0002511E0FFACB
:1052200083F9494580B20BDD00212DE020461DF0B9
:1052300027FD08FA85F2079C511E494528461CDCCB
:1052400023888B463B82069B15461B88788208B2D2
:105250000899BB824845C8BF8B461FFA8BF089B2BC
:105260008142A7F816B0E1D1DAF800000068C06802
:10527000016A41F002010162D8E70FFA8BF141F2B5
:10528000EC5B2846C1F2000B059D49453FF418AF81
:1052900021883982069909887882B9820899DAF8D2
:1052A0000000F9820068C068016A41F002010162F1
:1052B000204603E7059D03E729B30168098AC9076A
:1052C00003D003F053FEDAF8000034304FF480715D
:1052D00017F044FEDAF80000202100F59A7017F06C
:1052E0003DFEDAF800000021A0F85411029821F0E8
:1052F00089FE1090DAF800000068036A1BB110996B
:10530000DBF80020984716F0ABFF00F053F900F0EF
:105310000DF940F2D805C2F200052868D8BB0CF0A0
:1053200097FC0CF0C3FC15F0EFFA7F2100222860F7
:105330001DF018FB2868002100221DF007FB2868DB
:105340004FF6FF7100221DF043FB28680321002265
:105350001DF032FB2868032100221DF01BFB28688A
:10536000032100221DF01CFB2868032100221DF0F0
:105370001DFB2868032100221DF024FB286841F64C
:105380003511C0F6030116F0BBFB28680621002288
:10539000002318F049FC40F2EC04C1F2000420683C
:1053A00021F030FE80084A2815D8DBF8000041F2D1
:1053B000893188424ED340F2D001C2F200011098E8
:1053C0000A68104440F2E402C1F200021368086067
:1053D000581C10603EE021F01BFEDAF8001020603F
:1053E00049684FF47A73086840F2E401C1F20001A1
:1053F0000F68B3FBF0F040F2D002C2F200023FB1FE
:1054000016687B43002E08BF0126B3FBF6F400E0CC
:10541000044600230B6040F22C21C2F2000113600D
:105420000A68844288BF0446101940F2E812C1F2AB
:10543000000213680860581C106021F073FE2A688F
:1054400041F63711C0F16403C0F60301104622464D
:1054500016F094FB40F2D404C2F200042068B0BB02
:105460000CF0F6FB0CF022FC15F04EFA7F21002226
:1054700020601DF077FA2068002100221DF066FAF6
:1054800020684FF6FF7100221DF0A2FA2068032168
:1054900000221DF091FA2068032100221DF07AFA03
:1054A0002068032100221DF07BFA206803210022DE
:1054B0001DF07CFA206841F63511C0F6030116F0A4
:1054C0001FFB206804210022002318F0ADFB40F2EE
:1054D000E805C1F20005286821F094FDB0F5967F3B
:1054E00020D921F095FD286009A817F071F80998D6
:1054F0000B994AF2A102401A40F2FE310140CAF271
:10550000A002A1FB02139DF83C10820A20689DF8BE
:105510003D70009141F614119B09C0F603010197FB
:1055200016F02CFB11B0BDE8F08F000010B540F272
:105530005404C2F200042068002818BF17F028F8AD
:1055400020461C2117F00AFDE069002818BF17F05B
:105550001FF804F11C001C2117F000FDA06B0028AF
:1055600018BF17F015F804F138001C2117F0F6FCED
:10557000606D002818BF17F00BF804F154001C21CF
:10558000BDE8104017F0EABC40F22821C2F2000149
:10559000096804E00A7E42F001020A76496900299E
:1055A00008BF70474A688242F4D00A688242F5D147
:1055B000F0E700007047000040F2DC00C2F200009B
:1055C000042100F0B3BC000040F2E800C2F2000089
:1055D0001C2100F0ABBC00002DE9F04F81B00A9F08
:1055E000002B044608BFB7F5807F00F0CD80DDF8C2
:1055F0002C804FF0FF39B8F90060B8F802E007FBE3
:1056000006F0404209EB102C0FFA8EF007FB00F574
:105610006D42891B101A09EB152579434FF00209D9
:10562000784309EB112109EB1022002BA4F800C0EC
:105630006580A180E28000F0AD8046F26769C6F225
:10564000666953FB09F0811001EBD07630B200EBB4
:105650008001A3EB410522F01DF98246701C00B2C7
:1056600022F018F9834606F15A0000B222F012F92E
:10567000074606F15B0000B222F00CF9C5F10A0101
:1056800001FB0AF205FB0B22794305FB001052FBDC
:1056900009F2931050FB09F003EBD271821002EB78
:1056A000D0704A114711B4F90000B4F90210B4F9EE
:1056B0000430B4F9066007FB00FE07FB01F902FBAA
:1056C00011ECB8F8005002FB00FBB8F8020007FB31
:1056D00003F802FB0399534302FB16EE07FB01BAE2
:1056E00002FB118107FB06BB02FB168207FB063398
:1056F00005EB9C2C05EB9E2E00EB9A2A05EB9121E5
:1057000000EB992900EB9B2B05EB922500EB9322F4
:105710000FFA8EF00FFA8CF398421F462EB209B2A0
:10572000B8BF07468E420D46B8BF3546AF42B8BF38
:105730003D4698422580C8BF03468E42C8BF3146C9
:105740008B42C8BF1946A1800FFA8BF00FFA8AF17D
:1057500088420B4612B20FFA89F7B8BF0346BA4225
:105760003E46B8BF1646B342B8BF1E468842668062
:10577000C8BF0146BA42C8BF1746B942C8BF0F46A4
:10578000E78001B0BDE8F08F00202060481EA080B7
:10579000501E0AE0B0B20CEB0003238005EB0E03B1
:1057A00008446380A08002EB0E00E08001B0BDE8F9
:1057B000F08F00002DE9F04F81B00446B0F90800E9
:1057C000B4F90A30081AE189D21AB1F5807F21684C
:1057D0000DD1D4E90B67636A07FB00F506FB125590
:1057E0007A4306FB002003EBA505821017E0A36BAC
:1057F000A78958435A4340114FEA62126FB1D4E966
:105800000B67636A00FB07F506FB12557A4306FB3C
:10581000002003EBA525821201E0636AC518002D64
:105820004FF0000065D4B4F904302E129E4260DAC5
:10583000A06A12EB000A4FF000005AD4B4F9062017
:105840004FEA2A2B934554DA94F83400420719D4CE
:10585000238A04F118080FFA86F90FFA8BF74046ED
:1058600049463A4613F062FEA082404649463A460F
:1058700013F0D2FDA07594F8340000210022C00777
:105880001CD123E00BFB036283070BD411F8123009
:1058900001EB420123754978520061750221C0076E
:1058A0000CD113E002EB42028B5C114423754B7860
:1058B00063758978A1750321C00707D0A08AB0F568
:1058C000FC6F03D1002001B0BDE8F08FE07C78B11F
:1058D000A587A4F83EA0A4F84060A4F842B0626492
:1058E000204684F8481001B0BDE8F04F00F004B83D
:1058F000012001B0BDE8F08F2DE9F04F89B00446DA
:1059000094F83C20006894F83E106F2A0DD8B4F942
:1059100040300027002B6FF07F03C8BF4FF0FF37E8
:1059200082EA030C6F2910D823E0912A4FF0000778
:105930001BD3B4F94030B4F904600133C2F17F0CD9
:10594000B342B8BF01276F2913D991294FF000093D
:105950001CD3B4F94220B4F906300132C1F17F08FA
:105960009A42B8BF4FF0010912E04FF0FF0C6F29C7
:10597000EBD8B4F942204FF00009002A6FF07F0203
:10598000C8BF4FF0FF3981EA020801E04FF0FF087D
:10599000A18A94F834B00891A17D07915FEA4B7118
:1059A00030D4B4F8400004F118053844B4F942206A
:1059B000238A01B22846CDF818C013F0B7FD049031
:1059C000B4F84200B4F940104844238A02B2284691
:1059D00013F0ACFD0590B4F84000B4F84210384420
:1059E00001EB0902238A01B212B2284613F09EFD90
:1059F00094F834B086465FEA8B7120D400200027EB
:105A0000002541E094F84810636CB4F9046009FB88
:105A100001F507FB013205FB063330F802A007FB56
:105A2000013630F8039030F806E05FEA8B7736D421
:105A30000020002700255FEA8B712CD539E0B4F9EE
:105A400040A0B4F942600AEB0700CDF80C800FFAD1
:105A500080F8284641463246CDF808E013F0DCFCD9
:105A6000019006EB090006B228465146324613F073
:105A7000D3FC07462846019D4146DDF80C8032469E
:105A800013F0CAFCDDF808E0DDF818C0DDE904A970
:105A90005FEA8B710DD4FF20A075604641E00139AB
:105AA0000A44855CCA183144875C405C5FEA8B71AC
:105AB000F1D55FFA8CF181F0FF02AB4602FB05F3F2
:105AC000079D15FB0133794312FB0012C3F3072135
:105AD0005FFA88F301FB03F6C2F3072283F0FF03AA
