:020000040800F2
:10000000B0000120390200080B2100089D1F0008E4
:10001000092100084B0800085930000800000000C2
:10002000000000000000000000000000FD2C00089F
:100030004D08000800000000E92B0008FF2C000814
:10004000530200085302000853020008530200083C
:10005000530200085302000853020008530200082C
:10006000530200085302000853020008530200081C
:10007000530200085302000853020008530200080C
:1000800053020008530200085302000853020008FC
:1000900053020008530200085302000853020008EC
:1000A00053020008530200085302000853020008DC
:1000B00053020008530200085302000853020008CC
:1000C00053020008530200085302000853020008BC
:1000D000530200084D300008530200085302000884
:1000E000530200085302000853020008530200089C
:1000F000530200085302000853020008530200088C
:10010000530200085302000853020008530200087B
:10011000530200085302000853020008530200086B
:10012000530200085302000853020008530200085B
:10013000530200085302000853020008530200084B
:10014000530200085302000853020008530200083B
:10015000530200085302000853020008530200082B
:10016000530200085302000853020008530200081B
:100170005302000853020008530200080000000068
:10018000530200085302000800F002F800F045F89E
:100190000AA090E8000C82448344AAF10107DA45E2
:1001A00001D100F03AF8AFF2090EBAE80F0013F0EF
:1001B000010F18BFFB1A43F00103184768780000CD
:1001C000A8780000103A24BF78C878C1FAD852073E
:1001D00024BF30C830C144BF04680C6070470000C1
:1001E0000023002400250026103A28BF78C1FBD840
:1001F000520728BF30C148BF0B607047642900F028
:100200004981002070471FB502F05AFF9DE80300A6
:1002100000F0C4F91FBD10B510BD00F0A2FA1146E0
:10022000FFF7F1FF02F038FF00F0C0FA03B4FFF768
:10023000F2FF03BC02F021FF09488047094800474C
:10024000FEE7FEE7FEE7FEE7FEE7FEE7FEE7FEE786
:10025000FEE7FEE704480549054A064B70470000E3
:10026000992D000889010008B0000020B00001208D
:10027000B0800020B0800020704770B5064600F0C6
:1002800071F9056806F10B0020F00704B4429CBF29
:10029000002070BD2B466A68BAB11068A04210D326
:1002A00004F1080188423CBF5068586007D3516888
:1002B000101941601168091B016058601460101D1D
:1002C00070BD13465268002AE7D12146284600F047
:1002D00051F90028DED170BD70B50446051F00F04D
:1002E00041F90068002C14BF446870BD002C18BF91
:1002F000AC423CBF20466468F8D301680A18AA42A1
:1003000018BF456003D12A6805461144016028687A
:100310004119A1421CBF6C6070BD616869602168B1
:100320000844286070BD53EA020C00F069802DE992
:10033000F04B4FF00006002B1FBFB3FA83F503FA12
:1003400005F424FA05F65E4012BF1643B2FA82F5B0
:1003500002FA05F4C5F120051EBF22FA05FC44EAA5
:100360000C04203556EA044C4FEA144418BF641CB0
:100370004FF000084FF00009904271EB030C39D3A5
:10038000002919BFB1FA81F701FA07F6B0FA80F730
:1003900000FA07F6C7F120071EBF20FA07FC46EA5D
:1003A0000C062037B6FBF4FCA7EB0507103F07F05F
:1003B0001F0BCBF120060CFA0BFB2CFA06F644BF00
:1003C000B3460026202FA4BF5E464FF0000B5BEA29
:1003D000060C08BF4FF0010B19EB0B09ABFB027CBD
:1003E00048EB0608C01B06FB02CC0BFB03CC71EBF1
:1003F0000C01C1E70B46024641464846BDE8F08B7A
:1004000013B54FF000004FF00001AFF30080BDE8DE
:100410001C4070470FB4044910B503AA029800F0BD
:100420004DF910BC5DF814FB000000102DE9F041FF
:100430000E460446002020622046E168884730B31B
:10044000252805D0D4E901219047206A401CF2E715
:10045000E168204600278847050018D0A5F1410033
:10046000192802D820354FF4006732462946204625
:100470002760FFF7C3FE40B1012804D0F61D26F027
:1004800007060836D8E7361DD6E72846DAE7206A99
:10049000BDE8F0812DE9F041064600241068752979
:1004A000314616A510D0AFF30080002802DA404292
:1004B00013A507E031688A0701D512A502E04907B4
:1004C00004D511A5012401E0AFF3008000210A2228
:1004D00006F1240709E0B0FBF2FCB0FBF2F302FBEB
:1004E0001C00303078541846491C0028F3D12346AC
:1004F0002A463046BDE8F04100F086B80000000012
:100500002D0000002B000000200000004FF0000232
:1005100000B5134694469646203922BFA0E80C50F9
:10052000A0E80C50B1F12001BFF4F7AF090728BFD4
:10053000A0E80C5048BF0CC05DF804EB890028BF50
:1005400040F8042B08BF704748BF20F8022B11F079
:10055000804F18BF00F8012B7047704770477047F5
:1005600070470000004870475400002070477047F3
:100570007047704738B504460A4600206946AFF315
:100580000080002808BF38BD02460099204600F0D0
:10059000ABF8012038BD012000F0DCB8F8B5AFF3AE
:1005A0000080054600200C46102000BF0646A81912
:1005B000A0420DD9324669460020AFF30080070003
:1005C00008BF00F0C7F80098A04218BF0546C4193C
:1005D000FFF7C8FF05600746F01D20F00700461929
:1005E000284600F00AF8B44208BFF8BDA21B314605
:1005F0003868BDE8F84000F077B800210160C0E934
:1006000001107047102070472DE9F0470D469946BC
:100610009246044600F124080168880604D5E06982
:1006200021F01001216000E00120A84201DD471BFC
:1006300000E00027A1697A1902EB0900081AA061FD
:100640002078C00602D42046AFF30080002608E0E0
:10065000D4E901211AF806009047206A401C761C54
:1006600020624E45F4DB2078C0060AD52046AFF361
:10067000008006E0D4E9012130209047206A401C28
:100680002062381EA7F10107F4DC07E0D4E901215C
:1006900018F805009047206A401C2062281EA5F12A
:1006A0000105F3DC2046AFF300802078000602D578
:1006B0000220BDE8F0870120FBE70000074B70B582
:1006C0000D467B4400F02FF80446284600F03EF823
:1006D00010B14FF0FF3070BD204670BDBB29000047
:1006E000004870474C000020034640688C460028B4
:1006F00018BF88423CBF03464068F8D318681844C6
:10070000884207D00CF1030020F00700001D411AB9
:10071000521A0146081D0A60FFF7DEBD01694A1C36
:1007200002610878704700B58FB0CDE90131002132
:10073000059105497944CDE9031011466846FFF754
:1007400075FE0FB000BD0000E5FFFFFF007B00F06D
:100750008000704710B500F037F8BDE8104000F099
:100760002EB87546FFF7BCFFAE46050069465346F6
:1007700020F00700854618B020B5FFF76BFDBDE8F7
:1007800020404FF000064FF000074FF000084FF0F8
:10079000000B21F00701AC46ACE8C009ACE8C00989
:1007A000ACE8C009ACE8C0098D46704710B50446F6
:1007B000AFF300802046BDE81040FFF737BD0028AA
:1007C00001D002F05ABC704710B5012805D00021B5
:1007D00003A000F021F8012010BD09A1F8E70000F6
:1007E00053494752544D454D3A204F7574206F661A
:1007F0002068656170206D656D6F72790000000082
:100800003A2048656170206D656D6F727920636F65
:10081000727275707465640070B505460C460A20E6
:1008200000E06D1C02F02AFC35B128780028F8D1D0
:1008300002E0641C02F022FC14B120780028F8D1F8
:10084000BDE870400A2002F019BCFEE770472DE9B0
:10085000F0414FF49473002110271E468022084671
:1008600000F011F900242146002000F0F7F82420C0
:1008700000F0BCF80025FF2000F0D4F86D1CADB2EC
:10088000BD42F8D3641CA4B2B442ECD3BDE8F0413D
:1008900000F024B92DE9F04180464FF49473002113
:1008A00010271E468022084600F0EDF8002421465D
:1008B000002000F0D3F8242000F098F85FF0000545
:1008C00004FB075018F8000000F0ACF86D1CADB246
:1008D000BD42F5D3641CA4B2B442E8D3BDE8F041F4
:1008E00000F0FCB870B50122354E0446D502294609
:1008F000304600F0B2FCC82002F0E0FB002229469E
:10090000304600F0AAFC022002F0D8FB0122294662
:10091000304600F0A2FCC82002F0D0FB012000F01D
:1009200065F8272000F07EF8012000F07BF8002019
:1009300000F078F80C2000F059F8D72000F072F899
:10094000D62000F06FF89D2000F06CF82C2000F00D
:100950004DF8A82000F066F83A2000F047F81A2079
:1009600000F060F83B2000F041F8082000F05AF851
:100970003C2000F03BF8032000F054F8112000F078
:1009800035F8032000F04EF8322000F02FF85CB16B
:10099000012C08D10B4D0024285D00F043F8641CA5
:1009A000A4B21E2CF8D370BD064D00241E3D285D58
:1009B00000F038F8641CA4B21E2CF8D370BD0000FF
:1009C000001402400031000870B54FF40054064D89
:1009D00002E0642002F072FB2146284600F038FC59
:1009E0000128F6D070BD00000014024070B5054625
:1009F00000220221094800F030FC094C002220218D
:100A0000204600F02AFC284600F0AEFA2046BDE859
:100A100070400122202100F020BC000000040240B0
:100A20000008024070B5054601220221094800F085
:100A300014FC094C00222021204600F00EFC284620
:100A400000F092FA2046BDE870400122202100F01B
:100A500004BC0000000402400008024070B50546D6
:100A60000C464E20FFF7C2FFC5F3C700FFF7DAFFC1
:100A70004F20FFF7BBFFE0B2FFF7D4FF200ABDE82D
:100A80007040FFF7CFBF2DE9F04107461C461646E0
:100A90000D464420FFF7AAFFC7F3C700FFF7C2FFC8
:100AA000C6F3C700FFF7BEFF4520FFF79FFFE8B280
:100AB000FFF7B8FF280AFFF7B5FFE0B2FFF7B2FF74
:100AC000200ABDE8F041FFF7ADBF10B51020FFF7D9
:100AD0008DFFBDE810400120FFF7A4BF10B5222014
:100AE000FFF784FFC420FFF79DFF2020FFF77EFF64
:100AF000FF20FFF77BFFBDE81040FFF765BF000058
:100B00002DE9F04385B0A8A0FFF784FC00F014FAAB
:100B1000ABA0FFF77FFC0020FFF7E4FEFFF797FE96
:100B20004FF4FA79484602F0C9FA4FF49450FFF7AF
:100B3000A4FB5FEA00087DD0A8A0FFF76BFCFF26AE
:100B40004FF487734FF4947280214046009601F071
:100B5000B3FFA7A0FFF75EFC404601F0CBFFFF20EC
:100B600001F0D4FAA84801F023FB4046FFF792FEBB
:100B70004FF4FA67384602F0A1FAA4A0FFF74AFC46
:100B8000404601F0B7FFFF2001F0C0FAA2A0FFF736
:100B900041FC01252B46002250210A20009501F03E
:100BA00021FD022300225A210A20009501F01AFD9E
:100BB0000323002264210A20009501F013FD002484
:100BC0004622CDE90045782311461420029401F015
:100BD00065FC4621CDE9004578231422084602949D
:100BE00001F05CFC4622CDE9004578231146142033
:100BF000029401F075FDCDE900457823822246215B
:100C00005020029501F06CFDCDE900540023142220
:100C10005F212D2001F03AFB0095FF2314225F2174
:100C20006920019501F032FB5F23CDE900457D226B
:100C3000194600E05FE05520029501F02FFC692283
:100C4000CDE9004573234B211046029501F026FCA7
:100C5000CDE90046764B77A200210A2001F05EFE26
:100C6000CDE90064764B77A214210A2001F056FEEC
:100C7000CDE90046724B764A21210A2001F06EFC34
:100C8000CDE900646A4B734A32210A2001F066FC08
:100C9000CDE90046704B71A20021822001F074FD65
:100CA000CDE900646F4B70A21421822001F06CFD2D
:100CB0004046FFF7EFFD384602F000FA6DA0FFF75F
:100CC000A9FB0120FFF70EFE404601F013FF0C20A8
:100CD0008DF8100022208DF8110038206A4F8DF811
:100CE000120014259DF81200401CC0B28DF81200AD
:100CF0003C2808D021E065A0FFF78CFB4FF0FF30C7
:100D000005B0BDE8F0839DF81100401CC0B28DF81D
:100D100011008DF812403C280FD19DF81000401CA6
:100D2000C0B28DF810008DF81140182805D18DF84B
:100D300010408DF811408DF812400096F88850212F
:100D4000503083B2B888C0EBC000963082B2962093
:100D500001F014FACDE900644B4B03AA5021962010
:100D600001F014FE6D1E15F0FF0506D04046FFF79A
:100D700091FD484602F0A2F9B4E74EA0FFF74AFB06
:100D80000020FFF7AFFDFFF762FD4DA0FFF742FB2C
:100D9000FFF79BFE4046FFF79FFA4DA0FFF73AFB97
:100DA00000F0B0F80020ABE74550445F32494E39BF
:100DB0005F746573742044656D6F0D0A0000000058
:100DC000652D506170657220496E697420616E6492
:100DD00020436C6561722E2E2E0D0A005061696EE3
:100DE000745F4E6577496D6167650D0A000000000C
:100DF00073686F7720696D61676520666F72206127
:100E0000727261790D0A0000A2670008447261776E
:100E1000696E670D0A00000044726177696E673A77
:100E2000426C61636B496D6167650D0A00000000EB
:100E300008000010776176657368617265000000D4
:100E40000C00002068656C6C6F20776F726C64001A
:100E500015CD5B07B168DE3A14000020C4E3BAC3C5
:100E60006162630028000020CEA2D1A9B5E7D7D3E4
:100E7000000000005061727469616C2072656672D6
:100E80006573680D0A000000200000204661696C4F
:100E9000656420746F206170706C7920666F7220B9
:100EA000626C61636B206D656D6F72792E2E2E0DF5
:100EB0000A000000436C6561722E2E2E0D0A0000A0
:100EC000476F746F20536C6565702E2E2E0D0A00CF
:100ED000636C6F73652035562C204D6F64756C659F
:100EE00020656E74657273203020706F7765722094
:100EF000636F6E73756D7074696F6E202E2E2E0D7C
:100F00000A00000010B500220221084800F0A5F9EF
:100F100000222021064800F0A0F9BDE81040002280
:100F20004FF40061034800F098B90000000402404B
:100F3000000802400014024010B5002202210748B8
:100F400000F08BF900222021054800F086F90122EB
:100F5000D102044800F081F9002010BD00040240D5
:100F6000000802400014024001B54FF47A730122D8
:100F70006946024800F048FD08BD0000100000105E
:100F800072B6FEE72DE9F0410446876D00F06AF97C
:100F9000064694F835000025022806D080206065BA
:100FA00084F834500120BDE8F0812068016821F008
:100FB000160101602068416921F080014161206CC7
:100FC00008B9A06C20B12068016821F00801016017
:100FD0002068016821F0010101600CE000F042F995
:100FE000801B052807D920206065032084F8350080
:100FF00084F83450D7E720680068C007EED194F831
:101000005C103F208840B860012084F8350084F8E7
:1010100034500020C7E790F83510022903D0802112
:10102000416501207047052180F83510006801688E
:1010300021F00101016000207047000070B50446F6
:1010400000F010F90546601C02D004480078044402
:1010500000F008F9401BA042FAD370BD0000002048
:101060002DE9F84FDFF8BCA1002201250AF1040B9D
:1010700003264FF00F090BF1040E00BF0B6805FAB1
:1010800002F42340A34270D10F7907F00307012F28
:1010900001D0022F16D187684FEA420806FA08FCF1
:1010A00027EA0C07D1F80CC00CFA08FC4CEA070C34
:1010B000C0F808C04768A7430C79C4F300149440F3
:1010C0003C4344600C79E443A4070AD0C4684FEA67
:1010D000420C06FA0CF7BC438F6807FA0CF727435B
:1010E000C7600C7904F00304022C12D1D40800EB81
:1010F000840CDCF820405707FF0E09FA07F824EAB1
:101100000804D1F8108008FA07F848EA0408CCF877
:10111000208004684FEA420C06FA0CF7BC430F79B2
:1011200007F0030707FA0CF7274307604C6814F42D
:10113000403F70D03C4C276847F4804727602468C4
:1011400022F0030704F480440094384C07EB040CAD
:10115000DCF8084897074FEA177809FA08F7BC4304
:10116000334FB84202D1002724E054E0314FB84257
:1011700001D101271EE0304FB84201D1022719E00A
:101180002E4FB84201D1032714E02D4FB84201D1B0
:1011900004270FE02B4FB84201D105270AE02A4F60
:1011A000B84201D1062705E0284FB84201D10727F0
:1011B00000E0082707FA08F72743CCF80878DAF8A0
:1011C00000405746D1F804C09C435FEACC3C00D5B0
:1011D0001C433C60DBF800405F46D1F804C09C43F0
:1011E0005FEA8C3C00D51C433C60DEF8004077464B
:1011F000D1F804C09C435FEACC2C00D51C433C6072
:10120000084F0C373C68D1F804C09C435FEA8C2C33
:1012100000D51C433C60521C102AFFF42FAFBDE8E0
:10122000F88F0000003C014044380240003001408B
:10123000000002400004024000080240000C02408E
:10124000001002400014024000180240001C02403E
:101250000069084000D0012070470AB181617047E1
:101260000904FBE701488068704700000000002087
:1012700002488168027811448160704700000020B4
:101280000B4810B5016841F400710160016841F438
:1012900080610160016841F480710160032000F009
:1012A0006FF80F2000F006F800F024F8002010BDC1
:1012B000003C024070B50D4D04464FF47A71287819
:1012C000B1FBF0F00A490968B1FBF0F000F04FFC07
:1012D00048B9102C07D200222146501E00F030F8E9
:1012E00000206C6070BD012070BD00000000002077
:1012F000040000100A4808B5016841F4804101600B
:10130000006800F4804000900548001F016841F02B
:1013100080510160006800F08050009008BD00001E
:1013200044380240002809DB00F01F0201219140EF
:101330004009800000F1E020C0F800117047000073
:10134000F0B40E4B1B680C46C3F30223C3F1070530
:10135000042D00D90425191D072901D2002300E01E
:10136000DB1E012606FA05F1491E214099409E40E8
:10137000761E16403143F0BC01F06FBE0CED00E06C
:10138000064900F0070208684FF6FF03184040EADC
:101390000220034A10430860704700000CED00E093
:1013A0000000FA052DE9F0470E46050065D0DFF88C
:1013B0001481D8F80000F7B200F00700B04207D25D
:1013C00088F80070D8F8000000F00700B04254D14F
:1013D00028683D4C810712D5400703D5206840F4AA
:1013E000E05020602878000703D5206840F4604072
:1013F00020602068A96820F0F00008432060287869
:10140000C0072DD0304968680839012812D0022859
:1014100013D0032811D00968890700292DDA216823
:1014200021F0030101432160FFF71CFF814641F2D7
:10143000883A0EE009688903EFE709688901ECE75B
:10144000FFF710FFA0EB0901514502D90320BDE8C9
:10145000F0872068696800F00C00B0EB810FEFD1D5
:10146000D8F80010404601F00701B14207D90770D3
:10147000006800F00700B04201D00120E7E72878BB
:10148000400705D52068E96820F4E0500843206053
:101490002878000706D52068296920F4604040EAD2
:1014A000C100206000F038F82168084AC1F3031138
:1014B000515CC8400649086006480068FFF7FAFE1C
:1014C0000020C4E7003C024008380240CA3000084F
:1014D0000400001004000020044805490068096861
:1014E000044AC1F38221515CC840704704000010D7
:1014F00008380240DA3000080448054900680968E5
:10150000044AC1F34231515CC840704704000010E6
:1015100008380240DA300008154810B5006810F0AD
:101520000C02144813D04110042A0FD0082A0ED1FF
:101530000F4C241F2268236802F03F025B0207D58C
:101540002068C0F38810A0FB010106E0084610BD2A
:101550002168C1F38811A1FB00010023FEF7E3FE1F
:101560002168C1F30141491C4900B0FBF1F010BDF5
:10157000083802400024F4002DE9F84F04006ED032
:101580002078DFF84C93C007A9F104054AD009F18F
:1015900004000168C1F38101012908D00068C0F38B
:1015A000810002280AD1D9F80000400206D5286837
:1015B000800337D560680028E1D033E06068B0F57B
:1015C000803F10D0B0F5A02F286810D020F48030D4
:1015D0002860286820F4802028606068A8B1FFF7A0
:1015E00041FE06460DE0286840F48030F4E740F400
:1015F00080202860F7E700BFFFF734FE801B6428D7
:1016000073D828688003F7D50CE0FFF72BFE064659
:1016100005E000BFFFF726FE801B6428F0D828688D
:101620008003F7D42078DFF8AC8280074FF0000AFF
:101630003ED5A748001D016811F00C0F08D00068C6
:10164000C0F3810002280BD1D9F80000400207D472
:101650002868800716D5E068012800D112E033E140
:10166000E068B8B10120C8F80000FFF7FBFD0646AE
:1016700005E000BFFFF7F6FD801B0228C0D82868F0
:101680008007F7D52868216920F0F80040EAC100FA
:1016900028600DE0C8F800A0FFF7E4FD064604E06E
:1016A000FFF7E0FD801B02281FD828688007F7D4C9
:1016B0002078000722D5864F87486169703771B15D
:1016C00001210160FFF7CEFD064604E0FFF7CAFDE9
:1016D000801B022809D838688007F7D50EE0C0F8CB
:1016E00000A0FFF7BFFD064605E082E0FFF7BAFD68
:1016F000801B02287DD838688007F7D420784007FF
:1017000068D5DFF8CCB100270BF13C0BDBF800000B
:10171000C0000BD4DBF8001041F08051CBF8001072
:10172000DBF80000012700F0805000906B4E30681D
:10173000C00510D4306840F480703060FFF792FD2F
:10174000009005E0FFF78EFD0099401A022850D85E
:101750003068C005F6D55E4EA0686C3601280FD003
:101760000528306810D020F001003060306820F08B
:1017700004003060A068B8B1FFF774FD00900FE07E
:10178000306840F00100F4E740F004003060F7E713
:10179000FFF768FD0099411A41F28830814266D80E
:1017A00030688007F4D50EE0FFF75CFD009007E09D
:1017B000FFF758FD0099411A41F28830814256D80E
:1017C00030688007F4D42FB1DBF8001021F080518D
:1017D000CBF80010A069C8B33D49091D0968C1F3E1
:1017E000810102294AD00228504607D0C8F860007B
:1017F00000E03CE0FFF736FD04463BE04746C8F812
:101800006000FFF72FFD064605E000BFFFF72AFD49
:10181000801B02282BD828688001F7D4D4E907015F
:101820000843A16A2E4A490802EB0141626A41EA73
:101830008211084394F82C1040EA0161C9F80010A5
:1018400001203866FFF70EFD044606E03EE000BFCB
:10185000FFF708FD001B022809D828688001F7D58A
:1018600034E000BFFFF7FEFC001B022802D9032072
:10187000BDE8F88F28688001F4D427E00128F7D06C
:10188000D9F80000E26900F4800191421CD1226A7B
:1018900000F03F01914217D147F6C071626A0140E2
:1018A000B1EB821F10D1A26A4FF0FF3300F4403138
:1018B00003EB5202B1EB024F06D194F82C1000F06A
:1018C0007060B0EB016F01D00120D1E70020CFE7BD
:1018D0000438024000004742800E4742007000403A
:1018E0000000FFFF70B5040009D0606A002540B118
:1018F00025616561A56294F8510040B10CE00120BA
:1019000070BD6068B0F5827FF4D0E561F2E784F8DD
:101910005050204600F044F8022084F8510020681E
:10192000016821F040010160A088218900F48270E3
:1019300001F404410843A18901F400610843217CBA
:1019400001F002010843217D01F001010843218BD0
:1019500001F400710843217F01F03801084394F835
:10196000201001F080010843218D01F4005108434B
:1019700021680860A069042101EA104094F824104D
:1019800001F010010843216848602068C16921F412
:101990000061C1616565012084F85100002070BDBF
:1019A00010B586B0044614216846FEF7AFFD134912
:1019B0002068884220D112480021026842F48052F7
:1019C0000260006800F4805005900D4814380268E9
:1019D00042F001020260006800F001000590A020C2
:1019E00000900220CDE9010103200390052004901E
:1019F00069460448FFF734FB06B010BD00300140D3
:101A000044380240000002402DE9F84F044690F8A7
:101A1000500000271D461646894601280DD04FF07C
:101A2000010B84F850B0FFF71DFC804694F851007C
:101A3000BA46012804D0022793E00220BDE8F88FBF
:101A4000B9F1000F73D0002E71D0032084F851003B
:101A5000C4F854A0C4F83090A686E686C4F838A02E
:101A6000A4F83CA0A4F83EA0C4F844A0C4F840A048
:101A7000A068B0F5004F09D12068016821F040014D
:101A800001602068016841F48041016020680168BC
:101A9000490603D4016841F040010160E068B0F5F7
:101AA000006F606803D030B3012E24D041E008B14C
:101AB000012E1CD1206B21680088C86006E02068D8
:101AC0008168890709D5216B0988C160206B801C5A
:101AD0002063E08E401EE08609E0FFF7C3FBA0EB29
:101AE0000800A84202D3681C01D031E07DB3E08E2B
:101AF0000028E4D120E0206B21680078087306E01C
:101B000020688168890709D5216B09780173206BEA
:101B1000401C2063E08E401EE0860AE0FFF7A2FB37
:101B2000A0EB0800A84203D3681C02D010E017E025
:101B30006DB1E08E0028E3D142462946204601F0EF
:101B400055F808B120206065A06818B106E0FFE7ED
:101B5000032706E02068C16880680090606D00B1CE
:101B6000012784F851B084F850A0384666E710B5D4
:101B7000401EB0F1807F01D3012010BD4FF0E02462
:101B800060610F21601701F068FA0020A061072052
:101B90002061002010BD704770470000F8B5016853
:101BA00004460868CA684B6910F00F0F4FF0000533
:101BB00059D003F0010602F49077374365D0C1078E
:101BC00005D0D10503D5216C41F001012164410705
:101BD00005D5D90703D0216C41F0020121648107AA
:101BE00005D5D90703D0216C41F004012164010718
:101BF00007D502F02001314303D0216C41F00801E8
:101C00002164216C00293AD0800604D5900602D5C3
:101C1000204601F0F8F820684069216CC0F380107C
:101C2000090700D460B3204601F0C6F82068406977
:101C3000400621D52068143050E8001F21F04001F3
:101C400040E80012002AF5D1A06BA8B16C490165EB
:101C5000A06BFFF7E0F9002811D0A06B016D01B077
:101C6000BDE8F040084783060FD593060DD5204602
:101C7000BDE8F84001F0C7B82046FFF78DFFF8BD7A
:101C80002046FFF789FF2564F8BD266B2023012E2F
:101C900079D1C60677D5D60675D50868486800900C
:101CA0004869400640D5A16B086840680004000CF4
:101CB000EAD0A28D8242E7D9E085C869B0F5807F7D
:101CC0002DD020680C3050E8001F21F4807140E8CE
:101CD0000012002AF5D12068143050E8001F21F0CE
:101CE000010140E80012002AF5D12068143050E8C4
:101CF000001F21F0400140E80012002AF5D184F8CD
:101D00003E30256320680C3050E8001F21F01001A0
:101D100040E80012002AF5D1A06BFFF733F9A08D3F
:101D2000E18D401A81B229E0A08DE18D401A81B287
:101D3000E08D0028A8D00029A6D020680C3050E8FB
:101D4000002F22F4907240E80026002EF5D1206882
:101D5000143050E8002F22F0010240E80026002E47
:101D6000F5D184F83E30256320680C3050E8002F10
:101D700022F0100240E80023002BF5D12046FFF7A7
:101D80000AFFF8BDFFE705062BD5150629D594F8FF
:101D90003D002128F5D1A068B0F5805F01D1206910
:101DA000B0B1206A411C2162216800784860E08C53
:101DB000401E0004000CE084E3D12068C16821F0DB
:101DC0008001C1602068C16841F04001C160D8E76E
:101DD000206A0088C0F308004860206A801C2062E6
:101DE000E5E74006CDD55006CBD5CA68204622F09F
:101DF0004002CA6084F83D3000F0CFF8C1E700002F
:101E0000A92D000870B5040004D094F83D00002509
:101E100010B106E0012070BD84F83C50204600F06F
:101E200023F8242084F83D002068C16821F4005183
:101E3000C160204601F048F82068016921F4904112
:101E400001612068416921F02A0141612068C1686F
:101E500041F40051C1602564202084F83D0084F8DD
:101E60003E00002070BD000010B586B0044614216D
:101E70006846FEF74BFB18492068884229D117486D
:101E80000021026842F010020260006800F01000B9
:101E9000059012481438026842F00102026000689E
:101EA00000F0010005904FF4C06000900220CDE9E1
:101EB0000101032003900720049069460848FFF7BA
:101EC000CFF8002211462520FFF73AFA2520FFF728
:101ED00029FA06B010BD000000100140443802404D
:101EE00000000240704700002DE9F843044690F8D6
:101EF0003D001F4616460D4620284CD1C5B1BEB147
:101F000094F83C00012846D0012084F83C004FF0B2
:101F10000008C4F84080212084F83D00FFF7A2F9B2
:101F2000A6848146E684A068B0F5805F03D004E013
:101F30000120BDE8F883206928B12E465FF0000536
:101F400084F83C800EE00026FAE78021204601F06C
:101F500041F8A0B9AEB116F8010B21684860E08CD9
:101F6000401EE084E08C4B464FF0000200970028B2
:101F7000EBD14FF04001204601F02CF830B10320A6
:101F8000D7E735F8020BC0F30800E6E7202084F815
:101F90003D000020CDE70220CBE77047FEE70000C0
:101FA0002DE9F04387B014216846FEF7AFFA3248B6
:101FB0000024016841F080010160016801F08001A6
:101FC0000591016841F001010160016801F0010122
:101FD0000591016841F004010160016801F004010C
:101FE0000591016841F002010160016801F0020100
:101FF0000591016841F02001016000681F4F00F069
:1020000020000590002220213846FFF726F9DFF84E
:102010007080002202214046FFF71FF9DFF864902C
:10202000FE14002231464846FFF717F920200090A1
:102030000125CDE90154694638460394FFF710F8AD
:1020400002200090CDE90154694640460394FFF711
:1020500007F80096CDE90154694648460394FEF717
:10206000FFFF6803CDE90004694648460294FEF785
:10207000F7FF07B0BDE8F0833038024000080240A7
:102080000004024000140240104810B50E490160DF
:102090004FF48271416000218160C1604FF4007291
:1020A0000161C0E905122822C0E90721416281626D
:1020B0000A21C162FFF716FC002803D0BDE81040DA
:1020C000FEF75EBF10BD00000030014010000010A0
:1020D0000C4810B50A4901604FF4E131416000211C
:1020E00081600C22C160C0E904128161C161FFF707
:1020F00089FE002803D0BDE81040FEF741BF10BDA7
:102100000010014068000010FEE7FEE730B51A49F4
:10211000CA8A022A08D0042A06D0072A18D140EA1F
:1021200000100022C3B222E00022C3B20DE0002062
:1021300006E000BF02FB04040D68401C80B22B5572
:102140004C8A8442F6D8521C92B2888A9042EED8C9
:1021500030BD002006E000BF02FB04040D68401CF7
:1021600080B22B554C8A8442F6D8521C92B2888A8F
:102170009042EED830BD0000340000202DE9F0433D
:102180001F4616460D468046DDF81C900CE044467E
:1021900006E04A462946204600F0B2FC641CA4B280
:1021A000B442F6D36D1CADB2BD42F0D3BDE8F083AE
:1021B00070B50022094B0DE0002106E002FB04147B
:1021C0001E68055D491C355589B25C8A8C42F5D87C
:1021D000521C92B2998A9142EED870BD3400002010
:1021E0002DE9F04F814628481E46DDF828B0838847
:1021F00088464B4546D3C188414543D3B088410703
:1022000000D0012101EBD000203A10FB02F0F18850
:102210004FF0800A484331680F1800252FE0002452
:1022200024E000BFBBF1FF0F397804F007022AFA5F
:1022300002F001EA000101D009B908E081B108EB20
:10224000050081B209EB040080B2099A06E008EBB0
:10225000050081B209EB040080B25A4600F050FC40
:10226000E043400700D17F1C641CA4B2B088A042A8
:10227000D8D83079400700D07F1C6D1CADB2F088F3
:10228000A842CCD8BDE8F08F340000202DE9FF4FE4
:102290008046814885B00F468488139944457BD396
:1022A000C088B84278D903200024A0EB420015B2C0
:1022B0000FFA80FA01297BD0EAE0264661E000BFF0
:1022C0004FF0010908EB040007EB060B02901FFA20
:1022D0008BF1CDF8009080B24B46089A00F082F95D
:1022E000A8EB040004901FFA8BF1CDF8009080B2A7
:1022F0000123089A00F076F93819CDE9009081B2EF
:10230000A8EB060B1FFA8BF00123089A00F06AF97C
:10231000381B039081B2CDF800901FFA8BF0012397
:10232000089A00F05FF90498A7EB060B1FFA8BF1EF
:10233000CDF8009080B20123089A00F053F902987A
:102340001FFA8BF1CDF8009080B20123089A00F0BB
:1023500049F9039808EB060B81B2CDF800901FFAFB
:102360008BF00123089A00F03DF90198CDF8009018
:1023700081B21FFA8BF00123089A00F033F9761C22
:1023800036B2AE429CDDBAF1000F07DA0AEB8400E8
:10239000801D0FFA80FA09E00CE009E0611B0AEBEE
:1023A00081000A306D1E0FFA80FA2DB2641C24B22F
:1023B000AC4282DD09B0BDE8F08F08EB04000126D5
:1023C00007EB050902901FFA89F1009680B2129B73
:1023D000089A00F007F9A8EB040003901FFA89F1AE
:1023E000009680B2129B089A00F0FCF83819CDE9EB
:1023F000006081B2A8EB05091FFA89F0129B089AC8
:1024000000F0F0F8A7EB040B1FFA8BF11FFA89F02C
:102410000096129B089A00F0E5F80398A7EB0509CF
:102420001FFA89F1009680B2129B089A00F0DAF840
:1024300002981FFA89F1009680B2129B089A00F068
:10244000D1F808EB05091FFA8BF11FFA89F0009605
:10245000129B089A00F0C6F80198009681B21FFA04
:1024600089F0129B089A00F0BDF8BAF1000F05DA66
:102470000AEB8400801D0FFA80FA07E0611B0AEB6B
:1024800081000A306D1E0FFA80FA2DB2641C24B24E
:10249000AC4292DD8EE70000340000202DE9FE4FB3
:1024A0001D462D4B16469A88824253D3DB888B42B9
:1024B00050D3B2424ED3AB424CD383468A46321AF3
:1024C00000D5821B91466A1A002A00DD4A1B9046FD
:1024D0004FF0FF32B34501D2012000E010460290D8
:1024E000AA4500D2012209EB0804002701927F1CB3
:1024F0000E98FFB2012805D10320B7FBF0F100FBD5
:102500001170E8B10120DDE90C23009051465846D6
:1025100000F068F8B8EB440F07DCB3451AD0029915
:1025200044440BEB01001FFA80FBB9EB440FDEDBE8
:10253000AA450FD001984C4450441FFA80FAD6E7C0
:1025400001200090FF22514658460D9B00F04AF8AA
:102550000027DFE7BDE8FE8F340000202DE9FF4FA4
:10256000ADF5037D8846DDE990AB814600244FF44C
:10257000807715462646394642A8FDF7C7FF3946FB
:1025800002A8FDF7C3FF164842AA83884B4523D310
:10259000C38802A843451FD30A219DB195FBF1F3DF
:1025A00001FB135395FBF1F530330355641C24B242
:1025B000F3E7031913F8013C8B55761C641E36B201
:1025C00024B200E01146002CF3DCCDE900BA41460C
:1025D0004846869B00F0A2F90DF5077DBDE8F08F17
:1025E000340000202DE9F05F294D93468846AA88E3
:1025F00081460A991C464A4502D3EB8843450AD2D4
:10260000494624A0FDF706FFEA884146BDE8F05F91
:1026100029A0FDF7FFBE012901D0002634E00025E6
:10262000681E00EB440718E009EB05000026A0EB4C
:10263000040A0EE0BAF1000F0DD408EB0600001BEF
:1026400009D481B21FFA8AF05A4600F059FA761C72
:1026500036B2B742EEDC6D1C2DB2AF42E4DCBDE811
:10266000F09F002509EB06077F1E09E008EB050037
:10267000401E81B2B8B25A4600F042FA6D1C2DB22B
:10268000A542F3DB761C36B2A642EADBE7E70000A0
:102690003400002058706F696E74203D202564203E
:1026A0002C205061696E742E5769647468203D2037
:1026B000256420200D0A200059706F696E74203D3A
:1026C000202564202C205061696E742E486569674E
:1026D0006874203D20256420200D0A2000000000A1
:1026E0002DE9FE4F8246274891460C46DDE90D5202
:1026F00081880C9E1F46514518D3C088A04215D32F
:10270000494513D3B84211D30020804662B90FE087
:10271000CDE9006523464A4619465046CDF8088063
:10272000FFF7BCFE641CA4B2BC42F1D3BDE8FE8F2F
:10273000CDE9006523464A4619465046CDF8088043
:10274000FFF7ACFECDE9006552463B4621461046F8
:10275000CDF80880FFF7A2FECDE900654A46234682
:1027600039461046CDF80880FFF798FECDE90065A0
:102770003B46524619464846CDF80880FFF78EFE84
:10278000D4E70000340000202DE9F04F1D469046AC
:1027900006468A46DDF828B0B6E07F294FF00000F3
:1027A00054D8AA884CE053232C68434314F81330C0
:1027B0008B4244D153214843022101EB400004EBFA
:1027C0000009002737E000242CE000BF4FEAE47046
:1027D00004EB507020F00700A4EB0002BBF1FF0FE8
:1027E00099F800104FF0800020FA02F001EA000191
:1027F00001D009B907E071B10AEB070081B23019C5
:1028000080B2099A05E00AEB070081B2301980B264
:102810005A4600F075F940482040072801D109F1D7
:102820000109641C2889A042D0DC287A400701D025
:1028300009F101097F1C6889B842C4DC02E0401C30
:102840008242B0DC08F10108E8885CE00127AB882F
:1028500054E053222C68424314F812C08C454CD1EA
:1028600007EB4202A45C98F80120944245D1532220
:1028700050430222296802EB400001EB00090027C7
:1028800037E000242CE000BF4FEAE47004EB507006
:1028900020F00700A4EB0002BBF1FF0F99F8001035
:1028A0004FF0800020FA02F001EA000101D009B9DE
:1028B00007E071B10AEB070081B2301980B2099AC2
:1028C00005E00AEB070081B2301980B25A4600F0E9
:1028D00017F911482040072801D109F10109641CAA
:1028E0002889A042D0DC287A400701D009F10109EB
:1028F0007F1C6889B842C4DC02E0401C8342A8DC2B
:10290000288908F10208064498F8001000297FF48D
:1029100044AFBDE8F08F0000070000802DE9FC4FB8
:102920008046194889460D4681884446DDF830B016
:102930001E461746A14225D3C1888246A94221D30B
:102940001DE0B088BAF804300119994203D9F18822
:10295000444629448DB2F188BAF8060029448142E0
:1029600001D944464D460B983346CDE900B029467F
:102970002046FFF735FCB0887F1C204484B23A78AB
:10298000002ADED1BDE8FC8F340000202DE9FF4F86
:1029900085B046A117468046DDE9126507C902AB3E
:1029A0004FF00A0983E8070039790898B1FBF9F17B
:1029B0009A4684881AF80120CDE900564046089BC3
:1029C0000699FFF70DFC397908EB040BB1FBF9F21E
:1029D00009FB12111FFA8BF01AF80120CDE90056FD
:1029E000089B0699FFF7FCFBCDE900560BEB940022
:1029F00000EB540080B23A22089B0699FFF7F0FBE7
:102A0000797908EB4400B1FBF9F100EB54001AF8B6
:102A10000120CDE9005680B2089B0699FFF7E0FB44
:102A2000797904EB440BB1FBF9F209FB12110BEBC2
:102A300008001AF80120CDE9005600EB540080B2DE
:102A4000089B0699FFF7CCFB08EB8400CDE9005604
:102A500000EB5400A0EB940080B23A22089B069948
:102A6000FFF7BEFBB979089BB1FBF9F11AF8012019
:102A700004EB8401CDE9005601EB080080B2069911
:102A8000FFF7AEFBBA7908EB4B00B2FBF9F109FB9B
:102A9000112180B21AF80120CDE90056089B069951
:102AA000FFF79EFB09B0BDE8F08F000030313233F4
:102AB000343536373839000070B50D4C049E00258A
:102AC000206021816281A6810220E0824E074FEAC8
:102AD000D10000D0401C6082A282E381258223B114
:102AE000B42B02D0A280E18070BDA180E28070BDD5
:102AF00034000020014908607047000034000020C5
:102B0000F0B5384CA38883424BD3E3888B4248D33B
:102B10002346E7891E895D89CFB15A2F1AD0B42F79
:102B20001CD0B7F5877F3CD10B46281A401E80B2D7
:102B3000218AD9B1012916D0022904D0032930D124
:102B4000F11A491E8BB2281A401E80B20EE00346CD
:102B50000846EDE7711A491E8BB2E9E7301A401EAC
:102B600083B2681AE2E7F11A491E8BB29E4218D36B
:102B7000854216D31B49E58A4C8A0968022D11D07B
:102B8000042D20D0072D0CD1444304EB5304DB0764
:102B90005B0FF025DD40085D1201A843DA400243D7
:102BA0000A55F0BD444304EBD3048020002A0D5D98
:102BB00003F0070220FA02F002D028430855F0BDC6
:102BC00085430D55F0BD444304EB930094079B07E8
:102BD0005D0F0A5CC023EB409A43230EEB40134386
:102BE0000B54F0BD340000207047000038B5044697
:102BF0001248134B0068B0FBF3F04FF47A7358435C
:102C000000906068B0F5827F0DD10B4600920022E3
:102C10008021204600F016F870B1606D40F0200071
:102C20006065032038BD009830B1401E00902068D8
:102C30008068C0430006F6D5002038BD04000010AF
:102C400000366E012DE9F8431E469146884604463B
:102C5000089DFEF707FB401B351AFEF703FB0746EE
:102C600025480068C0F3CB30684338E0701C37D08B
:102C7000FEF7F8FAC01BA84203D215B1009860B362
:102C80002CE02068416821F0E00141606068B0F507
:102C9000827F0BD1A068B0F5004F02D0B0F5806FF5
:102CA00004D12068016821F040010160A06AB0F5FC
:102CB000005F09D12068016821F40051016020689B
:102CC000016841F400510160012084F851000020A6
:102CD00084F850000320BDE8F8830025401E0090D2
:102CE0002068816838EA010004D000214945BDD13F
:102CF0000020F0E70121F9E7040000107047FEF71B
:102D0000B7BA000030B593B030216846FDF7FEFB3E
:102D100014210CA8FDF7FAFB1D480025016841F0BD
:102D200080510160006800F08050119019480168DE
:102D300041F4804101600068022400F48040119059
:102D400001200090000401908001CDE9064008AA0E
:102D50000420A82182E813000B906846FEF70CFCC3
:102D600008B172B6FEE70CA90F2081E831004FF4DC
:102D7000A0500F904FF48050109005210CA8FEF742
:102D800011FB002801D072B6FEE713B030BD000081
:102D900040380240007000400248016841F4700170
:102DA0000160704788ED00E010B5806B0021C1859F
:102DB000C184FEF7F1FE10BD01680C3151E8002F0F
:102DC00022F4907241E80023002BF5D10168143100
:102DD00051E8002F22F0010241E80023002BF5D139
:102DE000016B012909D101680C3151E8002F22F053
:102DF000100241E80023002BF5D1202180F83E107D
:102E000000210163704708B590F83E10222901D0D7
:102E1000022008BD82684FF480539A4201D10169B3
:102E200021B1816A9A421BD04AB10AE00268816AE4
:102E30005268C2F308020A80816A891C08E00269AC
:102E400072B10268526802F07F020A70816A491CFE
:102E50008162C18D491E0904090CC18503D019E0A6
:102E600002685268F1E70168CA6822F02002CA606D
:102E70000168CA6822F48072CA6001684A6922F057
:102E800001024A61202180F83E10016B012903D024
:102E9000FFF728F8002008BD0021016301680C310C
:102EA00051E8002F22F0100241E80023002BF5D159
:102EB00001680A68D20602D50A6849680091818DC6
:102EC000FEF769FEE6E7000070B504460068016998
:102ED000E26821F44051114301612169A068E2696F
:102EE00008436169114308432168CA6849F20C63C9
:102EF0009A430243CA6020684169A26921F4407183
:102F00001143416131492068884202D030498842EA
:102F100002D1FEF7F1FA01E0FEF7DEFAE2690023E2
:102F2000192164253226B2F5004F626828D0A0FB33
:102F30000101930F9200FDF7F6F90146B0FBF5F0A1
:102F40006FF01802504301EB800006EB0010B0FB5D
:102F5000F5F000F0F002B1FBF5F002EB0012B1FB6E
:102F6000F5F06FF01803584301EB800006EB0010FA
:102F7000B0FBF5F000F00F0021681044886070BDD0
:102F8000A0FB010192185B41FDF7CDF90146B0FBB2
:102F9000F5F00201B1FBF5F06FF01803584301EBB7
:102FA000800006EBC000B0FBF5F000F0F80002EB8B
:102FB0004002B1FBF5F0584301EB800006EBC00086
:102FC000B0FBF5F000F00700D6E70000001001406C
:102FD000001401402DE9F041984617460E4604467C
:102FE000069D27E0681C25D02DB1FEF73BF9A0EB2C
:102FF0000800A8421ED920680C3050E8001F21F4B8
:10300000D07140E80012002AF5D12068143050E851
:10301000001F21F0010140E80012002AF5D1202014
:1030200084F83D0084F83E00002084F83C00032032
:10303000BDE8F0812068006836EA000004D0002076
:10304000B842CFD00020F3E70120F9E70148FEF7AE
:10305000A5BD000068000010FEE70907090E002862
:1030600004DB00F1E02080F80014704700F00F004E
:1030700000F1E02080F8141D704770477047000091
:1030800013B54FF6FF73012269460248FEF72CFF85
:1030900000981CBD68000010FEF7F2F8FFF732FE42
:1030A000FEF77EFFFFF714F8FEF7EEFFFDF728FDB1
:1030B0004FF47A74204600F001F8FBE7FDF7BEBF3D
:1030C0004FF04070E1EE100A704700000000000071
:1030D00000000102030406070809000000000102C5
:1030E000030450AA55AA11000000000000000000CF
:1030F000000000000000FFFF1F00000000000000B3
:10310000101818081818080000000000000000003F
:103110000000000013144412000000000000000032
:10312000000000000000000000000010101010104F
:10313000000010000000006C484800000000000083
:103140000000001414287C287C2850500000001037
:1031500038404038487010100000002050200C709B
:103160000814080000000000001820205448340013
:103170000000001010101000000000000000000807
:103180000810101010101008080000202010101057
:1031900010101020200000107C10282800000000D3
:1031A00000000000101010FE1010100000000000C1
:1031B0000000000000181030200000000000007C1B
:1031C000000000000000000000000000003030009F
:1031D00000000004040808101020204000000038FF
:1031E000444444444444380000000030101010109F
:1031F00010107C00000000384404081020447C00BB
:103200000000003844041804044438000000000C96
:10321000141424447E040E000000003C20203804D6
:10322000044438000000001C204078444444380026
:103230000000007C4404080808101000000000385A
:103240004444384444443800000000384444443C7A
:103250000408700000000000003030000030300032
:1032600000000000001818000018302000000000C6
:103270000C10608060100C000000000000007C005A
:103280007C00000000000000C02018041820C000CE
:10329000000000001824040810003000000038442A
:1032A000444C54544C404438000000301028282826
:1032B0007C44EE00000000F8444478444444F800A4
:1032C0000000003C4440404040443800000000F012
:1032D000484444444448F000000000FC445070500E
:1032E0004044FC000000007E222838282020700086
:1032F0000000003C4440404E44443800000000EED2
:1033000044447C444444EE000000007C1010101043
:1033100010107C000000003C0808084848483000B5
:10332000000000EE444850704844E6000000007081
:103330002020202024247C00000000EE6C6C5454DB
:103340004444EE00000000EE64645454544CEC001D
:1033500000000038444444444444380000000078ED
:1033600024242438202070000000003844444444C1
:103370004444381C000000F8444444784844E200C7
:10338000000000344C40380404645800000000FE83
:103390009210101010103800000000EE4444444415
:1033A00044443800000000EE44442828281010004F
:1033B000000000EE4444545454542800000000C659
:1033C000442810102844C600000000EE44282810AD
:1033D000101038000000007C4408101020447C00CD
:1033E000000000382020202020202020380000402D
:1033F00020202010100808080000003808080808DD
:1034000008080808380000101028440000000000D8
:1034100000000000000000000000000000FE00109E
:103420000800000000000000000000000038443CDC
:1034300044443E00000000C0405864444444F80046
:1034400000000000003C4440404438000000000CF4
:1034500004344C4444443E00000000000038447CE6
:1034600040403C000000001C207C202020207C00EC
:103470000000000000364C4444443C04380000C0C6
:10348000405864444444EE000000001000701010E6
:1034900010107C00000000100078080808080808D8
:1034A000700000C0405C48705048DC0000000030F4
:1034B0001010101010107C000000000000E85454A0
:1034C0005454FE000000000000D864444444EE0060
:1034D000000000000038444444443800000000006C
:1034E00000D8644444447840E000000000364C4476
:1034F00044443C040E000000006C302020207C007E
:1035000000000000003C4438044478000000000043
:10351000207C202020221C000000000000CC44441D
:10352000444C36000000000000EE444428281000FF
:103530000000000000EE4454545428000000000035
:1035400000CC48303048CC000000000000EE44249D
:103550002818101078000000007C481020447C00DF
:1035600000000008101010102010101008000010AB
:10357000101010101010101000000020101010106B
:103580000810101020000000000000245800000067
:103590000000C4E300000000000000001DC01D800A
:1035A0003BFF3B073F777E76F870FBFEFBFE3F77E5
:1035B0003F773E73387038703BE000000000000039
:1035C00000000000000000000000000000000000FB
:1035D00000000000000000000000000000000000EB
:1035E00000000000000000000000000000000000DB
:1035F00000000000000000000000000000000000CB
:1036000000000000000000000000000000000000BA
:1036100000000000000000000000000000000000AA
:10362000000000000000000000000000000000009A
:103630000000000000000000BAC30000000000000D
:103640000000300073FF700FFE1E7E3C6E38EE30BF
:10365000EFFFFC307C3038303E307E30E030C1F05F
:10366000000000000000000000000000000000005A
:10367000000000000000000000000000000000004A
:10368000000000000000000000000000000000003A
:10369000000000000000000000000000000000002A
:1036A000000000000000000000000000000000001A
:1036B000000000000000000000000000000000000A
:1036C00000000000000000000000000000000000FA
:1036D0000000000000000000000000000000CAF729
:1036E0000000000000000000300E300E3FEE30EE13
:1036F000FCFF76CE77FE7BFEFFFEF3DEF3CE37EEE9
:103700003E6E3C0E303E0000000000000000000055
:1037100000000000000000000000000000000000A9
:103720000000000000000000000000000000000099
:103730000000000000000000000000000000000089
:103740000000000000000000000000000000000079
:103750000000000000000000000000000000000069
:103760000000000000000000000000000000000059
:103770000000000000000000000000000000000049
:1037800000000000DDAE0000000000000000067038
:10379000FFFF3E7038007FFFE000FFFC3B8C39CC20
:1037A000FFFF739C71DC7FFF001C01F8000000002C
:1037B0000000000000000000000000000000000009
:1037C00000000000000000000000000000000000F9
:1037D00000000000000000000000000000000000E9
:1037E00000000000000000000000000000000000D9
:1037F00000000000000000000000000000000000C9
:1038000000000000000000000000000000000000B8
:1038100000000000000000000000000000000000A8
:1038200000000000000000000000C5C9000000000A
:1038300000000000E01FFFF03E000E1FCFFBFFF86E
:103840003FFF0FFF7FD87FDC6FCEEDFFFDF7F9C0A4
:103850000000000000000000000000000000000068
:103860000000000000000000000000000000000058
:103870000000000000000000000000000000000048
:103880000000000000000000000000000000000038
:103890000000000000000000000000000000000028
:1038A0000000000000000000000000000000000018
:1038B0000000000000000000000000000000000008
:1038C00000000000000000000000000000000000F8
:1038D0006100000000000000000000000000000087
:1038E00000003E00670007800F807F80E380E78054
:1038F000E7807F8000000000000000000000000062
:1039000000000000000000000000000000000000B7
:1039100000000000000000000000000000000000A7
:103920000000000000000000000000000000000097
:103930000000000000000000000000000000000087
:103940000000000000000000000000000000000077
:103950000000000000000000000000000000000067
:103960000000000000000000000000000000000057
:1039700000000000000062000000000000000000E5
:1039800070007000700070007F007B8071C071C09B
:1039900071C071C071C07B807F000000000000001A
:1039A0000000000000000000000000000000000017
:1039B0000000000000000000000000000000000007
:1039C00000000000000000000000000000000000F7
:1039D00000000000000000000000000000000000E7
:1039E00000000000000000000000000000000000D7
:1039F00000000000000000000000000000000000C7
:103A000000000000000000000000000000000000B6
:103A10000000000000000000000000006300000043
:103A200000000000000000000000000000003F0057
:103A30007300F000E000E000E000F00073003F00E1
:103A40000000000000000000000000000000000076
:103A50000000000000000000000000000000000066
:103A60000000000000000000000000000000000056
:103A70000000000000000000000000000000000046
:103A80000000000000000000000000000000000036
:103A90000000000000000000000000000000000026
:103AA0000000000000000000000000000000000016
:103AB0000000000000000000000000000000000006
:103AC00000004100000000000000000000000E00A7
:103AD0001F001F001F003B803B8071807FC071C0B2
:103AE000E0E0E0E0E0E00000000000000000000096
:103AF00000000000000000000000000000000000C6
:103B000000000000000000000000000000000000B5
:103B100000000000000000000000000000000000A5
:103B20000000000000000000000000000000000095
:103B30000000000000000000000000000000000085
:103B40000000000000000000000000000000000075
:103B50000000000000000000000000000000000065
:103B60000000000000000000000000000000000055
:103B70000000000000000000000000000000000045
:103B8000000000000000000000000C000C000C0011
:103B90000C000C000C000C000C0000000C000000DD
:103BA0000000000000000000000000001DC01DC05B
:103BB000088008800880000000000000000000006D
:103BC000000000000000000000000D800D800D804E
:103BD0000D803FC01B003FC01B001B001B001B00D3
:103BE000000000000000000004001F8031803180D0
:103BF00038001E000F000380318031803F00040038
:103C00000400000000000000000018002400240050
:103C100018C007801E003180024002400180000071
:103C20000000000000000000000000000F0018006D
:103C3000180018000C001D80370033001D800000A4
:103C40000000000000000000000000000700070066
:103C5000020002000200000000000000000000005E
:103C60000000000000000000000003000300060048
:103C70000E000C000C000C000C000E0006000300EF
:103C800003000000000000000000180018000C00F5
:103C90000600060006000600060006000C001C00D8
:103CA00018000000000000000000060006003FC0F1
:103CB0003FC00F001F8019800000000000000000BE
:103CC00000000000000000000000000000000400F0
:103CD000040004003F800400040004000000000011
:103CE00000000000000000000000000000000000D4
:103CF00000000000000000000000060004000C00AE
:103D000008000800000000000000000000000000A3
:103D1000000000003F8000000000000000000000E4
:103D20000000000000000000000000000000000093
:103D3000000000000000000000000C000C0000006B
:103D4000000000000000000000C000C001800180F1
:103D50000300030006000C000C00180018003000DF
:103D6000300000000000000000000E001B00318049
:103D7000318031803180318031801B000E000000A5
:103D80000000000000000000000006003E000600E9
:103D90000600060006000600060006003FC0000000
:103DA000000000000000000000000F0019803180BA
:103DB0003180030006000C00180030003F80000036
:103DC000000000000000000000003F006180018052
:103DD00003001F0003800180018061803F0000001C
:103DE00000000000000000000000070007000F00B6
:103DF0000B001B00130033003F8003000F80000006
:103E0000000000000000000000001F8018001800E3
:103E100018001F0011800180018021801F00000018
:103E20000000000000000000000007801C001800D7
:103E30003000370039803180318019800F00000058
:103E4000000000000000000000007F0043000300AD
:103E500006000600060006000C000C000C00000026
:103E6000000000000000000000001F0031803180D1
:103E700031801F0031803180318031801F0000008F
:103E8000000000000000000000001E003300318030
:103E9000318033801D800180030007003C0000005A
:103EA0000000000000000000000000000000000012
:103EB0000C000C000000000000000C000C000000D2
:103EC00000000000000000000000000000000000F2
:103ED00003000300000000000000060004000800CA
:103EE00008000000000000000000000000C0030007
:103EF00004001800600018000400030000C0000067
:103F000000000000000000000000000000000000B1
:103F100000007FC000007FC0000000000000000023
:103F20000000000000000000000000006000180019
:103F30000400030000C0030004001800600000003B
:103F40000000000000000000000000001F003180A1
:103F50003180018007000C000C0000000C00000004
:103F6000000000000000000000000E001100210011
:103F700021002700290029002700200011000E0041
:103F80000000000000000000000000003F000F00E3
:103F90000900198019801F8030C030C079E000000E
:103FA0000000000000000000000000007F003180E1
:103FB000318031803F003180318031807F000000CE
:103FC0000000000000000000000000001F4030C0A2
:103FD0006040600060006000604030801F000000B2
:103FE0000000000000000000000000007F003180A1
:103FF00030C030C030C030C030C031807F000000E1
:104000000000000000000000000000007F80308001
:10401000308032003E003200308030807F800000EF
:104020000000000000000000000000007FC03040E1
:10403000304032003E003200300030007C00000092
:104040000000000000000000000000001E80318021
:1040500060806000600067C0618031801F000000E8
:104060000000000000000000000000007BC0318064
:10407000318031803F803180318031807BC00000D1
:104080000000000000000000000000003FC006002B
:104090000600060006000600060006003FC00000FD
:1040A0000000000000000000000000001FC003002E
:1040B0000300030003006300630063003E00000090
:1040C0000000000000000000000000007BC0318004
:1040D000330036003C003E003300318079C00000E0
:1040E0000000000000000000000000007E0018003A
:1040F0001800180018001840184018407FC0000031
:10410000000000000000000000000000E0E060C0CF
:1041100071C07BC06AC06EC064C060C0FBE00000BC
:1041200000000000000000000000000073C03180AB
:1041300039803D8035803780338031807980000040
:104140000000000000000000000000001F0031809F
:1041500060C060C060C060C060C031801F000000EF
:104160000000000000000000000000007F0031801F
:104170003180318031803F00300030007E0000000F
:104180000000000000000000000000001F0031805F
:1041900060C060C060C060C060C031801F000CC0E3
:1041A0001F80000000000000000000007F00318040
:1041B000318031803E003300318031807CE000006E
:1041C0000000000000000000000000001F8031809F
:1041D000318038001F000380318031803F000000B3
:1041E0000000000000000000000000007F804C8004
:1041F0004C804C800C000C000C000C003F000000B8
:104200000000000000000000000000007BC03180C2
:104210003180318031803180318031801F00000059
:104220000000000000000000000000007BC03180A2
:1042300031801B001B001B000A000E000E00000056
:10424000000000000000000000000000FBE060C073
:1042500064C06EC06EC02A803B803B80318000000D
:104260000000000000000000000000007BC0318062
:104270001B000E000E000E001B0031807BC00000F2
:1042800000000000000000000000000079E030C0E5
:1042900019800F0006000600060006001F800000BF
:1042A0000000000000000000000000003F802180AE
:1042B0002300060004000C00188030803F800000BE
:1042C000000000000000000000000780060006005B
:1042D00006000600060006000600060006000600AE
:1042E00007800000000000003000300018001800B7
:1042F0000C000C000600030003000180018000C0D8
:1043000000C000000000000000001E0006000600C3
:10431000060006000600060006000600060006006D
:104320001E0000000000000004000A000A00110046
:10433000208020800000000000000000000000003D
:10434000000000000000000000000000000000006D
:10435000000000000000000000000000000000005D
:10436000000000000000FFE0080004000200000060
:10437000000000000000000000000000000000003D
:10438000000000000000000000000000000000002D
:104390001F00018001801F80318033801DC000001C
:1043A000000000000000000000007000300030003D
:1043B0003700398030C030C030C03980770000000D
:1043C00000000000000000000000000000000000ED
:1043D0001E80318060806000608031801F0000009E
:1043E0000000000000000000000003800180018048
:1043F0001D80338061806180618033801DC000003A
:1044000000000000000000000000000000000000AC
:104410001F00318060C07FC0600030C01F8000007E
:104420000000000000000000000007E00C000C008D
:104430003F800C000C000C000C000C003F800000C2
:10444000000000000000000000000000000000006C
:104450001DC0338061806180618033801D80018058
:1044600001801F00000000000000700030003000DC
:104470003700398031803180318031807BC000004D
:104480000000000000000000000006000600000020
:104490001E00060006000600060006003FC00000E1
:1044A0000000000000000000000006000600000000
:1044B0003F000300030003000300030003000300A8
:1044C00003003E00000000000000700030003000DB
:1044D000378036003C003C003600330077C00000D7
:1044E000000000000000000000001E0006000600A2
:1044F0000600060006000600060006003FC0000099
:1045000000000000000000000000000000000000AB
:104510007F8036C036C036C036C036C076E0000078
:10452000000000000000000000000000000000008B
:104530007700398031803180318031807BC000004C
:10454000000000000000000000000000000000006B
:104550001F00318060C060C060C031801F0000005B
:10456000000000000000000000000000000000004B
:104570007700398030C030C030C03980370030001B
:1045800030007C000000000000000000000000007F
:104590001DC0338061806180618033801D80018017
:1045A000018007C0000000000000000000000000C3
:1045B0007B801CC018001800180018007F00000045
:1045C00000000000000000000000000000000000EB
:1045D0001F8031803C001F00038031803F000000BD
:1045E0000000000000000000000018001800180083
:1045F0007F00180018001800180018800F00000035
:1046000000000000000000000000000000000000AA
:104610007380318031803180318033801DC0000053
:10462000000000000000000000000000000000008A
:104630007BC0318031801B001B000E000E0000008B
:10464000000000000000000000000000000000006A
:10465000F1E060C064C06EC03B803B8031800000F0
:10466000000000000000000000000000000000004A
:104670007BC01B000E000E000E001B007BC0000064
:10468000000000000000000000000000000000002A
:1046900079E030C0198019800B000F000600060079
:1046A0000C003E00000000000000000000000000C0
:1046B0003F80218003000E00180030803F80000002
:1046C0000000000000000000000006000C000C00CC
:1046D0000C000C000C0018000C000C000C000C006E
:1046E00006000000000000000000060006000600B2
:1046F000060006000600060006000600060006008A
:10470000060000000000000000000C00060006008B
:10471000060006000600030006000600060006006C
:104720000C0000000000000000000000000000007D
:1047300000001800248003000000000000000000BA
:104740000000000000000000000000000000000069
:104750000000000000000000000000000000000059
:104760000000000000000000000000000000000049
:104770000000070007000700070007000700070008
:104780000200020000000000070007000000000017
:104790000000000000000000000000001CE01CE021
:1047A0001CE0084008400840000000000000000035
:1047B00000000000000000000000000000000000F9
:1047C0000CC00CC00CC00CC00CC03FF03FF00CC0C3
:1047D0000CC03FF03FF00CC00CC00CC00CC00CC0B3
:1047E00000000000000000000300030007E00FE0ED
:1047F000186018001F000FC000E0186018601FC08C
:104800001F80030003000300000000000000000000
:1048100000001C002200220022001C6001E00F802A
:104820003C0031C002200220022001C00000000034
:10483000000000000000000000000000000003E095
:104840000FE00C000C0006000F301FF019E018C03C
:104850001FF007B000000000000000000000000092
:1048600000000000038003800380010001000100BC
:104870000000000000000000000000000000000038
:104880000000000000000000000000C000C0018027
:104890000180018003000300030003000300030004
:1048A00001800180018000C000C000000000000005
:1048B00000000C000C0006000600060003000300C8
:1048C00003000300030003000600060006000C00BE
:1048D0000C000000000000000000030003000300C3
:1048E0001B601FE0078007800FC00CC000000000A5
:1048F00000000000000000000000000000000000B8
:1049000000000000000003000300030003003FF06C
:104910003FF003000300030003000000000000005C
:104920000000000000000000000000000000000087
:1049300000000000000000000000000000000380F4
:104940000300030006000600040000000000000051
:1049500000000000000000000000000000003FE038
:104960003FE0000000000000000000000000000028
:104970000000000000000000000000000000000037
:1049800000000000000000000000000000000380A4
:104990000380038000000000000000000000000011
:1049A0000060006000C000C000C001800180030002
:1049B0000300060006000C000C000C001800180094
:1049C000000000000000000000000F801FC018C0A1
:1049D000306030603060306030603060306018C00F
:1049E0001FC00F8000000000000000000000000059
:1049F000000003001F001F0003000300030003006A
:104A000003000300030003001FE01FE0000000009C
:104A1000000000000000000000000F801FC038E010
:104A20003060006000C00180030006000C00180028
:104A30003FE03FE000000000000000000000000038
:104A400000000F803FC030E0006000E007C007C0FA
:104A500000E00060006060E07FC03F800000000078
:104A60000000000000000000000001C003C003C0FF
:104A700006C00CC00CC018C030C03FE03FE000C012
:104A800003E003E000000000000000000000000060
:104A900000001FC01FC0180018001F801FC018E0B2
:104AA00000600060006030E03FC01F800000000038
:104AB0000000000000000000000003E00FE01E0006
:104AC0001800380037803FC038E03060306018E0B0
:104AD0001FC0078000000000000000000000000070
:104AE00000003FE03FE03060006000C000C000C058
:104AF000018001800180030003000300000000002A
:104B0000000000000000000000000F801FC038E01F
:104B1000306038E01FC01FC038E03060306038E0DF
:104B20001FC00F8000000000000000000000000017
:104B300000000F001FC038C03060306038E01FE058
:104B40000F6000E000C003C03F803E000000000096
:104B50000000000000000000000000000000000055
:104B60000000038003800380000000000000038039
:104B7000038003800000000000000000000000002F
:104B80000000000000000000000001C001C001C0E2
:104B9000000000000000038003000600060004007F
:104BA00000000000000000000000000000000030D5
:104BB00000F003C007001C0078001C00070003C0C1
:104BC00000F00030000000000000000000000000C5
:104BD000000000000000000000007FF07FF00000F7
:104BE00000007FF07FF000000000000000000000E7
:104BF0000000000000000000000000000000300085
:104C00003C000F00038000E0007800E003800F000C
:104C10003C00300000000000000000000000000028
:104C2000000000000F801FC018601860006001C005
:104C300003800300000000000700070000000000E0
:104C40000000000000000000000003800C8008400D
:104C50001040104011C012401240124011C010000C
:104C6000080008400780000000000000000000006D
:104C7000000000001F801F80038006C006C00CC01B
:104C80000C601FE01FE0303078787878000000007A
:104C90000000000000000000000000003F803FC056
:104CA0001860186018E01FC01FE018701830183026
:104CB0003FF03FE0000000000000000000000000A6
:104CC0000000000007B00FF01C70383030003000DA
:104CD0003000300038301C700FE007C000000000CA
:104CE0000000000000000000000000007F807FC086
:104CF00030E030703030303030303030307030E0D4
:104D00007FC07F8000000000000000000000000065
:104D1000000000003FF03FF01830183019801F806D
:104D20001F801980183018303FF03FF0000000005D
:104D30000000000000000000000000003FF03FF015
:104D40001830183019801F801F8019801800180033
:104D50003F003F00000000000000000000000000D5
:104D60000000000007B01FF0187030303000300035
:104D700031F831F8303018301FF007C00000000063
:104D80000000000000000000000000003CF03CF0CB
:104D90001860186018601FE01FE018601860186045
:104DA0003CF03CF0000000000000000000000000AB
:104DB000000000001FE01FE00300030003000300E9
:104DC00003000300030003001FE01FE000000000D9
:104DD00000000000000000000000000003F803F8DD
:104DE000006000600060006030603060306030E083
:104DF0003FC00F8000000000000000000000000025
:104E0000000000003EF83EF818E019801B001F006B
:104E10001D8018C018C018603E783E3800000000A1
:104E20000000000000000000000000003F003F0004
:104E30000C000C000C000C000C000C300C300C3082
:104E40003FF03FF000000000000000000000000004
:104E5000000000007878787838703CF034B037B0D3
:104E600037B03330333030307CF87CF8000000004D
:104E700000000000000000000000000039F03DF0DC
:104E80001C601E601E601B601B6019E019E018E0CA
:104E90003EE03E6000000000000000000000000056
:104EA0000000000007800FC01CE038703030303048
:104EB0003030303038701CE00FC007800000000038
:104EC0000000000000000000000000003FC03FE0C4
:104ED00018701830183018701FE01FC01800180024
:104EE0003F003F0000000000000000000000000044
:104EF0000000000007800FC01CE0387030303030F8
:104F00003030303038701CE00FC0078007B00FF031
:104F10000CE0000000000000000000003FC03FE087
:104F20001870183018701FE01FC018E01860187053
:104F30003E383E18000000000000000000000000A5
:104F4000000000000FB01FF03870303038001F80B4
:104F500007E00070303038703FE037C000000000DC
:104F60000000000000000000000000003FF03FF0E3
:104F700033303330333003000300030003000300F9
:104F80000FC00FC000000000000000000000000083
:104F9000000000003CF03CF01860186018601860D9
:104FA0001860186018601CE00FC007800000000047
:104FB00000000000000000000000000078F078F021
:104FC0003060306018C018C00D800D800D80070063
:104FD00007000700000000000000000000000000C3
:104FE000000000007C7C7C7C301833983398339828
:104FF00036D816D01C701C701C70183000000000D1
:1050000000000000000000000000000078F078F0D0
:10501000306018C00D80070007000D8018C0306098
:1050200078F078F0000000000000000000000000B0
:10503000000000003CF03CF018600CC007800780C6
:1050400003000300030003000FC00FC000000000B6
:105050000000000000000000000000001FE01FE052
:10506000186018C001800300030006000C6018607F
:105070001FE01FE000000000000000000000000032
:10508000000003C003C0030003000300030003008B
:10509000030003000300030003000300030003C038
:1050A00003C0000000000000180018000C000C00F5
:1050B0000C0006000600030003000180018000C010
:1050C00000C000C0006000600000000000000000A0
:1050D00000000F000F0003000300030003000300A3
:1050E00003000300030003000300030003000F009C
:1050F0000F000000000000000000020007000D800B
:1051000018C03060202000000000000000000000F7
:10511000000000000000000000000000000000008F
:10512000000000000000000000000000000000007F
:10513000000000000000000000000000000000006F
:1051400000000000FFFCFFFC0000040003000080E2
:10515000000000000000000000000000000000004F
:10516000000000000000000000000000000000003F
:10517000000000000000000000000FC01FE0006001
:105180000FE01FE0386030E03FF01F7000000000CB
:1051900000000000000000000000700070003000FF
:1051A000300037803FE038603030303030303860A9
:1051B0007FE0778000000000000000000000000099
:1051C0000000000000000000000007B01FF01830D1
:1051D00030303000300038301FF00FC000000000C9
:1051E00000000000000000000000007000700030AF
:1051F000003007B01FF01870303030303030387069
:105200001FF807B8000000000000000000000000C8
:105210000000000000000000000007801FE0186090
:105220003FF03FF0300018301FF007C000000000D2
:105230000000000000000000000003F007F006007E
:1052400006001FE01FE0060006000600060006003C
:105250001FE01FE000000000000000000000000050
:105260000000000000000000000007B81FF81870E0
:1052700030303030303018701FF007B00030007020
:105280000FE00FC0000000000000380038001800D8
:1052900018001BC01FE01C601860186018601860C0
:1052A0003CF03CF0000000000000000000000000A6
:1052B000000003000300000000001F001F000300A7
:1052C00003000300030003001FE01FE000000000D4
:1052D00000000000000000000000030003000000C8
:1052E00000001FC01FC000C000C000C000C000C040
:1052F00000C000C000C001C03F803F0000000000AF
:10530000000038003800180018001BE01BE01B00EC
:105310001E001E001B00198039F039F0000000004B
:10532000000000000000000000001F001F0003003C
:105330000300030003000300030003000300030055
:105340001FE01FE00000000000000000000000005F
:10535000000000000000000000007EE07FF033301D
:1053600033303330333033307BB87BB8000000004B
:10537000000000000000000000000000000000002D
:1053800000003BC03FE01C601860186018601860A7
:105390003CF03CF0000000000000000000000000B5
:1053A0000000000000000000000007801FE01860FF
:1053B00030303030303018601FE0078000000000CF
:1053C00000000000000000000000000000000000DD
:1053D000000077807FE03860303030303030386027
:1053E0003FE03780300030007C007C00000000008F
:1053F0000000000000000000000007B81FF818704F
:1054000030303030303018701FF007B000300030CE
:1054100000F800F80000000000000000000000009C
:1054200000003CE03DF00F300E000C000C000C00C2
:105430003FC03FC00000000000000000000000006E
:105440000000000000000000000007E01FE01860FE
:105450001E000FC001E018601FE01F800000000068
:105460000000000000000000000000000C000C0024
:105470000C003FE03FE00C000C000C000C000C3076
:105480000FF007C000000000000000000000000056
:105490000000000000000000000038E038E0186064
:1054A00018601860186018E01FF00F70000000000E
:1054B00000000000000000000000000000000000EC
:1054C000000078F078F0306018C018C00D800D80B2
:1054D00007000700000000000000000000000000BE
:1054E0000000000000000000000078F078F032605A
:1054F000326037E01DC01DC018C018C00000000099
:10550000000000000000000000000000000000009B
:1055100000003CF03CF00CC00780030007800CC08A
:105520003CF03CF000000000000000000000000023
:105530000000000000000000000078F078F030600B
:1055400018C018C00D800F800700060006000C0070
:105550007F007F000000000000000000000000004D
:1055600000001FE01FE018C00180030006000C606F
:105570001FE01FE00000000000000000000000002D
:10558000000001C003C00300030003000300030088
:1055900007000E000700030003000300030003C020
:1055A00001C0000000000000000003000300030031
:1055B00003000300030003000300030003000300D3
:1055C00003000300030003000300000000000000CC
:1055D00000001C001E000600060006000600060073
:1055E00007000380070006000600060006001E00F4
:1055F0001C0000000000000000000000000000008F
:10560000000000000E003F3033F001E00000000019
:10561000000000000000000000000000000000008A
:10562000C4E30000000000000000000000000000D3
:10563000000000000000000000000000000001C1A8
:10564000C00001E3E00003E3C00003C7800003C71C
:10565000FFFF078FFFFF078F000F0F1E001E0F3C7D
:105660001E1E1F3C1E3E1F181E3C3F001E1C7F00BE
:105670001E007F079E70FF079EF0EF0F9E786F0F52
:105680001E780F0F1E3C0F1E1E3C0F1E1E1E0F3CD1
:105690001E1E0F3C1E1F0F7C1E0F0F781E0E0F00CC
:1056A0001E000F001E000F003C000F07FC000F073C
:1056B000F8000000000000000000000000000000F2
:1056C000000000000000BAC300000000000000005D
:1056D00000000000000000000000000000000000CA
:1056E0000F0000000F0000000F07FFFE0F07FFFE76
:1056F0000F00003E1E0000FCFFF801F0FFF803E081
:105700001E7807C01E780F803C780F003C780F0091
:105710003C780F003C780F003C7FFFFF78FFFFFFD5
:1057200078F00F0078F00F003DE00F001FE00F0051
:105730000FE00F0007C00F0007E00F0007F00F0099
:105740000FF80F001E7C0F003C380F0078000F0090
:10575000F003FF006001FE000000000000000000F8
:10576000000000000000000000000000CEA20000C9
:105770000000000000000000000000000000000029
:10578000000000000000030701E0078701E00707B1
:1057900001C00FF779C01EF77BC01EF77B803CF776
:1057A0007BFF78F77BFFF8F77F9EF7FFFF9E67FF91
:1057B000FF9E07007F9C0F000F9C1E001F9C1E7FFA
:1057C000FFBC3E7FF3FC3E0003FC7E0001F8FE00C0
:1057D00001F8FE7FE1F8DE7FE1F81E78E0F01E7848
:1057E000EEF01E78FFF01E78FDF81E79FBFC1EF12E
:1057F000F7BC1EF0EF9E1FE00F0F1EC01E0F1E0015
:105800000C07000000000000000000000000000085
:105810000000C8ED000000000000000000000000D3
:10582000000000000000000003C07800078078003E
:10583000078078000780F0000F00F000FFFFFFFFF7
:10584000FFFFFFFF1E03C01F1E03C01E1FE78F3E8A
:105850003DE78F3C3DEF0F7C3DE70F7879E00F008F
:1058600079E00E007FFE0E007FFE1F0001E01F00AA
:1058700001E01F0001E01F8001E01F8001E03F8088
:1058800001FF3FC00FFF7BC0FFF079E0F9E0F1F0CE
:1058900001E1F0F001E3E0F801E7C07C01FF803FA7
:1058A00001FF001F01EC000E0000000000000000DE
:1058B0000000000000000000D1C500000000000052
:1058C00000000000000000000000000000000000D8
:1058D0000000000077000000FF007FFCF7807FFDE4
:1058E000E3C001C1E3C001C3C1803DC7FFFF39C7A9
:1058F000FFFF39CF838079DF838079FF838079DF71
:10590000838071C383807FFFFFFE7FFFFFFE03C3A1
:10591000838007C3838007C383800FC383800FC343
:1059200083801FC3FFFE1DC3FFFE3DC3838079C379
:105930008380F1C38380F1C3838061C3838001C30B
:10594000FFFF03C3FFFF1FC380001F838000000011
:105950000000000000000000000000000000BADAB3
:105960000000000000000000000000000000000037
:105970000000000000000000000000000000000027
:105980001FFFFFFC1FFFFFFC1E03C03C1EC3C73CE4
:105990001FE3C7BC1EF3CF3C1EFBDF3C1E7BDE3C7F
:1059A0001E33DC3C1E03C03C1FFFFFFC1FFFFFFC3F
:1059B0001E03C03C0003C0000003C0003FFFFFFC0B
:1059C0003FFFFFFC0003C0000003C0000003C00055
:1059D000FFFFFFFFFFFFFFFF000000001C3870709B
:1059E0003E78F8F83C7C787C7C3C3C3EF83E3C1FA2
:1059F000F01C180E00000000000000000000000075
:105A000000000000B4CB0000000000000000000017
:105A10000000000000000000000000000000000086
:105A2000000000783C0000783C0000783C000078E2
:105A30003C0000783C0000783C0C3C783C1E3C78F4
:105A40003C3F3C783CF83C7FFDF03C7FFFE03C78FD
:105A50003F803C783E003C783C003C783C003C7801
:105A60003C003C783C003C783C003C783C003C7876
:105A70003C0E3C783C0F3C783C0F3C79FC0F3C7F63
:105A8000FC0F3FFF3C0F3FF03E1EFF001FFEF000EB
:105A90000FFC0000000000000000000000000000FB
:105AA00000000000000000000000D7D60000000049
:105AB00000000000000000000000000000000000E6
:105AC00000038000000780000003C0000003E00026
:105AD0000001E0007FFFFFFE7FFFFFFE7800001E59
